{
  "_format": "hh-sol-artifact-1",
  "contractName": "ActivityClaim",
  "sourceName": "contracts/punchIn/ActivityClaim.sol",
  "abi": [
    {
      "anonymous": false,
      "inputs": [
        {
          "indexed": true,
          "internalType": "address",
          "name": "user",
          "type": "address"
        },
        {
          "indexed": false,
          "internalType": "uint256",
          "name": "timestamp",
          "type": "uint256"
        },
        {
          "indexed": false,
          "internalType": "string",
          "name": "txId",
          "type": "string"
        }
      ],
      "name": "Claim",
      "type": "event"
    },
    {
      "anonymous": false,
      "inputs": [
        {
          "indexed": true,
          "internalType": "address",
          "name": "_user",
          "type": "address"
        },
        {
          "indexed": true,
          "internalType": "address",
          "name": "_old",
          "type": "address"
        },
        {
          "indexed": true,
          "internalType": "address",
          "name": "_new",
          "type": "address"
        }
      ],
      "name": "ConfigChanged",
      "type": "event"
    },
    {
      "anonymous": false,
      "inputs": [
        {
          "indexed": true,
          "internalType": "address",
          "name": "_user",
          "type": "address"
        },
        {
          "indexed": true,
          "internalType": "address",
          "name": "_old",
          "type": "address"
        },
        {
          "indexed": true,
          "internalType": "address",
          "name": "_new",
          "type": "address"
        }
      ],
      "name": "OwnerChanged",
      "type": "event"
    },
    {
      "anonymous": false,
      "inputs": [
        {
          "indexed": true,
          "internalType": "address",
          "name": "user",
          "type": "address"
        },
        {
          "indexed": false,
          "internalType": "uint256",
          "name": "timestamp",
          "type": "uint256"
        }
      ],
      "name": "PunchInEvent",
      "type": "event"
    },
    {
      "inputs": [],
      "name": "admin",
      "outputs": [
        {
          "internalType": "address",
          "name": "",
          "type": "address"
        }
      ],
      "stateMutability": "view",
      "type": "function"
    },
    {
      "inputs": [
        {
          "internalType": "address",
          "name": "_user",
          "type": "address"
        }
      ],
      "name": "changeOwner",
      "outputs": [],
      "stateMutability": "nonpayable",
      "type": "function"
    },
    {
      "inputs": [
        {
          "internalType": "uint256",
          "name": "datetime",
          "type": "uint256"
        },
        {
          "internalType": "bytes",
          "name": "signature",
          "type": "bytes"
        },
        {
          "internalType": "string",
          "name": "txId",
          "type": "string"
        }
      ],
      "name": "claim",
      "outputs": [],
      "stateMutability": "nonpayable",
      "type": "function"
    },
    {
      "inputs": [],
      "name": "config",
      "outputs": [
        {
          "internalType": "address",
          "name": "",
          "type": "address"
        }
      ],
      "stateMutability": "view",
      "type": "function"
    },
    {
      "inputs": [],
      "name": "dev",
      "outputs": [
        {
          "internalType": "address",
          "name": "",
          "type": "address"
        }
      ],
      "stateMutability": "view",
      "type": "function"
    },
    {
      "inputs": [
        {
          "internalType": "address",
          "name": "signer",
          "type": "address"
        }
      ],
      "name": "initialize",
      "outputs": [],
      "stateMutability": "nonpayable",
      "type": "function"
    },
    {
      "inputs": [],
      "name": "owner",
      "outputs": [
        {
          "internalType": "address",
          "name": "",
          "type": "address"
        }
      ],
      "stateMutability": "view",
      "type": "function"
    },
    {
      "inputs": [
        {
          "internalType": "address",
          "name": "signer",
          "type": "address"
        }
      ],
      "name": "setConf",
      "outputs": [],
      "stateMutability": "nonpayable",
      "type": "function"
    },
    {
      "inputs": [
        {
          "internalType": "address",
          "name": "_config",
          "type": "address"
        }
      ],
      "name": "setupConfig",
      "outputs": [],
      "stateMutability": "nonpayable",
      "type": "function"
    },
    {
      "inputs": [
        {
          "internalType": "address",
          "name": "user",
          "type": "address"
        }
      ],
      "name": "userLastClaimTimestamps",
      "outputs": [
        {
          "internalType": "uint256",
          "name": "",
          "type": "uint256"
        }
      ],
      "stateMutability": "view",
      "type": "function"
    },
    {
      "inputs": [
        {
          "internalType": "address",
          "name": "user",
          "type": "address"
        },
        {
          "internalType": "uint256",
          "name": "datetime",
          "type": "uint256"
        },
        {
          "internalType": "bytes",
          "name": "signature",
          "type": "bytes"
        }
      ],
      "name": "verify",
      "outputs": [
        {
          "internalType": "bool",
          "name": "",
          "type": "bool"
        }
      ],
      "stateMutability": "view",
      "type": "function"
    }
  ],
  "bytecode": "0x608060405234801561001057600080fd5b506110f1806100206000396000f3fe608060405234801561001057600080fd5b50600436106100c95760003560e01c806391cca3db11610081578063c4d66de81161005b578063c4d66de8146101e8578063dc4c20b6146101fb578063f851a4401461020e57600080fd5b806391cca3db14610189578063a366a08814610191578063a6f9dae1146101d557600080fd5b80636f576e06116100b25780636f576e06146100f657806379502c551461011e5780638da5cb5b1461016957600080fd5b8063086f70b5146100ce5780633d50f2e0146100e3575b600080fd5b6100e16100dc366004610ce5565b610216565b005b6100e16100f1366004610ce5565b610320565b610109610104366004610dec565b61043d565b60405190151581526020015b60405180910390f35b6000546101449062010000900473ffffffffffffffffffffffffffffffffffffffff1681565b60405173ffffffffffffffffffffffffffffffffffffffff9091168152602001610115565b6001546101449073ffffffffffffffffffffffffffffffffffffffff1681565b61014461055b565b6101c761019f366004610ce5565b73ffffffffffffffffffffffffffffffffffffffff1660009081526003602052604090205490565b604051908152602001610115565b6100e16101e3366004610ce5565b610642565b6100e16101f6366004610ce5565b6107d8565b6100e1610209366004610e45565b610928565b610144610a72565b61021e61055b565b73ffffffffffffffffffffffffffffffffffffffff163373ffffffffffffffffffffffffffffffffffffffff16148061026e575060015473ffffffffffffffffffffffffffffffffffffffff1633145b6102d9576040517f08c379a000000000000000000000000000000000000000000000000000000000815260206004820152600d60248201527f64657620464f5242494444454e0000000000000000000000000000000000000060448201526064015b60405180910390fd5b600280547fffffffffffffffffffffffff00000000000000000000000000000000000000001673ffffffffffffffffffffffffffffffffffffffff92909216919091179055565b60015473ffffffffffffffffffffffffffffffffffffffff1633146103a1576040517f08c379a000000000000000000000000000000000000000000000000000000000815260206004820152600f60248201527f4f574e455220464f5242494444454e000000000000000000000000000000000060448201526064016102d0565b6000805460405173ffffffffffffffffffffffffffffffffffffffff8085169362010000909304169133917f1c9f92ac4e71628bcbcaa06d364d40e010aef535184545a709e14cced8ac2d3c9190a46000805473ffffffffffffffffffffffffffffffffffffffff90921662010000027fffffffffffffffffffff0000000000000000000000000000000000000000ffff909216919091179055565b6040517fffffffffffffffffffffffffffffffffffffffff000000000000000000000000606085811b821660208401526034830185905230901b16605482015260009081906068016040516020818303038152906040528051906020012090506000816040516020016104dc91907f19457468657265756d205369676e6564204d6573736167653a0a3332000000008152601c810191909152603c0190565b60405160208183030381529060405280519060200120905060006105008286610aff565b600254815191925073ffffffffffffffffffffffffffffffffffffffff1690829060009061053057610530610ebc565b602002602001015173ffffffffffffffffffffffffffffffffffffffff161493505050509392505050565b6000805462010000900473ffffffffffffffffffffffffffffffffffffffff161561062557600060029054906101000a900473ffffffffffffffffffffffffffffffffffffffff1673ffffffffffffffffffffffffffffffffffffffff166391cca3db6040518163ffffffff1660e01b815260040160206040518083038186803b1580156105e857600080fd5b505afa1580156105fc573d6000803e3d6000fd5b505050506040513d601f19601f820116820180604052508101906106209190610eeb565b905090565b5060015473ffffffffffffffffffffffffffffffffffffffff1690565b60015473ffffffffffffffffffffffffffffffffffffffff1633146106c3576040517f08c379a000000000000000000000000000000000000000000000000000000000815260206004820152600f60248201527f4f574e455220464f5242494444454e000000000000000000000000000000000060448201526064016102d0565b60015473ffffffffffffffffffffffffffffffffffffffff82811691161415610748576040517f08c379a000000000000000000000000000000000000000000000000000000000815260206004820152601060248201527f4f776e65723a204e4f204348414e47450000000000000000000000000000000060448201526064016102d0565b60015460405173ffffffffffffffffffffffffffffffffffffffff80841692169033907f381c0d11398486654573703c51ee8210ce9461764d133f9f0e53b6a53970533190600090a4600180547fffffffffffffffffffffffff00000000000000000000000000000000000000001673ffffffffffffffffffffffffffffffffffffffff92909216919091179055565b600054610100900460ff166107f35760005460ff16156107f7565b303b155b610883576040517f08c379a000000000000000000000000000000000000000000000000000000000815260206004820152602e60248201527f496e697469616c697a61626c653a20636f6e747261637420697320616c72656160448201527f647920696e697469616c697a656400000000000000000000000000000000000060648201526084016102d0565b600054610100900460ff161580156108c257600080547fffffffffffffffffffffffffffffffffffffffffffffffffffffffffffff0000166101011790555b600180547fffffffffffffffffffffffff000000000000000000000000000000000000000016331790556108f582610216565b801561092457600080547fffffffffffffffffffffffffffffffffffffffffffffffffffffffffffff00ff1690555b5050565b61093333848461043d565b610999576040517f08c379a000000000000000000000000000000000000000000000000000000000815260206004820152601b60248201527f496e76616c696420706172616d65746572207369676e6174757265000000000060448201526064016102d0565b3360009081526003602052604090205462015180906109b89085610f37565b1015610a20576040517f08c379a000000000000000000000000000000000000000000000000000000000815260206004820152601a60248201527f496e76616c696420706172616d65746572206461746574696d6500000000000060448201526064016102d0565b3360008181526003602052604090819020429081905590517f58fb02bcfedd338314c70bcf748b4f71a01259cf8956f31b34cb09acf29809cb91610a65918590610f4e565b60405180910390a2505050565b6000805462010000900473ffffffffffffffffffffffffffffffffffffffff161561062557600060029054906101000a900473ffffffffffffffffffffffffffffffffffffffff1673ffffffffffffffffffffffffffffffffffffffff1663f851a4406040518163ffffffff1660e01b815260040160206040518083038186803b1580156105e857600080fd5b6060600080600080610b1086610c25565b90508067ffffffffffffffff811115610b2b57610b2b610d09565b604051908082528060200260200182016040528015610b54578160200160208202803683370190505b50945060005b81811015610c1a57610b6c8782610c55565b6040805160008152602081018083528d905260ff8516918101919091526060810183905260808101829052929750909550935060019060a0016020604051602081039080840390855afa158015610bc7573d6000803e3d6000fd5b50505060206040510351868281518110610be357610be3610ebc565b73ffffffffffffffffffffffffffffffffffffffff9092166020928302919091019091015280610c1281610fc9565b915050610b5a565b505050505092915050565b600060418251610c359190611031565b15610c41576000610c4f565b60418251610c4f9190611045565b92915050565b6000808080610c65856041611059565b8681016020810151604082015160419092015160ff169650945092509050601b841015610c9a57610c97601b85611096565b93505b8360ff16601b1480610caf57508360ff16601c145b610cb857600080fd5b509250925092565b73ffffffffffffffffffffffffffffffffffffffff81168114610ce257600080fd5b50565b600060208284031215610cf757600080fd5b8135610d0281610cc0565b9392505050565b7f4e487b7100000000000000000000000000000000000000000000000000000000600052604160045260246000fd5b600067ffffffffffffffff80841115610d5357610d53610d09565b604051601f85017fffffffffffffffffffffffffffffffffffffffffffffffffffffffffffffffe0908116603f01168101908282118183101715610d9957610d99610d09565b81604052809350858152868686011115610db257600080fd5b858560208301376000602087830101525050509392505050565b600082601f830112610ddd57600080fd5b610d0283833560208501610d38565b600080600060608486031215610e0157600080fd5b8335610e0c81610cc0565b925060208401359150604084013567ffffffffffffffff811115610e2f57600080fd5b610e3b86828701610dcc565b9150509250925092565b600080600060608486031215610e5a57600080fd5b83359250602084013567ffffffffffffffff80821115610e7957600080fd5b610e8587838801610dcc565b93506040860135915080821115610e9b57600080fd5b508401601f81018613610ead57600080fd5b610e3b86823560208401610d38565b7f4e487b7100000000000000000000000000000000000000000000000000000000600052603260045260246000fd5b600060208284031215610efd57600080fd5b8151610d0281610cc0565b7f4e487b7100000000000000000000000000000000000000000000000000000000600052601160045260246000fd5b600082821015610f4957610f49610f08565b500390565b82815260006020604081840152835180604085015260005b81811015610f8257858101830151858201606001528201610f66565b81811115610f94576000606083870101525b50601f017fffffffffffffffffffffffffffffffffffffffffffffffffffffffffffffffe01692909201606001949350505050565b60007fffffffffffffffffffffffffffffffffffffffffffffffffffffffffffffffff821415610ffb57610ffb610f08565b5060010190565b7f4e487b7100000000000000000000000000000000000000000000000000000000600052601260045260246000fd5b60008261104057611040611002565b500690565b60008261105457611054611002565b500490565b6000817fffffffffffffffffffffffffffffffffffffffffffffffffffffffffffffffff048311821515161561109157611091610f08565b500290565b600060ff821660ff84168060ff038211156110b3576110b3610f08565b01939250505056fea2646970667358221220718fccd5fcd78592ea474d1262f67638455b39e14cc7c00106263aa4c1e7a19f64736f6c63430008090033",
  "linkReferences": {},
  "deployedLinkReferences": {}
}