{
  "_format": "hh-sol-artifact-1",
  "contractName": "ActivityPunchIn",
  "sourceName": "contracts/punchIn/ActivityPunchIn.sol",
  "abi": [
    {
      "anonymous": false,
      "inputs": [
        {
          "indexed": false,
          "internalType": "uint256",
          "name": "activityId",
          "type": "uint256"
        },
        {
          "indexed": false,
          "internalType": "address",
          "name": "user",
          "type": "address"
        },
        {
          "indexed": false,
          "internalType": "uint256",
          "name": "amount",
          "type": "uint256"
        },
        {
          "indexed": false,
          "internalType": "address",
          "name": "token",
          "type": "address"
        }
      ],
      "name": "Claim",
      "type": "event"
    },
    {
      "anonymous": false,
      "inputs": [
        {
          "indexed": true,
          "internalType": "address",
          "name": "_user",
          "type": "address"
        },
        {
          "indexed": true,
          "internalType": "address",
          "name": "_old",
          "type": "address"
        },
        {
          "indexed": true,
          "internalType": "address",
          "name": "_new",
          "type": "address"
        }
      ],
      "name": "ConfigChanged",
      "type": "event"
    },
    {
      "anonymous": false,
      "inputs": [
        {
          "indexed": false,
          "internalType": "uint256",
          "name": "activityId",
          "type": "uint256"
        },
        {
          "indexed": false,
          "internalType": "uint256",
          "name": "startTime",
          "type": "uint256"
        },
        {
          "indexed": false,
          "internalType": "uint256",
          "name": "endTime",
          "type": "uint256"
        },
        {
          "indexed": false,
          "internalType": "uint256",
          "name": "limitAmount",
          "type": "uint256"
        }
      ],
      "name": "CreateActivity",
      "type": "event"
    },
    {
      "anonymous": false,
      "inputs": [
        {
          "indexed": true,
          "internalType": "address",
          "name": "_user",
          "type": "address"
        },
        {
          "indexed": true,
          "internalType": "address",
          "name": "_old",
          "type": "address"
        },
        {
          "indexed": true,
          "internalType": "address",
          "name": "_new",
          "type": "address"
        }
      ],
      "name": "OwnerChanged",
      "type": "event"
    },
    {
      "anonymous": false,
      "inputs": [
        {
          "indexed": false,
          "internalType": "uint256",
          "name": "activityId",
          "type": "uint256"
        },
        {
          "indexed": false,
          "internalType": "address",
          "name": "user",
          "type": "address"
        },
        {
          "indexed": false,
          "internalType": "uint256",
          "name": "timestamp",
          "type": "uint256"
        }
      ],
      "name": "PunchInEvent",
      "type": "event"
    },
    {
      "anonymous": false,
      "inputs": [
        {
          "indexed": false,
          "internalType": "uint256",
          "name": "activityId",
          "type": "uint256"
        },
        {
          "indexed": false,
          "internalType": "uint256",
          "name": "rewardAmount",
          "type": "uint256"
        },
        {
          "indexed": false,
          "internalType": "address",
          "name": "rewardToken",
          "type": "address"
        }
      ],
      "name": "UpdateActivity",
      "type": "event"
    },
    {
      "inputs": [
        {
          "internalType": "uint256",
          "name": "activityId",
          "type": "uint256"
        }
      ],
      "name": "activityInfo",
      "outputs": [
        {
          "components": [
            {
              "internalType": "uint256",
              "name": "startTimestamp",
              "type": "uint256"
            },
            {
              "internalType": "uint256",
              "name": "endTimestamp",
              "type": "uint256"
            },
            {
              "internalType": "uint256",
              "name": "limitAmount",
              "type": "uint256"
            },
            {
              "internalType": "uint256",
              "name": "rewardAmount",
              "type": "uint256"
            },
            {
              "internalType": "address",
              "name": "rewardToken",
              "type": "address"
            }
          ],
          "internalType": "struct ActivityPunchIn.Activity",
          "name": "activity",
          "type": "tuple"
        }
      ],
      "stateMutability": "view",
      "type": "function"
    },
    {
      "inputs": [],
      "name": "activityLength",
      "outputs": [
        {
          "internalType": "uint256",
          "name": "",
          "type": "uint256"
        }
      ],
      "stateMutability": "view",
      "type": "function"
    },
    {
      "inputs": [
        {
          "internalType": "uint256",
          "name": "activityId",
          "type": "uint256"
        }
      ],
      "name": "activitySuccessAmount",
      "outputs": [
        {
          "internalType": "uint256",
          "name": "",
          "type": "uint256"
        }
      ],
      "stateMutability": "view",
      "type": "function"
    },
    {
      "inputs": [],
      "name": "admin",
      "outputs": [
        {
          "internalType": "address",
          "name": "",
          "type": "address"
        }
      ],
      "stateMutability": "view",
      "type": "function"
    },
    {
      "inputs": [
        {
          "internalType": "address",
          "name": "_user",
          "type": "address"
        }
      ],
      "name": "changeOwner",
      "outputs": [],
      "stateMutability": "nonpayable",
      "type": "function"
    },
    {
      "inputs": [
        {
          "internalType": "uint256",
          "name": "activityId",
          "type": "uint256"
        },
        {
          "internalType": "address",
          "name": "to",
          "type": "address"
        }
      ],
      "name": "claim",
      "outputs": [],
      "stateMutability": "nonpayable",
      "type": "function"
    },
    {
      "inputs": [],
      "name": "config",
      "outputs": [
        {
          "internalType": "address",
          "name": "",
          "type": "address"
        }
      ],
      "stateMutability": "view",
      "type": "function"
    },
    {
      "inputs": [
        {
          "internalType": "uint256",
          "name": "startTimestamp",
          "type": "uint256"
        },
        {
          "internalType": "uint256",
          "name": "totalAmount",
          "type": "uint256"
        },
        {
          "internalType": "uint256",
          "name": "limitAmount",
          "type": "uint256"
        },
        {
          "internalType": "uint256",
          "name": "rewardAmount",
          "type": "uint256"
        },
        {
          "internalType": "address",
          "name": "rewardToken",
          "type": "address"
        }
      ],
      "name": "createActivity",
      "outputs": [],
      "stateMutability": "nonpayable",
      "type": "function"
    },
    {
      "inputs": [],
      "name": "dev",
      "outputs": [
        {
          "internalType": "address",
          "name": "",
          "type": "address"
        }
      ],
      "stateMutability": "view",
      "type": "function"
    },
    {
      "inputs": [
        {
          "internalType": "address",
          "name": "treasury",
          "type": "address"
        }
      ],
      "name": "initialize",
      "outputs": [],
      "stateMutability": "nonpayable",
      "type": "function"
    },
    {
      "inputs": [],
      "name": "owner",
      "outputs": [
        {
          "internalType": "address",
          "name": "",
          "type": "address"
        }
      ],
      "stateMutability": "view",
      "type": "function"
    },
    {
      "inputs": [
        {
          "internalType": "uint256",
          "name": "activityId",
          "type": "uint256"
        }
      ],
      "name": "punchIn",
      "outputs": [],
      "stateMutability": "nonpayable",
      "type": "function"
    },
    {
      "inputs": [
        {
          "internalType": "address",
          "name": "treasury",
          "type": "address"
        }
      ],
      "name": "setTreasury",
      "outputs": [],
      "stateMutability": "nonpayable",
      "type": "function"
    },
    {
      "inputs": [
        {
          "internalType": "address",
          "name": "_config",
          "type": "address"
        }
      ],
      "name": "setupConfig",
      "outputs": [],
      "stateMutability": "nonpayable",
      "type": "function"
    },
    {
      "inputs": [
        {
          "internalType": "uint256",
          "name": "activityId",
          "type": "uint256"
        },
        {
          "internalType": "uint256",
          "name": "rewardAmount",
          "type": "uint256"
        },
        {
          "internalType": "address",
          "name": "rewardToken",
          "type": "address"
        }
      ],
      "name": "updateActivity",
      "outputs": [],
      "stateMutability": "nonpayable",
      "type": "function"
    },
    {
      "inputs": [
        {
          "internalType": "uint256",
          "name": "activityId",
          "type": "uint256"
        },
        {
          "internalType": "address",
          "name": "user",
          "type": "address"
        }
      ],
      "name": "userInfo",
      "outputs": [
        {
          "internalType": "uint256",
          "name": "",
          "type": "uint256"
        },
        {
          "internalType": "uint256",
          "name": "",
          "type": "uint256"
        },
        {
          "internalType": "bool",
          "name": "",
          "type": "bool"
        }
      ],
      "stateMutability": "view",
      "type": "function"
    }
  ],
  "bytecode": "0x608060405234801561001057600080fd5b50611d3d806100206000396000f3fe608060405234801561001057600080fd5b50600436106101005760003560e01c8063a6f9dae111610097578063f0f4426011610066578063f0f44260146102a2578063f851a440146102b5578063fc39fb14146102bd578063fce15ea3146102d057600080fd5b8063a6f9dae114610261578063b77d4fe714610274578063c4d66de81461027c578063ddd5e1b21461028f57600080fd5b806387e301bf116100d357806387e301bf1461019e5780638da5cb5b1461020957806391cca3db1461022957806393f1a40b1461023157600080fd5b80633d50f2e0146101055780633e7512d91461011a5780637597a59c1461014057806379502c5514610153575b600080fd5b610118610113366004611b00565b6102e3565b005b61012d610128366004611b1d565b610405565b6040519081526020015b60405180910390f35b61011861014e366004611b1d565b610486565b6000546101799062010000900473ffffffffffffffffffffffffffffffffffffffff1681565b60405173ffffffffffffffffffffffffffffffffffffffff9091168152602001610137565b6101b16101ac366004611b1d565b6107e6565b6040516101379190600060a0820190508251825260208301516020830152604083015160408301526060830151606083015273ffffffffffffffffffffffffffffffffffffffff608084015116608083015292915050565b6001546101799073ffffffffffffffffffffffffffffffffffffffff1681565b610179610913565b61024461023f366004611b36565b6109fa565b604080519384526020840192909252151590820152606001610137565b61011861026f366004611b00565b610ace565b60035461012d565b61011861028a366004611b00565b610c64565b61011861029d366004611b36565b610dcf565b6101186102b0366004611b00565b6111a8565b610179611332565b6101186102cb366004611b66565b6113bf565b6101186102de366004611bb3565b6117a7565b60015473ffffffffffffffffffffffffffffffffffffffff163314610369576040517f08c379a000000000000000000000000000000000000000000000000000000000815260206004820152600f60248201527f4f574e455220464f5242494444454e000000000000000000000000000000000060448201526064015b60405180910390fd5b6000805460405173ffffffffffffffffffffffffffffffffffffffff8085169362010000909304169133917f1c9f92ac4e71628bcbcaa06d364d40e010aef535184545a709e14cced8ac2d3c9190a46000805473ffffffffffffffffffffffffffffffffffffffff90921662010000027fffffffffffffffffffff0000000000000000000000000000000000000000ffff909216919091179055565b6003546000908210610473576040517f08c379a000000000000000000000000000000000000000000000000000000000815260206004820152601c60248201527f496e76616c696420706172616d657465722061637469766974794964000000006044820152606401610360565b5060009081526005602052604090205490565b60035481106104f1576040517f08c379a000000000000000000000000000000000000000000000000000000000815260206004820152601c60248201527f496e76616c696420706172616d657465722061637469766974794964000000006044820152606401610360565b60006003828154811061050657610506611bec565b60009182526020918290206040805160a08101825260059093029091018054808452600182015494840194909452600281015491830191909152600381015460608301526004015473ffffffffffffffffffffffffffffffffffffffff1660808201529150421080159061057d5750428160200151115b6105e3576040517f08c379a000000000000000000000000000000000000000000000000000000000815260206004820152601760248201527f57726f6e672074696d6520666f722061637469766974790000000000000000006044820152606401610360565b600082815260046020908152604080832033845290915290205461067757604080516060810182524281526001602080830182815260008486018181528882526004845286822033835290935294909420925183559251908201559051600290910180547fffffffffffffffffffffffffffffffffffffffffffffffffffffffffffffff0016911515919091179055610751565b600082815260046020908152604080832033845290915290205462015180906106a1904290611aa4565b11610708576040517f08c379a000000000000000000000000000000000000000000000000000000000815260206004820152601860248201527f416c72656164792070756e6368656420696e20312064617900000000000000006044820152606401610360565b6000828152600460209081526040808320338452909152902042815560019081015461073391611ab7565b60008381526004602090815260408083203384529091529020600101555b600082815260046020908152604080832033845290915290819020600101549082015114156107a457600082815260056020526040902054610794906001611ab7565b6000838152600560205260409020555b60408051838152336020820152428183015290517f175a63606ad4a849690113a7da725905a3d72ae2fee3d9841911ff37d5da73a09181900360600190a15050565b61082e6040518060a0016040528060008152602001600081526020016000815260200160008152602001600073ffffffffffffffffffffffffffffffffffffffff1681525090565b6003548210610899576040517f08c379a000000000000000000000000000000000000000000000000000000000815260206004820152601c60248201527f496e76616c696420706172616d657465722061637469766974794964000000006044820152606401610360565b600382815481106108ac576108ac611bec565b60009182526020918290206040805160a0810182526005909302909101805483526001810154938301939093526002830154908201526003820154606082015260049091015473ffffffffffffffffffffffffffffffffffffffff16608082015292915050565b6000805462010000900473ffffffffffffffffffffffffffffffffffffffff16156109dd57600060029054906101000a900473ffffffffffffffffffffffffffffffffffffffff1673ffffffffffffffffffffffffffffffffffffffff166391cca3db6040518163ffffffff1660e01b815260040160206040518083038186803b1580156109a057600080fd5b505afa1580156109b4573d6000803e3d6000fd5b505050506040513d601f19601f820116820180604052508101906109d89190611c1b565b905090565b5060015473ffffffffffffffffffffffffffffffffffffffff1690565b60008060006003805490508510610a6d576040517f08c379a000000000000000000000000000000000000000000000000000000000815260206004820152601c60248201527f496e76616c696420706172616d657465722061637469766974794964000000006044820152606401610360565b505050600091825260046020908152604080842073ffffffffffffffffffffffffffffffffffffffff9390931684529181529181902081516060810183528154808252600183015494820185905260029092015460ff161515920182905292565b60015473ffffffffffffffffffffffffffffffffffffffff163314610b4f576040517f08c379a000000000000000000000000000000000000000000000000000000000815260206004820152600f60248201527f4f574e455220464f5242494444454e00000000000000000000000000000000006044820152606401610360565b60015473ffffffffffffffffffffffffffffffffffffffff82811691161415610bd4576040517f08c379a000000000000000000000000000000000000000000000000000000000815260206004820152601060248201527f4f776e65723a204e4f204348414e4745000000000000000000000000000000006044820152606401610360565b60015460405173ffffffffffffffffffffffffffffffffffffffff80841692169033907f381c0d11398486654573703c51ee8210ce9461764d133f9f0e53b6a53970533190600090a4600180547fffffffffffffffffffffffff00000000000000000000000000000000000000001673ffffffffffffffffffffffffffffffffffffffff92909216919091179055565b600054610100900460ff16610c7f5760005460ff1615610c83565b303b155b610d0f576040517f08c379a000000000000000000000000000000000000000000000000000000000815260206004820152602e60248201527f496e697469616c697a61626c653a20636f6e747261637420697320616c72656160448201527f647920696e697469616c697a65640000000000000000000000000000000000006064820152608401610360565b600054610100900460ff16158015610d4e57600080547fffffffffffffffffffffffffffffffffffffffffffffffffffffffffffff0000166101011790555b6002805473ffffffffffffffffffffffffffffffffffffffff84167fffffffffffffffffffffffff00000000000000000000000000000000000000009182161790915560018054909116331790558015610dcb57600080547fffffffffffffffffffffffffffffffffffffffffffffffffffffffffffff00ff1690555b5050565b6003548210610e3a576040517f08c379a000000000000000000000000000000000000000000000000000000000815260206004820152601c60248201527f496e76616c696420706172616d657465722061637469766974794964000000006044820152606401610360565b600060038381548110610e4f57610e4f611bec565b60009182526020918290206040805160a0810182526005909302909101805483526001810154938301849052600281015491830191909152600381015460608301526004015473ffffffffffffffffffffffffffffffffffffffff16608082015291504211610f1a576040517f08c379a000000000000000000000000000000000000000000000000000000000815260206004820152601760248201527f546865206163746976697479206973206f6e676f696e670000000000000000006044820152606401610360565b6000838152600460209081526040808320338452909152908190209082015160018201541015610fcc576040517f08c379a000000000000000000000000000000000000000000000000000000000815260206004820152603260248201527f54686520616d6f756e74206f6620757365722070756e6368206973206c65737360448201527f207468616e206c696d697420616d6f756e7400000000000000000000000000006064820152608401610360565b600281015460ff161561103b576040517f08c379a000000000000000000000000000000000000000000000000000000000815260206004820152600f60248201527f416c726561647920636c61696d656400000000000000000000000000000000006044820152606401610360565b6002810180547fffffffffffffffffffffffffffffffffffffffffffffffffffffffffffffff00166001179055600084815260056020526040812054606084015161108591611ac3565b60808401516002546040517f23b872dd00000000000000000000000000000000000000000000000000000000815273ffffffffffffffffffffffffffffffffffffffff918216600482015287821660248201526044810184905292935016906323b872dd90606401602060405180830381600087803b15801561110757600080fd5b505af115801561111b573d6000803e3d6000fd5b505050506040513d601f19601f8201168201806040525081019061113f9190611c38565b506080808401516040805188815233602082015290810184905273ffffffffffffffffffffffffffffffffffffffff90911660608201527fb3e541dfcecf12a9a49633b6f58c2ea1a09b9fa7ea6ac95f2e3ca38fcdfc49ab910160405180910390a15050505050565b6111b0610913565b73ffffffffffffffffffffffffffffffffffffffff163373ffffffffffffffffffffffffffffffffffffffff161480611200575060015473ffffffffffffffffffffffffffffffffffffffff1633145b611266576040517f08c379a000000000000000000000000000000000000000000000000000000000815260206004820152600d60248201527f64657620464f5242494444454e000000000000000000000000000000000000006044820152606401610360565b60025473ffffffffffffffffffffffffffffffffffffffff828116911614156112eb576040517f08c379a000000000000000000000000000000000000000000000000000000000815260206004820152601660248201527f4e6f206368616e67656420696e207472656173757279000000000000000000006044820152606401610360565b600280547fffffffffffffffffffffffff00000000000000000000000000000000000000001673ffffffffffffffffffffffffffffffffffffffff92909216919091179055565b6000805462010000900473ffffffffffffffffffffffffffffffffffffffff16156109dd57600060029054906101000a900473ffffffffffffffffffffffffffffffffffffffff1673ffffffffffffffffffffffffffffffffffffffff1663f851a4406040518163ffffffff1660e01b815260040160206040518083038186803b1580156109a057600080fd5b60015473ffffffffffffffffffffffffffffffffffffffff163314611440576040517f08c379a000000000000000000000000000000000000000000000000000000000815260206004820152600f60248201527f4f574e455220464f5242494444454e00000000000000000000000000000000006044820152606401610360565b4285116114a9576040517f08c379a000000000000000000000000000000000000000000000000000000000815260206004820181905260248201527f496e76616c696420706172616d6574657220737461727454696d657374616d706044820152606401610360565b60008411611513576040517f08c379a000000000000000000000000000000000000000000000000000000000815260206004820152601c60248201527f496e76616c696420706172616d6574657220746f7461416d6f756e74000000006044820152606401610360565b8383111561157d576040517f08c379a000000000000000000000000000000000000000000000000000000000815260206004820152601d60248201527f496e76616c696420706172616d65746572206c696d6974416d6f756e740000006044820152606401610360565b73ffffffffffffffffffffffffffffffffffffffff81166115fa576040517f08c379a000000000000000000000000000000000000000000000000000000000815260206004820152601d60248201527f496e76616c696420706172616d6574657220726577617264546f6b656e0000006044820152606401610360565b600061161361160c8662015180611acf565b8790611ab7565b600380546040805160a0810182528a815260208082018681528284018b815260608085018c815273ffffffffffffffffffffffffffffffffffffffff8c8116608080890191825260018b018c5560009b909b5296517fc2575a0e9e593c00f959f8c92f12db2869c3395a3b0502d05e2516446f71f85b60058b029081019190915594517fc2575a0e9e593c00f959f8c92f12db2869c3395a3b0502d05e2516446f71f85c86015592517fc2575a0e9e593c00f959f8c92f12db2869c3395a3b0502d05e2516446f71f85d850155517fc2575a0e9e593c00f959f8c92f12db2869c3395a3b0502d05e2516446f71f85e84015593517fc2575a0e9e593c00f959f8c92f12db2869c3395a3b0502d05e2516446f71f85f90920180547fffffffffffffffffffffffff0000000000000000000000000000000000000000169290911691909117905582518481529081018c90529182018590528101889052929350917f89da7560dc1320418671358291c7e5cce70b51df1c4b023344e6ac3d6d1ba10c910160405180910390a150505050505050565b60015473ffffffffffffffffffffffffffffffffffffffff163314611828576040517f08c379a000000000000000000000000000000000000000000000000000000000815260206004820152600f60248201527f4f574e455220464f5242494444454e00000000000000000000000000000000006044820152606401610360565b6003548310611893576040517f08c379a000000000000000000000000000000000000000000000000000000000815260206004820152601c60248201527f496e76616c696420706172616d657465722061637469766974794964000000006044820152606401610360565b6000600384815481106118a8576118a8611bec565b9060005260206000209060050201905042816001015411611925576040517f08c379a000000000000000000000000000000000000000000000000000000000815260206004820152601560248201527f4163746976697479206861732066696e697368656400000000000000000000006044820152606401610360565b73ffffffffffffffffffffffffffffffffffffffff82166119a2576040517f08c379a000000000000000000000000000000000000000000000000000000000815260206004820152601d60248201527f496e76616c696420706172616d6574657220726577617264546f6b656e0000006044820152606401610360565b8281600301541415611a10576040517f08c379a000000000000000000000000000000000000000000000000000000000815260206004820152601a60248201527f4e6f206368616e67656420696e20726577617264416d6f756e740000000000006044820152606401610360565b600381018390556004810180547fffffffffffffffffffffffff00000000000000000000000000000000000000001673ffffffffffffffffffffffffffffffffffffffff84169081179091556040805186815260208101869052908101919091527f64e281ea92547c0048aafd9b31282c7096483cf9321c230205938041c873043e9060600160405180910390a150505050565b6000611ab08284611c89565b9392505050565b6000611ab08284611ca0565b6000611ab08284611cb8565b6000611ab08284611cf3565b73ffffffffffffffffffffffffffffffffffffffff81168114611afd57600080fd5b50565b600060208284031215611b1257600080fd5b8135611ab081611adb565b600060208284031215611b2f57600080fd5b5035919050565b60008060408385031215611b4957600080fd5b823591506020830135611b5b81611adb565b809150509250929050565b600080600080600060a08688031215611b7e57600080fd5b853594506020860135935060408601359250606086013591506080860135611ba581611adb565b809150509295509295909350565b600080600060608486031215611bc857600080fd5b83359250602084013591506040840135611be181611adb565b809150509250925092565b7f4e487b7100000000000000000000000000000000000000000000000000000000600052603260045260246000fd5b600060208284031215611c2d57600080fd5b8151611ab081611adb565b600060208284031215611c4a57600080fd5b81518015158114611ab057600080fd5b7f4e487b7100000000000000000000000000000000000000000000000000000000600052601160045260246000fd5b600082821015611c9b57611c9b611c5a565b500390565b60008219821115611cb357611cb3611c5a565b500190565b600082611cee577f4e487b7100000000000000000000000000000000000000000000000000000000600052601260045260246000fd5b500490565b6000817fffffffffffffffffffffffffffffffffffffffffffffffffffffffffffffffff0483118215151615611d2b57611d2b611c5a565b50029056fea164736f6c6343000809000a",
  "linkReferences": {},
  "deployedLinkReferences": {}
}