{
  "_format": "hh-sol-artifact-1",
  "contractName": "BurgerDiamond",
  "sourceName": "contracts/BurgerDiamond.sol",
  "abi": [
    {
      "anonymous": false,
      "inputs": [
        {
          "indexed": true,
          "internalType": "address",
          "name": "owner",
          "type": "address"
        },
        {
          "indexed": true,
          "internalType": "address",
          "name": "spender",
          "type": "address"
        },
        {
          "indexed": false,
          "internalType": "uint256",
          "name": "value",
          "type": "uint256"
        }
      ],
      "name": "Approval",
      "type": "event"
    },
    {
      "anonymous": false,
      "inputs": [
        {
          "indexed": true,
          "internalType": "address",
          "name": "receiver",
          "type": "address"
        },
        {
          "indexed": false,
          "internalType": "uint256",
          "name": "amount",
          "type": "uint256"
        },
        {
          "indexed": false,
          "internalType": "uint256",
          "name": "orderId",
          "type": "uint256"
        },
        {
          "indexed": false,
          "internalType": "string",
          "name": "txId",
          "type": "string"
        }
      ],
      "name": "Claim",
      "type": "event"
    },
    {
      "anonymous": false,
      "inputs": [
        {
          "indexed": true,
          "internalType": "address",
          "name": "_user",
          "type": "address"
        },
        {
          "indexed": true,
          "internalType": "address",
          "name": "_old",
          "type": "address"
        },
        {
          "indexed": true,
          "internalType": "address",
          "name": "_new",
          "type": "address"
        }
      ],
      "name": "ConfigChanged",
      "type": "event"
    },
    {
      "anonymous": false,
      "inputs": [
        {
          "indexed": true,
          "internalType": "address",
          "name": "user",
          "type": "address"
        },
        {
          "indexed": false,
          "internalType": "uint256",
          "name": "amount",
          "type": "uint256"
        },
        {
          "indexed": false,
          "internalType": "uint256",
          "name": "contentId",
          "type": "uint256"
        },
        {
          "indexed": false,
          "internalType": "string",
          "name": "txId",
          "type": "string"
        }
      ],
      "name": "Exchange",
      "type": "event"
    },
    {
      "anonymous": false,
      "inputs": [
        {
          "indexed": true,
          "internalType": "address",
          "name": "_user",
          "type": "address"
        },
        {
          "indexed": true,
          "internalType": "address",
          "name": "_old",
          "type": "address"
        },
        {
          "indexed": true,
          "internalType": "address",
          "name": "_new",
          "type": "address"
        }
      ],
      "name": "OwnerChanged",
      "type": "event"
    },
    {
      "anonymous": false,
      "inputs": [
        {
          "indexed": true,
          "internalType": "address",
          "name": "from",
          "type": "address"
        },
        {
          "indexed": true,
          "internalType": "address",
          "name": "to",
          "type": "address"
        },
        {
          "indexed": false,
          "internalType": "uint256",
          "name": "value",
          "type": "uint256"
        }
      ],
      "name": "Transfer",
      "type": "event"
    },
    {
      "inputs": [],
      "name": "admin",
      "outputs": [
        {
          "internalType": "address",
          "name": "",
          "type": "address"
        }
      ],
      "stateMutability": "view",
      "type": "function"
    },
    {
      "inputs": [
        {
          "internalType": "address",
          "name": "owner",
          "type": "address"
        },
        {
          "internalType": "address",
          "name": "spender",
          "type": "address"
        }
      ],
      "name": "allowance",
      "outputs": [
        {
          "internalType": "uint256",
          "name": "",
          "type": "uint256"
        }
      ],
      "stateMutability": "view",
      "type": "function"
    },
    {
      "inputs": [
        {
          "internalType": "address",
          "name": "spender",
          "type": "address"
        },
        {
          "internalType": "uint256",
          "name": "amount",
          "type": "uint256"
        }
      ],
      "name": "approve",
      "outputs": [
        {
          "internalType": "bool",
          "name": "",
          "type": "bool"
        }
      ],
      "stateMutability": "nonpayable",
      "type": "function"
    },
    {
      "inputs": [
        {
          "internalType": "address",
          "name": "account",
          "type": "address"
        }
      ],
      "name": "balanceOf",
      "outputs": [
        {
          "internalType": "uint256",
          "name": "",
          "type": "uint256"
        }
      ],
      "stateMutability": "view",
      "type": "function"
    },
    {
      "inputs": [
        {
          "internalType": "address",
          "name": "_user",
          "type": "address"
        }
      ],
      "name": "changeOwner",
      "outputs": [],
      "stateMutability": "nonpayable",
      "type": "function"
    },
    {
      "inputs": [
        {
          "internalType": "uint256",
          "name": "amount",
          "type": "uint256"
        },
        {
          "internalType": "uint256",
          "name": "orderId",
          "type": "uint256"
        },
        {
          "internalType": "string",
          "name": "txId",
          "type": "string"
        },
        {
          "internalType": "bytes",
          "name": "signature",
          "type": "bytes"
        }
      ],
      "name": "claim",
      "outputs": [],
      "stateMutability": "nonpayable",
      "type": "function"
    },
    {
      "inputs": [],
      "name": "config",
      "outputs": [
        {
          "internalType": "address",
          "name": "",
          "type": "address"
        }
      ],
      "stateMutability": "view",
      "type": "function"
    },
    {
      "inputs": [],
      "name": "decimals",
      "outputs": [
        {
          "internalType": "uint8",
          "name": "",
          "type": "uint8"
        }
      ],
      "stateMutability": "pure",
      "type": "function"
    },
    {
      "inputs": [
        {
          "internalType": "address",
          "name": "spender",
          "type": "address"
        },
        {
          "internalType": "uint256",
          "name": "subtractedValue",
          "type": "uint256"
        }
      ],
      "name": "decreaseAllowance",
      "outputs": [
        {
          "internalType": "bool",
          "name": "",
          "type": "bool"
        }
      ],
      "stateMutability": "nonpayable",
      "type": "function"
    },
    {
      "inputs": [],
      "name": "dev",
      "outputs": [
        {
          "internalType": "address",
          "name": "",
          "type": "address"
        }
      ],
      "stateMutability": "view",
      "type": "function"
    },
    {
      "inputs": [
        {
          "internalType": "uint256",
          "name": "amount",
          "type": "uint256"
        },
        {
          "internalType": "uint256",
          "name": "contentId",
          "type": "uint256"
        },
        {
          "internalType": "string",
          "name": "txId",
          "type": "string"
        },
        {
          "internalType": "bytes",
          "name": "signature",
          "type": "bytes"
        }
      ],
      "name": "exchange",
      "outputs": [],
      "stateMutability": "nonpayable",
      "type": "function"
    },
    {
      "inputs": [
        {
          "internalType": "address",
          "name": "spender",
          "type": "address"
        },
        {
          "internalType": "uint256",
          "name": "addedValue",
          "type": "uint256"
        }
      ],
      "name": "increaseAllowance",
      "outputs": [
        {
          "internalType": "bool",
          "name": "",
          "type": "bool"
        }
      ],
      "stateMutability": "nonpayable",
      "type": "function"
    },
    {
      "inputs": [
        {
          "internalType": "address",
          "name": "signer_",
          "type": "address"
        }
      ],
      "name": "initialize",
      "outputs": [],
      "stateMutability": "nonpayable",
      "type": "function"
    },
    {
      "inputs": [
        {
          "internalType": "address",
          "name": "to",
          "type": "address"
        },
        {
          "internalType": "uint256",
          "name": "amount",
          "type": "uint256"
        }
      ],
      "name": "mint",
      "outputs": [],
      "stateMutability": "nonpayable",
      "type": "function"
    },
    {
      "inputs": [],
      "name": "name",
      "outputs": [
        {
          "internalType": "string",
          "name": "",
          "type": "string"
        }
      ],
      "stateMutability": "view",
      "type": "function"
    },
    {
      "inputs": [],
      "name": "owner",
      "outputs": [
        {
          "internalType": "address",
          "name": "",
          "type": "address"
        }
      ],
      "stateMutability": "view",
      "type": "function"
    },
    {
      "inputs": [
        {
          "internalType": "address",
          "name": "signer_",
          "type": "address"
        }
      ],
      "name": "setSigner",
      "outputs": [],
      "stateMutability": "nonpayable",
      "type": "function"
    },
    {
      "inputs": [
        {
          "internalType": "address",
          "name": "_config",
          "type": "address"
        }
      ],
      "name": "setupConfig",
      "outputs": [],
      "stateMutability": "nonpayable",
      "type": "function"
    },
    {
      "inputs": [],
      "name": "signer",
      "outputs": [
        {
          "internalType": "address",
          "name": "",
          "type": "address"
        }
      ],
      "stateMutability": "view",
      "type": "function"
    },
    {
      "inputs": [],
      "name": "symbol",
      "outputs": [
        {
          "internalType": "string",
          "name": "",
          "type": "string"
        }
      ],
      "stateMutability": "view",
      "type": "function"
    },
    {
      "inputs": [],
      "name": "totalSupply",
      "outputs": [
        {
          "internalType": "uint256",
          "name": "",
          "type": "uint256"
        }
      ],
      "stateMutability": "view",
      "type": "function"
    },
    {
      "inputs": [
        {
          "internalType": "address",
          "name": "to",
          "type": "address"
        },
        {
          "internalType": "uint256",
          "name": "amount",
          "type": "uint256"
        }
      ],
      "name": "transfer",
      "outputs": [
        {
          "internalType": "bool",
          "name": "",
          "type": "bool"
        }
      ],
      "stateMutability": "nonpayable",
      "type": "function"
    },
    {
      "inputs": [
        {
          "internalType": "address",
          "name": "from",
          "type": "address"
        },
        {
          "internalType": "address",
          "name": "to",
          "type": "address"
        },
        {
          "internalType": "uint256",
          "name": "amount",
          "type": "uint256"
        }
      ],
      "name": "transferFrom",
      "outputs": [
        {
          "internalType": "bool",
          "name": "",
          "type": "bool"
        }
      ],
      "stateMutability": "nonpayable",
      "type": "function"
    },
    {
      "inputs": [
        {
          "internalType": "address",
          "name": "user",
          "type": "address"
        },
        {
          "internalType": "uint256",
          "name": "amount",
          "type": "uint256"
        },
        {
          "internalType": "uint256",
          "name": "id",
          "type": "uint256"
        },
        {
          "internalType": "string",
          "name": "txId",
          "type": "string"
        },
        {
          "internalType": "enum BurgerDiamond.Operation",
          "name": "operation",
          "type": "uint8"
        },
        {
          "internalType": "bytes",
          "name": "signature",
          "type": "bytes"
        }
      ],
      "name": "verify",
      "outputs": [
        {
          "internalType": "bool",
          "name": "",
          "type": "bool"
        }
      ],
      "stateMutability": "view",
      "type": "function"
    }
  ],
  "bytecode": "0x608060405234801561001057600080fd5b506125fb806100206000396000f3fe608060405234801561001057600080fd5b50600436106101985760003560e01c806379502c55116100e3578063a9059cbb1161008c578063f4a49da111610066578063f4a49da1146103d0578063f5e0c0b4146103e3578063f851a440146103f657600080fd5b8063a9059cbb14610364578063c4d66de814610377578063dd62ed3e1461038a57600080fd5b806395d89b41116100bd57806395d89b4114610336578063a457c2d71461033e578063a6f9dae11461035157600080fd5b806379502c55146102ee5780638da5cb5b1461030e57806391cca3db1461032e57600080fd5b806339509351116101455780636c19e7831161011f5780636c19e783146102925780636fa36c8f146102a557806370a08231146102b857600080fd5b806339509351146102575780633d50f2e01461026a57806340c10f191461027f57600080fd5b8063238ac93311610176578063238ac933146101f057806323b872dd14610235578063313ce5671461024857600080fd5b806306fdde031461019d578063095ea7b3146101bb57806318160ddd146101de575b600080fd5b6101a56103fe565b6040516101b2919061208a565b60405180910390f35b6101ce6101c93660046120c2565b610490565b60405190151581526020016101b2565b6035545b6040519081526020016101b2565b6067546102109073ffffffffffffffffffffffffffffffffffffffff1681565b60405173ffffffffffffffffffffffffffffffffffffffff90911681526020016101b2565b6101ce6102433660046120ee565b6104a8565b604051600081526020016101b2565b6101ce6102653660046120c2565b6104ce565b61027d61027836600461212f565b61051a565b005b61027d61028d3660046120c2565b610630565b61027d6102a036600461212f565b6106fc565b61027d6102b3366004612226565b610886565b6101e26102c636600461212f565b73ffffffffffffffffffffffffffffffffffffffff1660009081526033602052604090205490565b6065546102109073ffffffffffffffffffffffffffffffffffffffff1681565b6066546102109073ffffffffffffffffffffffffffffffffffffffff1681565b610210610a0d565b6101a5610af0565b6101ce61034c3660046120c2565b610aff565b61027d61035f36600461212f565b610bdb565b6101ce6103723660046120c2565b610d71565b61027d61038536600461212f565b610d7f565b6101e261039836600461229d565b73ffffffffffffffffffffffffffffffffffffffff918216600090815260346020908152604080832093909416825291909152205490565b6101ce6103de3660046122d6565b610fda565b61027d6103f1366004612226565b6110b9565b610210611182565b60606036805461040d90612377565b80601f016020809104026020016040519081016040528092919081815260200182805461043990612377565b80156104865780601f1061045b57610100808354040283529160200191610486565b820191906000526020600020905b81548152906001019060200180831161046957829003601f168201915b5050505050905090565b60003361049e81858561120b565b5060019392505050565b6000336104b68582856113bf565b6104c1858585611496565b60019150505b9392505050565b33600081815260346020908152604080832073ffffffffffffffffffffffffffffffffffffffff8716845290915281205490919061049e90829086906105159087906123fa565b61120b565b60665473ffffffffffffffffffffffffffffffffffffffff1633146105a0576040517f08c379a000000000000000000000000000000000000000000000000000000000815260206004820152600f60248201527f4f574e455220464f5242494444454e000000000000000000000000000000000060448201526064015b60405180910390fd5b60655460405173ffffffffffffffffffffffffffffffffffffffff80841692169033907f1c9f92ac4e71628bcbcaa06d364d40e010aef535184545a709e14cced8ac2d3c90600090a4606580547fffffffffffffffffffffffff00000000000000000000000000000000000000001673ffffffffffffffffffffffffffffffffffffffff92909216919091179055565b610638610a0d565b73ffffffffffffffffffffffffffffffffffffffff163373ffffffffffffffffffffffffffffffffffffffff161480610688575060665473ffffffffffffffffffffffffffffffffffffffff1633145b6106ee576040517f08c379a000000000000000000000000000000000000000000000000000000000815260206004820152600d60248201527f64657620464f5242494444454e000000000000000000000000000000000000006044820152606401610597565b6106f88282611749565b5050565b610704610a0d565b73ffffffffffffffffffffffffffffffffffffffff163373ffffffffffffffffffffffffffffffffffffffff161480610754575060665473ffffffffffffffffffffffffffffffffffffffff1633145b6107ba576040517f08c379a000000000000000000000000000000000000000000000000000000000815260206004820152600d60248201527f64657620464f5242494444454e000000000000000000000000000000000000006044820152606401610597565b60675473ffffffffffffffffffffffffffffffffffffffff8281169116141561083f576040517f08c379a000000000000000000000000000000000000000000000000000000000815260206004820152601260248201527f5468657265206973206e6f206368616e676500000000000000000000000000006044820152606401610597565b606780547fffffffffffffffffffffffff00000000000000000000000000000000000000001673ffffffffffffffffffffffffffffffffffffffff92909216919091179055565b60008381526068602052604090205460ff16156108ff576040517f08c379a000000000000000000000000000000000000000000000000000000000815260206004820152601660248201527f4f72646572496420616c726561647920657869737473000000000000000000006044820152606401610597565b61090e33858585600086610fda565b610974576040517f08c379a000000000000000000000000000000000000000000000000000000000815260206004820152601160248201527f496e76616c6964207369676e61747572650000000000000000000000000000006044820152606401610597565b600083815260686020526040902080547fffffffffffffffffffffffffffffffffffffffffffffffffffffffffffffff001660011790556109b53385611749565b3373ffffffffffffffffffffffffffffffffffffffff167fa5b6ed3e660c88a73db59740c28756a7a767c6bce9c87eb53fe68b7c73fc4d2a8585856040516109ff93929190612412565b60405180910390a250505050565b60655460009073ffffffffffffffffffffffffffffffffffffffff1615610ad357606560009054906101000a900473ffffffffffffffffffffffffffffffffffffffff1673ffffffffffffffffffffffffffffffffffffffff166391cca3db6040518163ffffffff1660e01b815260040160206040518083038186803b158015610a9657600080fd5b505afa158015610aaa573d6000803e3d6000fd5b505050506040513d601f19601f82011682018060405250810190610ace919061243a565b905090565b5060665473ffffffffffffffffffffffffffffffffffffffff1690565b60606037805461040d90612377565b33600081815260346020908152604080832073ffffffffffffffffffffffffffffffffffffffff8716845290915281205490919083811015610bc3576040517f08c379a000000000000000000000000000000000000000000000000000000000815260206004820152602560248201527f45524332303a2064656372656173656420616c6c6f77616e63652062656c6f7760448201527f207a65726f0000000000000000000000000000000000000000000000000000006064820152608401610597565b610bd0828686840361120b565b506001949350505050565b60665473ffffffffffffffffffffffffffffffffffffffff163314610c5c576040517f08c379a000000000000000000000000000000000000000000000000000000000815260206004820152600f60248201527f4f574e455220464f5242494444454e00000000000000000000000000000000006044820152606401610597565b60665473ffffffffffffffffffffffffffffffffffffffff82811691161415610ce1576040517f08c379a000000000000000000000000000000000000000000000000000000000815260206004820152601060248201527f4f776e65723a204e4f204348414e4745000000000000000000000000000000006044820152606401610597565b60665460405173ffffffffffffffffffffffffffffffffffffffff80841692169033907f381c0d11398486654573703c51ee8210ce9461764d133f9f0e53b6a53970533190600090a4606680547fffffffffffffffffffffffff00000000000000000000000000000000000000001673ffffffffffffffffffffffffffffffffffffffff92909216919091179055565b60003361049e818585611496565b600054610100900460ff16610d9a5760005460ff1615610d9e565b303b155b610e2a576040517f08c379a000000000000000000000000000000000000000000000000000000000815260206004820152602e60248201527f496e697469616c697a61626c653a20636f6e747261637420697320616c72656160448201527f647920696e697469616c697a65640000000000000000000000000000000000006064820152608401610597565b600054610100900460ff16158015610e6957600080547fffffffffffffffffffffffffffffffffffffffffffffffffffffffffffff0000166101011790555b73ffffffffffffffffffffffffffffffffffffffff8216610ee6576040517f08c379a000000000000000000000000000000000000000000000000000000000815260206004820152601e60248201527f5369676e65722063616e206e6f74206265207a65726f206164647265737300006044820152606401610597565b610f5a6040518060400160405280600e81526020017f427572676572204469616d6f6e640000000000000000000000000000000000008152506040518060400160405280600281526020017f4244000000000000000000000000000000000000000000000000000000000000815250611869565b6067805473ffffffffffffffffffffffffffffffffffffffff84167fffffffffffffffffffffffff000000000000000000000000000000000000000091821617909155606680549091163317905580156106f857600080547fffffffffffffffffffffffffffffffffffffffffffffffffffffffffffff00ff1690555050565b600080878787878730604051602001610ff896959493929190612486565b60405160208183030381529060405280519060200120905060008160405160200161104f91907f19457468657265756d205369676e6564204d6573736167653a0a3332000000008152601c810191909152603c0190565b604080517fffffffffffffffffffffffffffffffffffffffffffffffffffffffffffffffe081840301815291905280516020909101206067549091506110ac9073ffffffffffffffffffffffffffffffffffffffff16828661190a565b9998505050505050505050565b6110c833858585600186610fda565b61112e576040517f08c379a000000000000000000000000000000000000000000000000000000000815260206004820152601160248201527f496e76616c6964207369676e61747572650000000000000000000000000000006044820152606401610597565b6111383385611af9565b3373ffffffffffffffffffffffffffffffffffffffff167f637f17b67c62e4943fd65c8bfe24502067326570cb49b6e849e5751dd260aebf8585856040516109ff93929190612412565b60655460009073ffffffffffffffffffffffffffffffffffffffff1615610ad357606560009054906101000a900473ffffffffffffffffffffffffffffffffffffffff1673ffffffffffffffffffffffffffffffffffffffff1663f851a4406040518163ffffffff1660e01b815260040160206040518083038186803b158015610a9657600080fd5b73ffffffffffffffffffffffffffffffffffffffff83166112ad576040517f08c379a0000000000000000000000000000000000000000000000000000000008152602060048201526024808201527f45524332303a20617070726f76652066726f6d20746865207a65726f2061646460448201527f72657373000000000000000000000000000000000000000000000000000000006064820152608401610597565b73ffffffffffffffffffffffffffffffffffffffff8216611350576040517f08c379a000000000000000000000000000000000000000000000000000000000815260206004820152602260248201527f45524332303a20617070726f766520746f20746865207a65726f20616464726560448201527f73730000000000000000000000000000000000000000000000000000000000006064820152608401610597565b73ffffffffffffffffffffffffffffffffffffffff83811660008181526034602090815260408083209487168084529482529182902085905590518481527f8c5be1e5ebec7d5bd14f71427d1e84f3dd0314c0f7b2291e5b200ac8c7c3b92591015b60405180910390a3505050565b73ffffffffffffffffffffffffffffffffffffffff8381166000908152603460209081526040808320938616835292905220547fffffffffffffffffffffffffffffffffffffffffffffffffffffffffffffffff81146114905781811015611483576040517f08c379a000000000000000000000000000000000000000000000000000000000815260206004820152601d60248201527f45524332303a20696e73756666696369656e7420616c6c6f77616e63650000006044820152606401610597565b611490848484840361120b565b50505050565b73ffffffffffffffffffffffffffffffffffffffff8316611539576040517f08c379a000000000000000000000000000000000000000000000000000000000815260206004820152602560248201527f45524332303a207472616e736665722066726f6d20746865207a65726f20616460448201527f64726573730000000000000000000000000000000000000000000000000000006064820152608401610597565b73ffffffffffffffffffffffffffffffffffffffff82166115dc576040517f08c379a000000000000000000000000000000000000000000000000000000000815260206004820152602360248201527f45524332303a207472616e7366657220746f20746865207a65726f206164647260448201527f65737300000000000000000000000000000000000000000000000000000000006064820152608401610597565b73ffffffffffffffffffffffffffffffffffffffff831660009081526033602052604090205481811015611692576040517f08c379a000000000000000000000000000000000000000000000000000000000815260206004820152602660248201527f45524332303a207472616e7366657220616d6f756e742065786365656473206260448201527f616c616e636500000000000000000000000000000000000000000000000000006064820152608401610597565b73ffffffffffffffffffffffffffffffffffffffff8085166000908152603360205260408082208585039055918516815290812080548492906116d69084906123fa565b925050819055508273ffffffffffffffffffffffffffffffffffffffff168473ffffffffffffffffffffffffffffffffffffffff167fddf252ad1be2c89b69c2b068fc378daa952ba7f163c4a11628f55a4df523b3ef8460405161173c91815260200190565b60405180910390a3611490565b73ffffffffffffffffffffffffffffffffffffffff82166117c6576040517f08c379a000000000000000000000000000000000000000000000000000000000815260206004820152601f60248201527f45524332303a206d696e7420746f20746865207a65726f2061646472657373006044820152606401610597565b80603560008282546117d891906123fa565b909155505073ffffffffffffffffffffffffffffffffffffffff8216600090815260336020526040812080548392906118129084906123fa565b909155505060405181815273ffffffffffffffffffffffffffffffffffffffff8316906000907fddf252ad1be2c89b69c2b068fc378daa952ba7f163c4a11628f55a4df523b3ef9060200160405180910390a35050565b600054610100900460ff16611900576040517f08c379a000000000000000000000000000000000000000000000000000000000815260206004820152602b60248201527f496e697469616c697a61626c653a20636f6e7472616374206973206e6f74206960448201527f6e697469616c697a696e670000000000000000000000000000000000000000006064820152608401610597565b6106f88282611ce3565b60008060006119198585611da1565b9092509050600081600481111561193257611932612457565b14801561196a57508573ffffffffffffffffffffffffffffffffffffffff168273ffffffffffffffffffffffffffffffffffffffff16145b1561197a576001925050506104c7565b6000808773ffffffffffffffffffffffffffffffffffffffff16631626ba7e60e01b88886040516024016119af92919061252f565b604080517fffffffffffffffffffffffffffffffffffffffffffffffffffffffffffffffe08184030181529181526020820180517bffffffffffffffffffffffffffffffffffffffffffffffffffffffff167fffffffff00000000000000000000000000000000000000000000000000000000909416939093179092529051611a389190612550565b600060405180830381855afa9150503d8060008114611a73576040519150601f19603f3d011682016040523d82523d6000602084013e611a78565b606091505b5091509150818015611a8b575080516020145b8015611aed575080517f1626ba7e0000000000000000000000000000000000000000000000000000000090611ac9908301602090810190840161256c565b7fffffffff0000000000000000000000000000000000000000000000000000000016145b98975050505050505050565b73ffffffffffffffffffffffffffffffffffffffff8216611b9c576040517f08c379a000000000000000000000000000000000000000000000000000000000815260206004820152602160248201527f45524332303a206275726e2066726f6d20746865207a65726f2061646472657360448201527f73000000000000000000000000000000000000000000000000000000000000006064820152608401610597565b73ffffffffffffffffffffffffffffffffffffffff821660009081526033602052604090205481811015611c52576040517f08c379a000000000000000000000000000000000000000000000000000000000815260206004820152602260248201527f45524332303a206275726e20616d6f756e7420657863656564732062616c616e60448201527f63650000000000000000000000000000000000000000000000000000000000006064820152608401610597565b73ffffffffffffffffffffffffffffffffffffffff83166000908152603360205260408120838303905560358054849290611c8e9084906125ae565b909155505060405182815260009073ffffffffffffffffffffffffffffffffffffffff8516907fddf252ad1be2c89b69c2b068fc378daa952ba7f163c4a11628f55a4df523b3ef906020016113b2565b505050565b600054610100900460ff16611d7a576040517f08c379a000000000000000000000000000000000000000000000000000000000815260206004820152602b60248201527f496e697469616c697a61626c653a20636f6e7472616374206973206e6f74206960448201527f6e697469616c697a696e670000000000000000000000000000000000000000006064820152608401610597565b8151611d8d906036906020850190611f7b565b508051611cde906037906020840190611f7b565b600080825160411415611dd85760208301516040840151606085015160001a611dcc87828585611e11565b94509450505050611e0a565b825160401415611e025760208301516040840151611df7868383611f29565b935093505050611e0a565b506000905060025b9250929050565b6000807f7fffffffffffffffffffffffffffffff5d576e7357a4501ddfe92f46681b20a0831115611e485750600090506003611f20565b8460ff16601b14158015611e6057508460ff16601c14155b15611e715750600090506004611f20565b6040805160008082526020820180845289905260ff881692820192909252606081018690526080810185905260019060a0016020604051602081039080840390855afa158015611ec5573d6000803e3d6000fd5b50506040517fffffffffffffffffffffffffffffffffffffffffffffffffffffffffffffffe0015191505073ffffffffffffffffffffffffffffffffffffffff8116611f1957600060019250925050611f20565b9150600090505b94509492505050565b6000807f7fffffffffffffffffffffffffffffffffffffffffffffffffffffffffffffff831681611f5f60ff86901c601b6123fa565b9050611f6d87828885611e11565b935093505050935093915050565b828054611f8790612377565b90600052602060002090601f016020900481019282611fa95760008555611fef565b82601f10611fc257805160ff1916838001178555611fef565b82800160010185558215611fef579182015b82811115611fef578251825591602001919060010190611fd4565b50611ffb929150611fff565b5090565b5b80821115611ffb5760008155600101612000565b60005b8381101561202f578181015183820152602001612017565b838111156114905750506000910152565b60008151808452612058816020860160208601612014565b601f017fffffffffffffffffffffffffffffffffffffffffffffffffffffffffffffffe0169290920160200192915050565b6020815260006104c76020830184612040565b73ffffffffffffffffffffffffffffffffffffffff811681146120bf57600080fd5b50565b600080604083850312156120d557600080fd5b82356120e08161209d565b946020939093013593505050565b60008060006060848603121561210357600080fd5b833561210e8161209d565b9250602084013561211e8161209d565b929592945050506040919091013590565b60006020828403121561214157600080fd5b81356104c78161209d565b7f4e487b7100000000000000000000000000000000000000000000000000000000600052604160045260246000fd5b600082601f83011261218c57600080fd5b813567ffffffffffffffff808211156121a7576121a761214c565b604051601f83017fffffffffffffffffffffffffffffffffffffffffffffffffffffffffffffffe0908116603f011681019082821181831017156121ed576121ed61214c565b8160405283815286602085880101111561220657600080fd5b836020870160208301376000602085830101528094505050505092915050565b6000806000806080858703121561223c57600080fd5b8435935060208501359250604085013567ffffffffffffffff8082111561226257600080fd5b61226e8883890161217b565b9350606087013591508082111561228457600080fd5b506122918782880161217b565b91505092959194509250565b600080604083850312156122b057600080fd5b82356122bb8161209d565b915060208301356122cb8161209d565b809150509250929050565b60008060008060008060c087890312156122ef57600080fd5b86356122fa8161209d565b95506020870135945060408701359350606087013567ffffffffffffffff8082111561232557600080fd5b6123318a838b0161217b565b9450608089013591506002821061234757600080fd5b90925060a0880135908082111561235d57600080fd5b5061236a89828a0161217b565b9150509295509295509295565b600181811c9082168061238b57607f821691505b602082108114156123c5577f4e487b7100000000000000000000000000000000000000000000000000000000600052602260045260246000fd5b50919050565b7f4e487b7100000000000000000000000000000000000000000000000000000000600052601160045260246000fd5b6000821982111561240d5761240d6123cb565b500190565b8381528260208201526060604082015260006124316060830184612040565b95945050505050565b60006020828403121561244c57600080fd5b81516104c78161209d565b7f4e487b7100000000000000000000000000000000000000000000000000000000600052602160045260246000fd5b60007fffffffffffffffffffffffffffffffffffffffff000000000000000000000000808960601b16835287601484015286603484015285516124d0816054860160208a01612014565b830160028610612509577f4e487b7100000000000000000000000000000000000000000000000000000000600052602160045260246000fd5b60f89590951b605486015260609390931b90921660558401525050606901949350505050565b8281526040602082015260006125486040830184612040565b949350505050565b60008251612562818460208701612014565b9190910192915050565b60006020828403121561257e57600080fd5b81517fffffffff00000000000000000000000000000000000000000000000000000000811681146104c757600080fd5b6000828210156125c0576125c06123cb565b50039056fea2646970667358221220fdf2a73c5c26ebc136df05d621cbc0018f7e99de356abf39fdf5c82eed9eb7ea64736f6c63430008090033",
  "linkReferences": {},
  "deployedLinkReferences": {}
}