{
  "_format": "hh-sol-artifact-1",
  "contractName": "BurgerDiamond",
  "sourceName": "contracts/BurgerDiamond.sol",
  "abi": [
    {
      "anonymous": false,
      "inputs": [
        {
          "indexed": true,
          "internalType": "address",
          "name": "owner",
          "type": "address"
        },
        {
          "indexed": true,
          "internalType": "address",
          "name": "spender",
          "type": "address"
        },
        {
          "indexed": false,
          "internalType": "uint256",
          "name": "value",
          "type": "uint256"
        }
      ],
      "name": "Approval",
      "type": "event"
    },
    {
      "anonymous": false,
      "inputs": [
        {
          "indexed": true,
          "internalType": "address",
          "name": "receiver",
          "type": "address"
        },
        {
          "indexed": false,
          "internalType": "uint256",
          "name": "amount",
          "type": "uint256"
        },
        {
          "indexed": false,
          "internalType": "uint64",
          "name": "orderId",
          "type": "uint64"
        },
        {
          "indexed": false,
          "internalType": "uint64",
          "name": "txId",
          "type": "uint64"
        }
      ],
      "name": "Claim",
      "type": "event"
    },
    {
      "anonymous": false,
      "inputs": [
        {
          "indexed": true,
          "internalType": "address",
          "name": "_user",
          "type": "address"
        },
        {
          "indexed": true,
          "internalType": "address",
          "name": "_old",
          "type": "address"
        },
        {
          "indexed": true,
          "internalType": "address",
          "name": "_new",
          "type": "address"
        }
      ],
      "name": "ConfigChanged",
      "type": "event"
    },
    {
      "anonymous": false,
      "inputs": [
        {
          "indexed": true,
          "internalType": "address",
          "name": "user",
          "type": "address"
        },
        {
          "indexed": false,
          "internalType": "uint256",
          "name": "amount",
          "type": "uint256"
        },
        {
          "indexed": false,
          "internalType": "uint64",
          "name": "orderId",
          "type": "uint64"
        },
        {
          "indexed": false,
          "internalType": "uint64",
          "name": "txId",
          "type": "uint64"
        }
      ],
      "name": "Exchange",
      "type": "event"
    },
    {
      "anonymous": false,
      "inputs": [
        {
          "indexed": true,
          "internalType": "address",
          "name": "_user",
          "type": "address"
        },
        {
          "indexed": true,
          "internalType": "address",
          "name": "_old",
          "type": "address"
        },
        {
          "indexed": true,
          "internalType": "address",
          "name": "_new",
          "type": "address"
        }
      ],
      "name": "OwnerChanged",
      "type": "event"
    },
    {
      "anonymous": false,
      "inputs": [
        {
          "indexed": true,
          "internalType": "address",
          "name": "from",
          "type": "address"
        },
        {
          "indexed": true,
          "internalType": "address",
          "name": "to",
          "type": "address"
        },
        {
          "indexed": false,
          "internalType": "uint256",
          "name": "value",
          "type": "uint256"
        }
      ],
      "name": "Transfer",
      "type": "event"
    },
    {
      "inputs": [],
      "name": "admin",
      "outputs": [
        {
          "internalType": "address",
          "name": "",
          "type": "address"
        }
      ],
      "stateMutability": "view",
      "type": "function"
    },
    {
      "inputs": [
        {
          "internalType": "address",
          "name": "owner",
          "type": "address"
        },
        {
          "internalType": "address",
          "name": "spender",
          "type": "address"
        }
      ],
      "name": "allowance",
      "outputs": [
        {
          "internalType": "uint256",
          "name": "",
          "type": "uint256"
        }
      ],
      "stateMutability": "view",
      "type": "function"
    },
    {
      "inputs": [
        {
          "internalType": "address",
          "name": "spender",
          "type": "address"
        },
        {
          "internalType": "uint256",
          "name": "amount",
          "type": "uint256"
        }
      ],
      "name": "approve",
      "outputs": [
        {
          "internalType": "bool",
          "name": "",
          "type": "bool"
        }
      ],
      "stateMutability": "nonpayable",
      "type": "function"
    },
    {
      "inputs": [
        {
          "internalType": "address",
          "name": "account",
          "type": "address"
        }
      ],
      "name": "balanceOf",
      "outputs": [
        {
          "internalType": "uint256",
          "name": "",
          "type": "uint256"
        }
      ],
      "stateMutability": "view",
      "type": "function"
    },
    {
      "inputs": [
        {
          "internalType": "address",
          "name": "_user",
          "type": "address"
        }
      ],
      "name": "changeOwner",
      "outputs": [],
      "stateMutability": "nonpayable",
      "type": "function"
    },
    {
      "inputs": [
        {
          "internalType": "uint256",
          "name": "amount",
          "type": "uint256"
        },
        {
          "internalType": "uint64",
          "name": "orderId",
          "type": "uint64"
        },
        {
          "internalType": "uint64",
          "name": "txId",
          "type": "uint64"
        },
        {
          "internalType": "bytes",
          "name": "signature",
          "type": "bytes"
        }
      ],
      "name": "claim",
      "outputs": [],
      "stateMutability": "nonpayable",
      "type": "function"
    },
    {
      "inputs": [],
      "name": "config",
      "outputs": [
        {
          "internalType": "address",
          "name": "",
          "type": "address"
        }
      ],
      "stateMutability": "view",
      "type": "function"
    },
    {
      "inputs": [],
      "name": "decimals",
      "outputs": [
        {
          "internalType": "uint8",
          "name": "",
          "type": "uint8"
        }
      ],
      "stateMutability": "pure",
      "type": "function"
    },
    {
      "inputs": [
        {
          "internalType": "address",
          "name": "spender",
          "type": "address"
        },
        {
          "internalType": "uint256",
          "name": "subtractedValue",
          "type": "uint256"
        }
      ],
      "name": "decreaseAllowance",
      "outputs": [
        {
          "internalType": "bool",
          "name": "",
          "type": "bool"
        }
      ],
      "stateMutability": "nonpayable",
      "type": "function"
    },
    {
      "inputs": [],
      "name": "dev",
      "outputs": [
        {
          "internalType": "address",
          "name": "",
          "type": "address"
        }
      ],
      "stateMutability": "view",
      "type": "function"
    },
    {
      "inputs": [
        {
          "internalType": "uint256",
          "name": "amount",
          "type": "uint256"
        },
        {
          "internalType": "uint64",
          "name": "orderId",
          "type": "uint64"
        },
        {
          "internalType": "uint64",
          "name": "txId",
          "type": "uint64"
        },
        {
          "internalType": "bytes",
          "name": "signature",
          "type": "bytes"
        }
      ],
      "name": "exchange",
      "outputs": [],
      "stateMutability": "nonpayable",
      "type": "function"
    },
    {
      "inputs": [
        {
          "internalType": "address",
          "name": "spender",
          "type": "address"
        },
        {
          "internalType": "uint256",
          "name": "addedValue",
          "type": "uint256"
        }
      ],
      "name": "increaseAllowance",
      "outputs": [
        {
          "internalType": "bool",
          "name": "",
          "type": "bool"
        }
      ],
      "stateMutability": "nonpayable",
      "type": "function"
    },
    {
      "inputs": [
        {
          "internalType": "address",
          "name": "signer_",
          "type": "address"
        }
      ],
      "name": "initialize",
      "outputs": [],
      "stateMutability": "nonpayable",
      "type": "function"
    },
    {
      "inputs": [
        {
          "internalType": "address",
          "name": "to",
          "type": "address"
        },
        {
          "internalType": "uint256",
          "name": "amount",
          "type": "uint256"
        }
      ],
      "name": "mint",
      "outputs": [],
      "stateMutability": "nonpayable",
      "type": "function"
    },
    {
      "inputs": [],
      "name": "name",
      "outputs": [
        {
          "internalType": "string",
          "name": "",
          "type": "string"
        }
      ],
      "stateMutability": "view",
      "type": "function"
    },
    {
      "inputs": [],
      "name": "owner",
      "outputs": [
        {
          "internalType": "address",
          "name": "",
          "type": "address"
        }
      ],
      "stateMutability": "view",
      "type": "function"
    },
    {
      "inputs": [
        {
          "internalType": "address",
          "name": "signer_",
          "type": "address"
        }
      ],
      "name": "setSigner",
      "outputs": [],
      "stateMutability": "nonpayable",
      "type": "function"
    },
    {
      "inputs": [
        {
          "internalType": "address",
          "name": "_config",
          "type": "address"
        }
      ],
      "name": "setupConfig",
      "outputs": [],
      "stateMutability": "nonpayable",
      "type": "function"
    },
    {
      "inputs": [],
      "name": "signer",
      "outputs": [
        {
          "internalType": "address",
          "name": "",
          "type": "address"
        }
      ],
      "stateMutability": "view",
      "type": "function"
    },
    {
      "inputs": [],
      "name": "symbol",
      "outputs": [
        {
          "internalType": "string",
          "name": "",
          "type": "string"
        }
      ],
      "stateMutability": "view",
      "type": "function"
    },
    {
      "inputs": [],
      "name": "totalSupply",
      "outputs": [
        {
          "internalType": "uint256",
          "name": "",
          "type": "uint256"
        }
      ],
      "stateMutability": "view",
      "type": "function"
    },
    {
      "inputs": [
        {
          "internalType": "address",
          "name": "to",
          "type": "address"
        },
        {
          "internalType": "uint256",
          "name": "amount",
          "type": "uint256"
        }
      ],
      "name": "transfer",
      "outputs": [
        {
          "internalType": "bool",
          "name": "",
          "type": "bool"
        }
      ],
      "stateMutability": "nonpayable",
      "type": "function"
    },
    {
      "inputs": [
        {
          "internalType": "address",
          "name": "from",
          "type": "address"
        },
        {
          "internalType": "address",
          "name": "to",
          "type": "address"
        },
        {
          "internalType": "uint256",
          "name": "amount",
          "type": "uint256"
        }
      ],
      "name": "transferFrom",
      "outputs": [
        {
          "internalType": "bool",
          "name": "",
          "type": "bool"
        }
      ],
      "stateMutability": "nonpayable",
      "type": "function"
    },
    {
      "inputs": [
        {
          "internalType": "address",
          "name": "user",
          "type": "address"
        },
        {
          "internalType": "uint256",
          "name": "amount",
          "type": "uint256"
        },
        {
          "internalType": "uint256",
          "name": "orderId",
          "type": "uint256"
        },
        {
          "internalType": "enum BurgerDiamond.Operation",
          "name": "operation",
          "type": "uint8"
        },
        {
          "internalType": "bytes",
          "name": "signature",
          "type": "bytes"
        }
      ],
      "name": "verify",
      "outputs": [
        {
          "internalType": "bool",
          "name": "",
          "type": "bool"
        }
      ],
      "stateMutability": "view",
      "type": "function"
    }
  ],
  "bytecode": "0x608060405234801561001057600080fd5b5061268e806100206000396000f3fe608060405234801561001057600080fd5b50600436106101975760003560e01c806370a08231116100e3578063a457c2d71161008c578063c4d66de811610066578063c4d66de81461039c578063dd62ed3e146103af578063f851a440146103f557600080fd5b8063a457c2d714610363578063a6f9dae114610376578063a9059cbb1461038957600080fd5b80638da5cb5b116100bd5780638da5cb5b1461033357806391cca3db1461035357806395d89b411461035b57600080fd5b806370a08231146102ca57806379502c55146103005780637bcad51e1461032057600080fd5b8063313ce567116101455780633d50f2e01161011f5780633d50f2e01461029157806340c10f19146102a45780636c19e783146102b757600080fd5b8063313ce5671461025c57806337f5c8fe1461026b578063395093511461027e57600080fd5b806318160ddd1161017657806318160ddd146101f2578063238ac9331461020457806323b872dd1461024957600080fd5b806273f1701461019c57806306fdde03146101b1578063095ea7b3146101cf575b600080fd5b6101af6101aa3660046121f6565b6103fd565b005b6101b96105a7565b6040516101c691906122d4565b60405180910390f35b6101e26101dd36600461230c565b610639565b60405190151581526020016101c6565b6035545b6040519081526020016101c6565b6067546102249073ffffffffffffffffffffffffffffffffffffffff1681565b60405173ffffffffffffffffffffffffffffffffffffffff90911681526020016101c6565b6101e2610257366004612338565b610651565b604051600081526020016101c6565b6101af6102793660046121f6565b610677565b6101e261028c36600461230c565b610812565b6101af61029f366004612379565b61085e565b6101af6102b236600461230c565b61096f565b6101af6102c5366004612379565b610a3b565b6101f66102d8366004612379565b73ffffffffffffffffffffffffffffffffffffffff1660009081526033602052604090205490565b6065546102249073ffffffffffffffffffffffffffffffffffffffff1681565b6101e261032e366004612396565b610bc5565b6066546102249073ffffffffffffffffffffffffffffffffffffffff1681565b610224610ca1565b6101b9610d84565b6101e261037136600461230c565b610d93565b6101af610384366004612379565b610e6f565b6101e261039736600461230c565b611005565b6101af6103aa366004612379565b611013565b6101f66103bd366004612410565b73ffffffffffffffffffffffffffffffffffffffff918216600090815260346020908152604080832093909416825291909152205490565b61022461126e565b67ffffffffffffffff831660009081526068602052604090205460ff1615610486576040517f08c379a000000000000000000000000000000000000000000000000000000000815260206004820152601660248201527f4f72646572496420616c7265616479206578697374730000000000000000000060448201526064015b60405180910390fd5b61049e33858567ffffffffffffffff16600085610bc5565b610504576040517f08c379a000000000000000000000000000000000000000000000000000000000815260206004820152601160248201527f496e76616c6964207369676e6174757265000000000000000000000000000000604482015260640161047d565b67ffffffffffffffff8316600090815260686020526040902080547fffffffffffffffffffffffffffffffffffffffffffffffffffffffffffffff0016600117905561055033856112f7565b6040805185815267ffffffffffffffff808616602083015284169181019190915233907f76b268c3e045ccfb05784f52edc03662fa2a6b2dfa05f719605169abc48fa3f7906060015b60405180910390a250505050565b6060603680546105b690612449565b80601f01602080910402602001604051908101604052809291908181526020018280546105e290612449565b801561062f5780601f106106045761010080835404028352916020019161062f565b820191906000526020600020905b81548152906001019060200180831161061257829003601f168201915b5050505050905090565b600033610647818585611417565b5060019392505050565b60003361065f8582856115cb565b61066a8585856116a2565b60019150505b9392505050565b67ffffffffffffffff831660009081526068602052604090205460ff16156106fb576040517f08c379a000000000000000000000000000000000000000000000000000000000815260206004820152601660248201527f4f72646572496420616c72656164792065786973747300000000000000000000604482015260640161047d565b61071333858567ffffffffffffffff16600185610bc5565b610779576040517f08c379a000000000000000000000000000000000000000000000000000000000815260206004820152601160248201527f496e76616c6964207369676e6174757265000000000000000000000000000000604482015260640161047d565b67ffffffffffffffff8316600090815260686020526040902080547fffffffffffffffffffffffffffffffffffffffffffffffffffffffffffffff001660011790556107c53385611955565b6040805185815267ffffffffffffffff808616602083015284169181019190915233907f5830c00cc9e5193e6c5d894c39aa466088ba3a7ff29b362ce5e0c5aea4d466d990606001610599565b33600081815260346020908152604080832073ffffffffffffffffffffffffffffffffffffffff8716845290915281205490919061064790829086906108599087906124cc565b611417565b60665473ffffffffffffffffffffffffffffffffffffffff1633146108df576040517f08c379a000000000000000000000000000000000000000000000000000000000815260206004820152600f60248201527f4f574e455220464f5242494444454e0000000000000000000000000000000000604482015260640161047d565b60655460405173ffffffffffffffffffffffffffffffffffffffff80841692169033907f1c9f92ac4e71628bcbcaa06d364d40e010aef535184545a709e14cced8ac2d3c90600090a4606580547fffffffffffffffffffffffff00000000000000000000000000000000000000001673ffffffffffffffffffffffffffffffffffffffff92909216919091179055565b610977610ca1565b73ffffffffffffffffffffffffffffffffffffffff163373ffffffffffffffffffffffffffffffffffffffff1614806109c7575060665473ffffffffffffffffffffffffffffffffffffffff1633145b610a2d576040517f08c379a000000000000000000000000000000000000000000000000000000000815260206004820152600d60248201527f64657620464f5242494444454e00000000000000000000000000000000000000604482015260640161047d565b610a3782826112f7565b5050565b610a43610ca1565b73ffffffffffffffffffffffffffffffffffffffff163373ffffffffffffffffffffffffffffffffffffffff161480610a93575060665473ffffffffffffffffffffffffffffffffffffffff1633145b610af9576040517f08c379a000000000000000000000000000000000000000000000000000000000815260206004820152600d60248201527f64657620464f5242494444454e00000000000000000000000000000000000000604482015260640161047d565b60675473ffffffffffffffffffffffffffffffffffffffff82811691161415610b7e576040517f08c379a000000000000000000000000000000000000000000000000000000000815260206004820152601260248201527f5468657265206973206e6f206368616e67650000000000000000000000000000604482015260640161047d565b606780547fffffffffffffffffffffffff00000000000000000000000000000000000000001673ffffffffffffffffffffffffffffffffffffffff92909216919091179055565b6000808686868630604051602001610be1959493929190612513565b604051602081830303815290604052805190602001209050600081604051602001610c3891907f19457468657265756d205369676e6564204d6573736167653a0a3332000000008152601c810191909152603c0190565b604080517fffffffffffffffffffffffffffffffffffffffffffffffffffffffffffffffe08184030181529190528051602090910120606754909150610c959073ffffffffffffffffffffffffffffffffffffffff168286611b3f565b98975050505050505050565b60655460009073ffffffffffffffffffffffffffffffffffffffff1615610d6757606560009054906101000a900473ffffffffffffffffffffffffffffffffffffffff1673ffffffffffffffffffffffffffffffffffffffff166391cca3db6040518163ffffffff1660e01b815260040160206040518083038186803b158015610d2a57600080fd5b505afa158015610d3e573d6000803e3d6000fd5b505050506040513d601f19601f82011682018060405250810190610d6291906125a5565b905090565b5060665473ffffffffffffffffffffffffffffffffffffffff1690565b6060603780546105b690612449565b33600081815260346020908152604080832073ffffffffffffffffffffffffffffffffffffffff8716845290915281205490919083811015610e57576040517f08c379a000000000000000000000000000000000000000000000000000000000815260206004820152602560248201527f45524332303a2064656372656173656420616c6c6f77616e63652062656c6f7760448201527f207a65726f000000000000000000000000000000000000000000000000000000606482015260840161047d565b610e648286868403611417565b506001949350505050565b60665473ffffffffffffffffffffffffffffffffffffffff163314610ef0576040517f08c379a000000000000000000000000000000000000000000000000000000000815260206004820152600f60248201527f4f574e455220464f5242494444454e0000000000000000000000000000000000604482015260640161047d565b60665473ffffffffffffffffffffffffffffffffffffffff82811691161415610f75576040517f08c379a000000000000000000000000000000000000000000000000000000000815260206004820152601060248201527f4f776e65723a204e4f204348414e474500000000000000000000000000000000604482015260640161047d565b60665460405173ffffffffffffffffffffffffffffffffffffffff80841692169033907f381c0d11398486654573703c51ee8210ce9461764d133f9f0e53b6a53970533190600090a4606680547fffffffffffffffffffffffff00000000000000000000000000000000000000001673ffffffffffffffffffffffffffffffffffffffff92909216919091179055565b6000336106478185856116a2565b600054610100900460ff1661102e5760005460ff1615611032565b303b155b6110be576040517f08c379a000000000000000000000000000000000000000000000000000000000815260206004820152602e60248201527f496e697469616c697a61626c653a20636f6e747261637420697320616c72656160448201527f647920696e697469616c697a6564000000000000000000000000000000000000606482015260840161047d565b600054610100900460ff161580156110fd57600080547fffffffffffffffffffffffffffffffffffffffffffffffffffffffffffff0000166101011790555b73ffffffffffffffffffffffffffffffffffffffff821661117a576040517f08c379a000000000000000000000000000000000000000000000000000000000815260206004820152601e60248201527f5369676e65722063616e206e6f74206265207a65726f20616464726573730000604482015260640161047d565b6111ee6040518060400160405280600e81526020017f427572676572204469616d6f6e640000000000000000000000000000000000008152506040518060400160405280600281526020017f4244000000000000000000000000000000000000000000000000000000000000815250611d2d565b6067805473ffffffffffffffffffffffffffffffffffffffff84167fffffffffffffffffffffffff00000000000000000000000000000000000000009182161790915560668054909116331790558015610a3757600080547fffffffffffffffffffffffffffffffffffffffffffffffffffffffffffff00ff1690555050565b60655460009073ffffffffffffffffffffffffffffffffffffffff1615610d6757606560009054906101000a900473ffffffffffffffffffffffffffffffffffffffff1673ffffffffffffffffffffffffffffffffffffffff1663f851a4406040518163ffffffff1660e01b815260040160206040518083038186803b158015610d2a57600080fd5b73ffffffffffffffffffffffffffffffffffffffff8216611374576040517f08c379a000000000000000000000000000000000000000000000000000000000815260206004820152601f60248201527f45524332303a206d696e7420746f20746865207a65726f206164647265737300604482015260640161047d565b806035600082825461138691906124cc565b909155505073ffffffffffffffffffffffffffffffffffffffff8216600090815260336020526040812080548392906113c09084906124cc565b909155505060405181815273ffffffffffffffffffffffffffffffffffffffff8316906000907fddf252ad1be2c89b69c2b068fc378daa952ba7f163c4a11628f55a4df523b3ef9060200160405180910390a35050565b73ffffffffffffffffffffffffffffffffffffffff83166114b9576040517f08c379a0000000000000000000000000000000000000000000000000000000008152602060048201526024808201527f45524332303a20617070726f76652066726f6d20746865207a65726f2061646460448201527f7265737300000000000000000000000000000000000000000000000000000000606482015260840161047d565b73ffffffffffffffffffffffffffffffffffffffff821661155c576040517f08c379a000000000000000000000000000000000000000000000000000000000815260206004820152602260248201527f45524332303a20617070726f766520746f20746865207a65726f20616464726560448201527f7373000000000000000000000000000000000000000000000000000000000000606482015260840161047d565b73ffffffffffffffffffffffffffffffffffffffff83811660008181526034602090815260408083209487168084529482529182902085905590518481527f8c5be1e5ebec7d5bd14f71427d1e84f3dd0314c0f7b2291e5b200ac8c7c3b92591015b60405180910390a3505050565b73ffffffffffffffffffffffffffffffffffffffff8381166000908152603460209081526040808320938616835292905220547fffffffffffffffffffffffffffffffffffffffffffffffffffffffffffffffff811461169c578181101561168f576040517f08c379a000000000000000000000000000000000000000000000000000000000815260206004820152601d60248201527f45524332303a20696e73756666696369656e7420616c6c6f77616e6365000000604482015260640161047d565b61169c8484848403611417565b50505050565b73ffffffffffffffffffffffffffffffffffffffff8316611745576040517f08c379a000000000000000000000000000000000000000000000000000000000815260206004820152602560248201527f45524332303a207472616e736665722066726f6d20746865207a65726f20616460448201527f6472657373000000000000000000000000000000000000000000000000000000606482015260840161047d565b73ffffffffffffffffffffffffffffffffffffffff82166117e8576040517f08c379a000000000000000000000000000000000000000000000000000000000815260206004820152602360248201527f45524332303a207472616e7366657220746f20746865207a65726f206164647260448201527f6573730000000000000000000000000000000000000000000000000000000000606482015260840161047d565b73ffffffffffffffffffffffffffffffffffffffff83166000908152603360205260409020548181101561189e576040517f08c379a000000000000000000000000000000000000000000000000000000000815260206004820152602660248201527f45524332303a207472616e7366657220616d6f756e742065786365656473206260448201527f616c616e63650000000000000000000000000000000000000000000000000000606482015260840161047d565b73ffffffffffffffffffffffffffffffffffffffff8085166000908152603360205260408082208585039055918516815290812080548492906118e29084906124cc565b925050819055508273ffffffffffffffffffffffffffffffffffffffff168473ffffffffffffffffffffffffffffffffffffffff167fddf252ad1be2c89b69c2b068fc378daa952ba7f163c4a11628f55a4df523b3ef8460405161194891815260200190565b60405180910390a361169c565b73ffffffffffffffffffffffffffffffffffffffff82166119f8576040517f08c379a000000000000000000000000000000000000000000000000000000000815260206004820152602160248201527f45524332303a206275726e2066726f6d20746865207a65726f2061646472657360448201527f7300000000000000000000000000000000000000000000000000000000000000606482015260840161047d565b73ffffffffffffffffffffffffffffffffffffffff821660009081526033602052604090205481811015611aae576040517f08c379a000000000000000000000000000000000000000000000000000000000815260206004820152602260248201527f45524332303a206275726e20616d6f756e7420657863656564732062616c616e60448201527f6365000000000000000000000000000000000000000000000000000000000000606482015260840161047d565b73ffffffffffffffffffffffffffffffffffffffff83166000908152603360205260408120838303905560358054849290611aea9084906125c2565b909155505060405182815260009073ffffffffffffffffffffffffffffffffffffffff8516907fddf252ad1be2c89b69c2b068fc378daa952ba7f163c4a11628f55a4df523b3ef906020016115be565b505050565b6000806000611b4e8585611dce565b90925090506000816004811115611b6757611b676124e4565b148015611b9f57508573ffffffffffffffffffffffffffffffffffffffff168273ffffffffffffffffffffffffffffffffffffffff16145b15611baf57600192505050610670565b6000808773ffffffffffffffffffffffffffffffffffffffff16631626ba7e60e01b8888604051602401611be49291906125d9565b604080517fffffffffffffffffffffffffffffffffffffffffffffffffffffffffffffffe08184030181529181526020820180517bffffffffffffffffffffffffffffffffffffffffffffffffffffffff167fffffffff00000000000000000000000000000000000000000000000000000000909416939093179092529051611c6d91906125fa565b600060405180830381855afa9150503d8060008114611ca8576040519150601f19603f3d011682016040523d82523d6000602084013e611cad565b606091505b5091509150818015611cc0575080516020145b8015610c95575080517f1626ba7e0000000000000000000000000000000000000000000000000000000090611cfe9083016020908101908401612616565b7fffffffff00000000000000000000000000000000000000000000000000000000161498975050505050505050565b600054610100900460ff16611dc4576040517f08c379a000000000000000000000000000000000000000000000000000000000815260206004820152602b60248201527f496e697469616c697a61626c653a20636f6e7472616374206973206e6f74206960448201527f6e697469616c697a696e67000000000000000000000000000000000000000000606482015260840161047d565b610a378282611e3e565b600080825160411415611e055760208301516040840151606085015160001a611df987828585611efc565b94509450505050611e37565b825160401415611e2f5760208301516040840151611e24868383612014565b935093505050611e37565b506000905060025b9250929050565b600054610100900460ff16611ed5576040517f08c379a000000000000000000000000000000000000000000000000000000000815260206004820152602b60248201527f496e697469616c697a61626c653a20636f6e7472616374206973206e6f74206960448201527f6e697469616c697a696e67000000000000000000000000000000000000000000606482015260840161047d565b8151611ee8906036906020850190612066565b508051611b3a906037906020840190612066565b6000807f7fffffffffffffffffffffffffffffff5d576e7357a4501ddfe92f46681b20a0831115611f33575060009050600361200b565b8460ff16601b14158015611f4b57508460ff16601c14155b15611f5c575060009050600461200b565b6040805160008082526020820180845289905260ff881692820192909252606081018690526080810185905260019060a0016020604051602081039080840390855afa158015611fb0573d6000803e3d6000fd5b50506040517fffffffffffffffffffffffffffffffffffffffffffffffffffffffffffffffe0015191505073ffffffffffffffffffffffffffffffffffffffff81166120045760006001925092505061200b565b9150600090505b94509492505050565b6000807f7fffffffffffffffffffffffffffffffffffffffffffffffffffffffffffffff83168161204a60ff86901c601b6124cc565b905061205887828885611efc565b935093505050935093915050565b82805461207290612449565b90600052602060002090601f01602090048101928261209457600085556120da565b82601f106120ad57805160ff19168380011785556120da565b828001600101855582156120da579182015b828111156120da5782518255916020019190600101906120bf565b506120e69291506120ea565b5090565b5b808211156120e657600081556001016120eb565b803567ffffffffffffffff8116811461211757600080fd5b919050565b7f4e487b7100000000000000000000000000000000000000000000000000000000600052604160045260246000fd5b600082601f83011261215c57600080fd5b813567ffffffffffffffff808211156121775761217761211c565b604051601f83017fffffffffffffffffffffffffffffffffffffffffffffffffffffffffffffffe0908116603f011681019082821181831017156121bd576121bd61211c565b816040528381528660208588010111156121d657600080fd5b836020870160208301376000602085830101528094505050505092915050565b6000806000806080858703121561220c57600080fd5b8435935061221c602086016120ff565b925061222a604086016120ff565b9150606085013567ffffffffffffffff81111561224657600080fd5b6122528782880161214b565b91505092959194509250565b60005b83811015612279578181015183820152602001612261565b8381111561169c5750506000910152565b600081518084526122a281602086016020860161225e565b601f017fffffffffffffffffffffffffffffffffffffffffffffffffffffffffffffffe0169290920160200192915050565b602081526000610670602083018461228a565b73ffffffffffffffffffffffffffffffffffffffff8116811461230957600080fd5b50565b6000806040838503121561231f57600080fd5b823561232a816122e7565b946020939093013593505050565b60008060006060848603121561234d57600080fd5b8335612358816122e7565b92506020840135612368816122e7565b929592945050506040919091013590565b60006020828403121561238b57600080fd5b8135610670816122e7565b600080600080600060a086880312156123ae57600080fd5b85356123b9816122e7565b945060208601359350604086013592506060860135600281106123db57600080fd5b9150608086013567ffffffffffffffff8111156123f757600080fd5b6124038882890161214b565b9150509295509295909350565b6000806040838503121561242357600080fd5b823561242e816122e7565b9150602083013561243e816122e7565b809150509250929050565b600181811c9082168061245d57607f821691505b60208210811415612497577f4e487b7100000000000000000000000000000000000000000000000000000000600052602260045260246000fd5b50919050565b7f4e487b7100000000000000000000000000000000000000000000000000000000600052601160045260246000fd5b600082198211156124df576124df61249d565b500190565b7f4e487b7100000000000000000000000000000000000000000000000000000000600052602160045260246000fd5b60007fffffffffffffffffffffffffffffffffffffffff000000000000000000000000808860601b16835286601484015285603484015260028510612581577f4e487b7100000000000000000000000000000000000000000000000000000000600052602160045260246000fd5b60f89490941b60548301525060609190911b90911660558201526069019392505050565b6000602082840312156125b757600080fd5b8151610670816122e7565b6000828210156125d4576125d461249d565b500390565b8281526040602082015260006125f2604083018461228a565b949350505050565b6000825161260c81846020870161225e565b9190910192915050565b60006020828403121561262857600080fd5b81517fffffffff000000000000000000000000000000000000000000000000000000008116811461067057600080fdfea26469706673582212200d415bec4aa7f0721dcebc3f500130203845fa2f3b5fbeca61f7794729426ad364736f6c63430008090033",
  "linkReferences": {},
  "deployedLinkReferences": {}
}