{
  "_format": "hh-sol-artifact-1",
  "contractName": "ChristmasPunchIn",
  "sourceName": "contracts/punchIn/ChristmasPunchIn.sol",
  "abi": [
    {
      "anonymous": false,
      "inputs": [
        {
          "indexed": true,
          "internalType": "address",
          "name": "user",
          "type": "address"
        },
        {
          "indexed": false,
          "internalType": "uint256",
          "name": "timestamp",
          "type": "uint256"
        },
        {
          "indexed": false,
          "internalType": "string",
          "name": "txId",
          "type": "string"
        }
      ],
      "name": "Claim",
      "type": "event"
    },
    {
      "anonymous": false,
      "inputs": [
        {
          "indexed": true,
          "internalType": "address",
          "name": "_user",
          "type": "address"
        },
        {
          "indexed": true,
          "internalType": "address",
          "name": "_old",
          "type": "address"
        },
        {
          "indexed": true,
          "internalType": "address",
          "name": "_new",
          "type": "address"
        }
      ],
      "name": "ConfigChanged",
      "type": "event"
    },
    {
      "anonymous": false,
      "inputs": [
        {
          "indexed": true,
          "internalType": "address",
          "name": "_user",
          "type": "address"
        },
        {
          "indexed": true,
          "internalType": "address",
          "name": "_old",
          "type": "address"
        },
        {
          "indexed": true,
          "internalType": "address",
          "name": "_new",
          "type": "address"
        }
      ],
      "name": "OwnerChanged",
      "type": "event"
    },
    {
      "anonymous": false,
      "inputs": [
        {
          "indexed": true,
          "internalType": "address",
          "name": "user",
          "type": "address"
        },
        {
          "indexed": false,
          "internalType": "uint256",
          "name": "timestamp",
          "type": "uint256"
        }
      ],
      "name": "PunchInEvent",
      "type": "event"
    },
    {
      "inputs": [],
      "name": "_rewardAmount",
      "outputs": [
        {
          "internalType": "uint256",
          "name": "",
          "type": "uint256"
        }
      ],
      "stateMutability": "view",
      "type": "function"
    },
    {
      "inputs": [],
      "name": "_rewardToken",
      "outputs": [
        {
          "internalType": "address",
          "name": "",
          "type": "address"
        }
      ],
      "stateMutability": "view",
      "type": "function"
    },
    {
      "inputs": [],
      "name": "admin",
      "outputs": [
        {
          "internalType": "address",
          "name": "",
          "type": "address"
        }
      ],
      "stateMutability": "view",
      "type": "function"
    },
    {
      "inputs": [
        {
          "internalType": "address",
          "name": "_user",
          "type": "address"
        }
      ],
      "name": "changeOwner",
      "outputs": [],
      "stateMutability": "nonpayable",
      "type": "function"
    },
    {
      "inputs": [
        {
          "internalType": "address",
          "name": "to",
          "type": "address"
        },
        {
          "internalType": "bytes",
          "name": "signature",
          "type": "bytes"
        },
        {
          "internalType": "string",
          "name": "txId",
          "type": "string"
        }
      ],
      "name": "claim",
      "outputs": [],
      "stateMutability": "nonpayable",
      "type": "function"
    },
    {
      "inputs": [],
      "name": "config",
      "outputs": [
        {
          "internalType": "address",
          "name": "",
          "type": "address"
        }
      ],
      "stateMutability": "view",
      "type": "function"
    },
    {
      "inputs": [],
      "name": "dev",
      "outputs": [
        {
          "internalType": "address",
          "name": "",
          "type": "address"
        }
      ],
      "stateMutability": "view",
      "type": "function"
    },
    {
      "inputs": [
        {
          "internalType": "address",
          "name": "treasury",
          "type": "address"
        },
        {
          "internalType": "address",
          "name": "signer",
          "type": "address"
        },
        {
          "internalType": "address",
          "name": "rewardToken",
          "type": "address"
        }
      ],
      "name": "initialize",
      "outputs": [],
      "stateMutability": "nonpayable",
      "type": "function"
    },
    {
      "inputs": [
        {
          "internalType": "address",
          "name": "user",
          "type": "address"
        }
      ],
      "name": "isUserClaimed",
      "outputs": [
        {
          "internalType": "bool",
          "name": "",
          "type": "bool"
        }
      ],
      "stateMutability": "view",
      "type": "function"
    },
    {
      "inputs": [],
      "name": "owner",
      "outputs": [
        {
          "internalType": "address",
          "name": "",
          "type": "address"
        }
      ],
      "stateMutability": "view",
      "type": "function"
    },
    {
      "inputs": [],
      "name": "punchIn",
      "outputs": [],
      "stateMutability": "nonpayable",
      "type": "function"
    },
    {
      "inputs": [
        {
          "internalType": "address",
          "name": "treasury",
          "type": "address"
        },
        {
          "internalType": "address",
          "name": "signer",
          "type": "address"
        },
        {
          "internalType": "address",
          "name": "rewardToken",
          "type": "address"
        }
      ],
      "name": "setConf",
      "outputs": [],
      "stateMutability": "nonpayable",
      "type": "function"
    },
    {
      "inputs": [
        {
          "internalType": "uint256",
          "name": "rewardAmount",
          "type": "uint256"
        }
      ],
      "name": "setRewardAmount",
      "outputs": [],
      "stateMutability": "nonpayable",
      "type": "function"
    },
    {
      "inputs": [
        {
          "internalType": "address",
          "name": "_config",
          "type": "address"
        }
      ],
      "name": "setupConfig",
      "outputs": [],
      "stateMutability": "nonpayable",
      "type": "function"
    },
    {
      "inputs": [
        {
          "internalType": "address",
          "name": "user",
          "type": "address"
        }
      ],
      "name": "userTimestamps",
      "outputs": [
        {
          "internalType": "uint64[]",
          "name": "",
          "type": "uint64[]"
        }
      ],
      "stateMutability": "view",
      "type": "function"
    },
    {
      "inputs": [
        {
          "internalType": "address",
          "name": "user",
          "type": "address"
        },
        {
          "internalType": "bytes",
          "name": "signature",
          "type": "bytes"
        }
      ],
      "name": "verify",
      "outputs": [
        {
          "internalType": "bool",
          "name": "",
          "type": "bool"
        }
      ],
      "stateMutability": "view",
      "type": "function"
    }
  ],
  "bytecode": "0x608060405234801561001057600080fd5b50611524806100206000396000f3fe608060405234801561001057600080fd5b50600436106101005760003560e01c80639f948c6811610097578063c0c53b8b11610066578063c0c53b8b14610266578063cd07d91114610279578063d306390a14610299578063f851a440146102ac57600080fd5b80639f948c681461020d578063a6f9dae114610220578063a8a65a7814610233578063b59c6e0e1461024657600080fd5b80636ca7f2fe116100d35780636ca7f2fe1461019257806379502c551461019a5780638da5cb5b146101e557806391cca3db1461020557600080fd5b80633d50f2e014610105578063467f82161461011a57806349db98fa146101685780634a41d1ac1461017f575b600080fd5b61011861011336600461107a565b6102b4565b005b61015361012836600461107a565b73ffffffffffffffffffffffffffffffffffffffff1660009081526007602052604090205460ff1690565b60405190151581526020015b60405180910390f35b61017160055481565b60405190815260200161015f565b61015361018d366004611181565b6103d6565b6101186104ec565b6000546101c09062010000900473ffffffffffffffffffffffffffffffffffffffff1681565b60405173ffffffffffffffffffffffffffffffffffffffff909116815260200161015f565b6001546101c09073ffffffffffffffffffffffffffffffffffffffff1681565b6101c061056c565b61011861021b3660046111d1565b610653565b61011861022e36600461107a565b61088b565b61011861024136600461125b565b610a21565b6004546101c09073ffffffffffffffffffffffffffffffffffffffff1681565b610118610274366004611274565b610ae4565b61028c61028736600461107a565b610c38565b60405161015f91906112bf565b6101186102a7366004611274565b610ce5565b6101c0610e07565b60015473ffffffffffffffffffffffffffffffffffffffff16331461033a576040517f08c379a000000000000000000000000000000000000000000000000000000000815260206004820152600f60248201527f4f574e455220464f5242494444454e000000000000000000000000000000000060448201526064015b60405180910390fd5b6000805460405173ffffffffffffffffffffffffffffffffffffffff8085169362010000909304169133917f1c9f92ac4e71628bcbcaa06d364d40e010aef535184545a709e14cced8ac2d3c9190a46000805473ffffffffffffffffffffffffffffffffffffffff90921662010000027fffffffffffffffffffff0000000000000000000000000000000000000000ffff909216919091179055565b6040517fffffffffffffffffffffffffffffffffffffffff000000000000000000000000606084811b8216602084015230901b166034820152600090819060480160405160208183030381529060405280519060200120905060008160405160200161046e91907f19457468657265756d205369676e6564204d6573736167653a0a3332000000008152601c810191909152603c0190565b60405160208183030381529060405280519060200120905060006104928286610e94565b600354815191925073ffffffffffffffffffffffffffffffffffffffff169082906000906104c2576104c261130d565b602002602001015173ffffffffffffffffffffffffffffffffffffffff1614935050505092915050565b3360008181526006602090815260408083208054600181018255908452928290206004840401805460039094166008026101000a67ffffffffffffffff818102199095164295861691909102179055519182527fa85b332b638e2639ffcbb5b94aaf0a9cb16d9578afab1606a2734b99fb407ccf910160405180910390a2565b6000805462010000900473ffffffffffffffffffffffffffffffffffffffff161561063657600060029054906101000a900473ffffffffffffffffffffffffffffffffffffffff1673ffffffffffffffffffffffffffffffffffffffff166391cca3db6040518163ffffffff1660e01b815260040160206040518083038186803b1580156105f957600080fd5b505afa15801561060d573d6000803e3d6000fd5b505050506040513d601f19601f82011682018060405250810190610631919061133c565b905090565b5060015473ffffffffffffffffffffffffffffffffffffffff1690565b61065d33836103d6565b6106c3576040517f08c379a000000000000000000000000000000000000000000000000000000000815260206004820152601b60248201527f496e76616c696420706172616d65746572207369676e617475726500000000006044820152606401610331565b3360009081526007602052604090205460ff161561073d576040517f08c379a000000000000000000000000000000000000000000000000000000000815260206004820152601860248201527f557365722068617320616c726561647920636c61696d656400000000000000006044820152606401610331565b336000908152600760205260409081902080547fffffffffffffffffffffffffffffffffffffffffffffffffffffffffffffff001660011790556004805460025460055493517f23b872dd00000000000000000000000000000000000000000000000000000000815273ffffffffffffffffffffffffffffffffffffffff918216938101939093528681166024840152604483019390935291909116906323b872dd90606401602060405180830381600087803b1580156107fd57600080fd5b505af1158015610811573d6000803e3d6000fd5b505050506040513d601f19601f820116820180604052508101906108359190611359565b503373ffffffffffffffffffffffffffffffffffffffff167f58fb02bcfedd338314c70bcf748b4f71a01259cf8956f31b34cb09acf29809cb428360405161087e92919061137b565b60405180910390a2505050565b60015473ffffffffffffffffffffffffffffffffffffffff16331461090c576040517f08c379a000000000000000000000000000000000000000000000000000000000815260206004820152600f60248201527f4f574e455220464f5242494444454e00000000000000000000000000000000006044820152606401610331565b60015473ffffffffffffffffffffffffffffffffffffffff82811691161415610991576040517f08c379a000000000000000000000000000000000000000000000000000000000815260206004820152601060248201527f4f776e65723a204e4f204348414e4745000000000000000000000000000000006044820152606401610331565b60015460405173ffffffffffffffffffffffffffffffffffffffff80841692169033907f381c0d11398486654573703c51ee8210ce9461764d133f9f0e53b6a53970533190600090a4600180547fffffffffffffffffffffffff00000000000000000000000000000000000000001673ffffffffffffffffffffffffffffffffffffffff92909216919091179055565b610a2961056c565b73ffffffffffffffffffffffffffffffffffffffff163373ffffffffffffffffffffffffffffffffffffffff161480610a79575060015473ffffffffffffffffffffffffffffffffffffffff1633145b610adf576040517f08c379a000000000000000000000000000000000000000000000000000000000815260206004820152600d60248201527f64657620464f5242494444454e000000000000000000000000000000000000006044820152606401610331565b600555565b600054610100900460ff16610aff5760005460ff1615610b03565b303b155b610b8f576040517f08c379a000000000000000000000000000000000000000000000000000000000815260206004820152602e60248201527f496e697469616c697a61626c653a20636f6e747261637420697320616c72656160448201527f647920696e697469616c697a65640000000000000000000000000000000000006064820152608401610331565b600054610100900460ff16158015610bce57600080547fffffffffffffffffffffffffffffffffffffffffffffffffffffffffffff0000166101011790555b600180547fffffffffffffffffffffffff00000000000000000000000000000000000000001633179055610c03848484610ce5565b8015610c3257600080547fffffffffffffffffffffffffffffffffffffffffffffffffffffffffffff00ff1690555b50505050565b73ffffffffffffffffffffffffffffffffffffffff8116600090815260066020908152604091829020805483518184028101840190945280845260609392830182828015610cd957602002820191906000526020600020906000905b82829054906101000a900467ffffffffffffffff1667ffffffffffffffff1681526020019060080190602082600701049283019260010382029150808411610c945790505b50505050509050919050565b610ced61056c565b73ffffffffffffffffffffffffffffffffffffffff163373ffffffffffffffffffffffffffffffffffffffff161480610d3d575060015473ffffffffffffffffffffffffffffffffffffffff1633145b610da3576040517f08c379a000000000000000000000000000000000000000000000000000000000815260206004820152600d60248201527f64657620464f5242494444454e000000000000000000000000000000000000006044820152606401610331565b6002805473ffffffffffffffffffffffffffffffffffffffff9485167fffffffffffffffffffffffff000000000000000000000000000000000000000091821617909155600380549385169382169390931790925560048054919093169116179055565b6000805462010000900473ffffffffffffffffffffffffffffffffffffffff161561063657600060029054906101000a900473ffffffffffffffffffffffffffffffffffffffff1673ffffffffffffffffffffffffffffffffffffffff1663f851a4406040518163ffffffff1660e01b815260040160206040518083038186803b1580156105f957600080fd5b6060600080600080610ea586610fba565b90508067ffffffffffffffff811115610ec057610ec061109e565b604051908082528060200260200182016040528015610ee9578160200160208202803683370190505b50945060005b81811015610faf57610f018782610fea565b6040805160008152602081018083528d905260ff8516918101919091526060810183905260808101829052929750909550935060019060a0016020604051602081039080840390855afa158015610f5c573d6000803e3d6000fd5b50505060206040510351868281518110610f7857610f7861130d565b73ffffffffffffffffffffffffffffffffffffffff9092166020928302919091019091015280610fa781611425565b915050610eef565b505050505092915050565b600060418251610fca919061148d565b15610fd6576000610fe4565b60418251610fe491906114a1565b92915050565b6000808080610ffa8560416114b5565b8681016020810151604082015160419092015160ff169650945092509050601b84101561102f5761102c601b856114f2565b93505b8360ff16601b148061104457508360ff16601c145b61104d57600080fd5b509250925092565b73ffffffffffffffffffffffffffffffffffffffff8116811461107757600080fd5b50565b60006020828403121561108c57600080fd5b813561109781611055565b9392505050565b7f4e487b7100000000000000000000000000000000000000000000000000000000600052604160045260246000fd5b600067ffffffffffffffff808411156110e8576110e861109e565b604051601f85017fffffffffffffffffffffffffffffffffffffffffffffffffffffffffffffffe0908116603f0116810190828211818310171561112e5761112e61109e565b8160405280935085815286868601111561114757600080fd5b858560208301376000602087830101525050509392505050565b600082601f83011261117257600080fd5b611097838335602085016110cd565b6000806040838503121561119457600080fd5b823561119f81611055565b9150602083013567ffffffffffffffff8111156111bb57600080fd5b6111c785828601611161565b9150509250929050565b6000806000606084860312156111e657600080fd5b83356111f181611055565b9250602084013567ffffffffffffffff8082111561120e57600080fd5b61121a87838801611161565b9350604086013591508082111561123057600080fd5b508401601f8101861361124257600080fd5b611251868235602084016110cd565b9150509250925092565b60006020828403121561126d57600080fd5b5035919050565b60008060006060848603121561128957600080fd5b833561129481611055565b925060208401356112a481611055565b915060408401356112b481611055565b809150509250925092565b6020808252825182820181905260009190848201906040850190845b8181101561130157835167ffffffffffffffff16835292840192918401916001016112db565b50909695505050505050565b7f4e487b7100000000000000000000000000000000000000000000000000000000600052603260045260246000fd5b60006020828403121561134e57600080fd5b815161109781611055565b60006020828403121561136b57600080fd5b8151801515811461109757600080fd5b82815260006020604081840152835180604085015260005b818110156113af57858101830151858201606001528201611393565b818111156113c1576000606083870101525b50601f017fffffffffffffffffffffffffffffffffffffffffffffffffffffffffffffffe01692909201606001949350505050565b7f4e487b7100000000000000000000000000000000000000000000000000000000600052601160045260246000fd5b60007fffffffffffffffffffffffffffffffffffffffffffffffffffffffffffffffff821415611457576114576113f6565b5060010190565b7f4e487b7100000000000000000000000000000000000000000000000000000000600052601260045260246000fd5b60008261149c5761149c61145e565b500690565b6000826114b0576114b061145e565b500490565b6000817fffffffffffffffffffffffffffffffffffffffffffffffffffffffffffffffff04831182151516156114ed576114ed6113f6565b500290565b600060ff821660ff84168060ff0382111561150f5761150f6113f6565b01939250505056fea164736f6c6343000809000a",
  "linkReferences": {},
  "deployedLinkReferences": {}
}