{
  "_format": "hh-sol-artifact-1",
  "contractName": "ChristmasPunchIn",
  "sourceName": "contracts/punchIn/ChristmasPunchIn.sol",
  "abi": [
    {
      "anonymous": false,
      "inputs": [
        {
          "indexed": false,
          "internalType": "address",
          "name": "user",
          "type": "address"
        },
        {
          "indexed": false,
          "internalType": "uint256",
          "name": "timestamp",
          "type": "uint256"
        }
      ],
      "name": "Claim",
      "type": "event"
    },
    {
      "anonymous": false,
      "inputs": [
        {
          "indexed": true,
          "internalType": "address",
          "name": "_user",
          "type": "address"
        },
        {
          "indexed": true,
          "internalType": "address",
          "name": "_old",
          "type": "address"
        },
        {
          "indexed": true,
          "internalType": "address",
          "name": "_new",
          "type": "address"
        }
      ],
      "name": "ConfigChanged",
      "type": "event"
    },
    {
      "anonymous": false,
      "inputs": [
        {
          "indexed": true,
          "internalType": "address",
          "name": "_user",
          "type": "address"
        },
        {
          "indexed": true,
          "internalType": "address",
          "name": "_old",
          "type": "address"
        },
        {
          "indexed": true,
          "internalType": "address",
          "name": "_new",
          "type": "address"
        }
      ],
      "name": "OwnerChanged",
      "type": "event"
    },
    {
      "anonymous": false,
      "inputs": [
        {
          "indexed": false,
          "internalType": "address",
          "name": "user",
          "type": "address"
        },
        {
          "indexed": false,
          "internalType": "uint256",
          "name": "timestamp",
          "type": "uint256"
        }
      ],
      "name": "PunchInEvent",
      "type": "event"
    },
    {
      "inputs": [],
      "name": "_rewardAmount",
      "outputs": [
        {
          "internalType": "uint256",
          "name": "",
          "type": "uint256"
        }
      ],
      "stateMutability": "view",
      "type": "function"
    },
    {
      "inputs": [],
      "name": "_rewardToken",
      "outputs": [
        {
          "internalType": "address",
          "name": "",
          "type": "address"
        }
      ],
      "stateMutability": "view",
      "type": "function"
    },
    {
      "inputs": [],
      "name": "admin",
      "outputs": [
        {
          "internalType": "address",
          "name": "",
          "type": "address"
        }
      ],
      "stateMutability": "view",
      "type": "function"
    },
    {
      "inputs": [
        {
          "internalType": "address",
          "name": "_user",
          "type": "address"
        }
      ],
      "name": "changeOwner",
      "outputs": [],
      "stateMutability": "nonpayable",
      "type": "function"
    },
    {
      "inputs": [
        {
          "internalType": "address",
          "name": "to",
          "type": "address"
        },
        {
          "internalType": "bytes",
          "name": "signature",
          "type": "bytes"
        }
      ],
      "name": "claim",
      "outputs": [],
      "stateMutability": "nonpayable",
      "type": "function"
    },
    {
      "inputs": [],
      "name": "config",
      "outputs": [
        {
          "internalType": "address",
          "name": "",
          "type": "address"
        }
      ],
      "stateMutability": "view",
      "type": "function"
    },
    {
      "inputs": [],
      "name": "dev",
      "outputs": [
        {
          "internalType": "address",
          "name": "",
          "type": "address"
        }
      ],
      "stateMutability": "view",
      "type": "function"
    },
    {
      "inputs": [
        {
          "internalType": "address",
          "name": "treasury",
          "type": "address"
        },
        {
          "internalType": "address",
          "name": "signer",
          "type": "address"
        },
        {
          "internalType": "address",
          "name": "rewardToken",
          "type": "address"
        },
        {
          "internalType": "uint256",
          "name": "rewardAmount",
          "type": "uint256"
        }
      ],
      "name": "initialize",
      "outputs": [],
      "stateMutability": "nonpayable",
      "type": "function"
    },
    {
      "inputs": [
        {
          "internalType": "address",
          "name": "user",
          "type": "address"
        }
      ],
      "name": "isUserClaimed",
      "outputs": [
        {
          "internalType": "bool",
          "name": "",
          "type": "bool"
        }
      ],
      "stateMutability": "view",
      "type": "function"
    },
    {
      "inputs": [],
      "name": "owner",
      "outputs": [
        {
          "internalType": "address",
          "name": "",
          "type": "address"
        }
      ],
      "stateMutability": "view",
      "type": "function"
    },
    {
      "inputs": [],
      "name": "punchIn",
      "outputs": [],
      "stateMutability": "nonpayable",
      "type": "function"
    },
    {
      "inputs": [
        {
          "internalType": "address",
          "name": "treasury",
          "type": "address"
        },
        {
          "internalType": "address",
          "name": "signer",
          "type": "address"
        },
        {
          "internalType": "address",
          "name": "rewardToken",
          "type": "address"
        },
        {
          "internalType": "uint256",
          "name": "rewardAmount",
          "type": "uint256"
        }
      ],
      "name": "setConf",
      "outputs": [],
      "stateMutability": "nonpayable",
      "type": "function"
    },
    {
      "inputs": [
        {
          "internalType": "address",
          "name": "_config",
          "type": "address"
        }
      ],
      "name": "setupConfig",
      "outputs": [],
      "stateMutability": "nonpayable",
      "type": "function"
    },
    {
      "inputs": [
        {
          "internalType": "address",
          "name": "user",
          "type": "address"
        }
      ],
      "name": "userTimestamps",
      "outputs": [
        {
          "internalType": "uint64[]",
          "name": "",
          "type": "uint64[]"
        }
      ],
      "stateMutability": "view",
      "type": "function"
    },
    {
      "inputs": [
        {
          "internalType": "address",
          "name": "user",
          "type": "address"
        },
        {
          "internalType": "bytes",
          "name": "signature",
          "type": "bytes"
        }
      ],
      "name": "verify",
      "outputs": [
        {
          "internalType": "bool",
          "name": "",
          "type": "bool"
        }
      ],
      "stateMutability": "view",
      "type": "function"
    }
  ],
  "bytecode": "0x608060405234801561001057600080fd5b506112fd806100206000396000f3fe608060405234801561001057600080fd5b50600436106100f55760003560e01c80638da5cb5b11610097578063bb1757cf11610066578063bb1757cf14610248578063cd07d9111461025b578063cf756fdf1461027b578063f851a4401461028e57600080fd5b80638da5cb5b146101ed57806391cca3db1461020d578063a6f9dae114610215578063b59c6e0e1461022857600080fd5b806349db98fa116100d357806349db98fa146101705780634a41d1ac146101875780636ca7f2fe1461019a57806379502c55146101a257600080fd5b806336c5cc0e146100fa5780633d50f2e01461010f578063467f821614610122575b600080fd5b61010d610108366004610f8d565b610296565b005b61010d61011d366004610fde565b6103c0565b61015b610130366004610fde565b73ffffffffffffffffffffffffffffffffffffffff1660009081526007602052604090205460ff1690565b60405190151581526020015b60405180910390f35b61017960055481565b604051908152602001610167565b61015b610195366004611031565b6104dd565b61010d6105f3565b6000546101c89062010000900473ffffffffffffffffffffffffffffffffffffffff1681565b60405173ffffffffffffffffffffffffffffffffffffffff9091168152602001610167565b6001546101c89073ffffffffffffffffffffffffffffffffffffffff1681565b6101c861067b565b61010d610223366004610fde565b610762565b6004546101c89073ffffffffffffffffffffffffffffffffffffffff1681565b61010d610256366004611031565b6108f8565b61026e610269366004610fde565b610b17565b6040516101679190611113565b61010d610289366004610f8d565b610bc4565b6101c8610d1a565b61029e61067b565b73ffffffffffffffffffffffffffffffffffffffff163373ffffffffffffffffffffffffffffffffffffffff1614806102ee575060015473ffffffffffffffffffffffffffffffffffffffff1633145b610359576040517f08c379a000000000000000000000000000000000000000000000000000000000815260206004820152600d60248201527f64657620464f5242494444454e0000000000000000000000000000000000000060448201526064015b60405180910390fd5b600280547fffffffffffffffffffffffff000000000000000000000000000000000000000090811673ffffffffffffffffffffffffffffffffffffffff96871617909155600380548216948616949094179093556004805490931691909316179055600555565b60015473ffffffffffffffffffffffffffffffffffffffff163314610441576040517f08c379a000000000000000000000000000000000000000000000000000000000815260206004820152600f60248201527f4f574e455220464f5242494444454e00000000000000000000000000000000006044820152606401610350565b6000805460405173ffffffffffffffffffffffffffffffffffffffff8085169362010000909304169133917f1c9f92ac4e71628bcbcaa06d364d40e010aef535184545a709e14cced8ac2d3c9190a46000805473ffffffffffffffffffffffffffffffffffffffff90921662010000027fffffffffffffffffffff0000000000000000000000000000000000000000ffff909216919091179055565b6040517fffffffffffffffffffffffffffffffffffffffff000000000000000000000000606084811b8216602084015230901b166034820152600090819060480160405160208183030381529060405280519060200120905060008160405160200161057591907f19457468657265756d205369676e6564204d6573736167653a0a3332000000008152601c810191909152603c0190565b60405160208183030381529060405280519060200120905060006105998286610da7565b600354815191925073ffffffffffffffffffffffffffffffffffffffff169082906000906105c9576105c9611161565b602002602001015173ffffffffffffffffffffffffffffffffffffffff1614935050505092915050565b3360008181526006602090815260408083208054600181018255908452928290206004840401805460039094166008026101000a67ffffffffffffffff8181021990951642958616919091021790558051938452908301919091527fa85b332b638e2639ffcbb5b94aaf0a9cb16d9578afab1606a2734b99fb407ccf910160405180910390a1565b6000805462010000900473ffffffffffffffffffffffffffffffffffffffff161561074557600060029054906101000a900473ffffffffffffffffffffffffffffffffffffffff1673ffffffffffffffffffffffffffffffffffffffff166391cca3db6040518163ffffffff1660e01b815260040160206040518083038186803b15801561070857600080fd5b505afa15801561071c573d6000803e3d6000fd5b505050506040513d601f19601f820116820180604052508101906107409190611190565b905090565b5060015473ffffffffffffffffffffffffffffffffffffffff1690565b60015473ffffffffffffffffffffffffffffffffffffffff1633146107e3576040517f08c379a000000000000000000000000000000000000000000000000000000000815260206004820152600f60248201527f4f574e455220464f5242494444454e00000000000000000000000000000000006044820152606401610350565b60015473ffffffffffffffffffffffffffffffffffffffff82811691161415610868576040517f08c379a000000000000000000000000000000000000000000000000000000000815260206004820152601060248201527f4f776e65723a204e4f204348414e4745000000000000000000000000000000006044820152606401610350565b60015460405173ffffffffffffffffffffffffffffffffffffffff80841692169033907f381c0d11398486654573703c51ee8210ce9461764d133f9f0e53b6a53970533190600090a4600180547fffffffffffffffffffffffff00000000000000000000000000000000000000001673ffffffffffffffffffffffffffffffffffffffff92909216919091179055565b61090233826104dd565b610968576040517f08c379a000000000000000000000000000000000000000000000000000000000815260206004820152601b60248201527f496e76616c696420706172616d65746572207369676e617475726500000000006044820152606401610350565b3360009081526007602052604090205460ff16156109e2576040517f08c379a000000000000000000000000000000000000000000000000000000000815260206004820152601860248201527f557365722068617320616c726561647920636c61696d656400000000000000006044820152606401610350565b336000908152600760205260409081902080547fffffffffffffffffffffffffffffffffffffffffffffffffffffffffffffff001660011790556004805460025460055493517f23b872dd00000000000000000000000000000000000000000000000000000000815273ffffffffffffffffffffffffffffffffffffffff918216938101939093528581166024840152604483019390935291909116906323b872dd90606401602060405180830381600087803b158015610aa257600080fd5b505af1158015610ab6573d6000803e3d6000fd5b505050506040513d601f19601f82011682018060405250810190610ada91906111ad565b50604080513381524260208201527f47cee97cb7acd717b3c0aa1435d004cd5b3c8c57d70dbceb4e4458bbd60e39d4910160405180910390a15050565b73ffffffffffffffffffffffffffffffffffffffff8116600090815260066020908152604091829020805483518184028101840190945280845260609392830182828015610bb857602002820191906000526020600020906000905b82829054906101000a900467ffffffffffffffff1667ffffffffffffffff1681526020019060080190602082600701049283019260010382029150808411610b735790505b50505050509050919050565b600054610100900460ff16610bdf5760005460ff1615610be3565b303b155b610c6f576040517f08c379a000000000000000000000000000000000000000000000000000000000815260206004820152602e60248201527f496e697469616c697a61626c653a20636f6e747261637420697320616c72656160448201527f647920696e697469616c697a65640000000000000000000000000000000000006064820152608401610350565b600054610100900460ff16158015610cae57600080547fffffffffffffffffffffffffffffffffffffffffffffffffffffffffffff0000166101011790555b600180547fffffffffffffffffffffffff00000000000000000000000000000000000000001633179055610ce485858585610296565b8015610d1357600080547fffffffffffffffffffffffffffffffffffffffffffffffffffffffffffff00ff1690555b5050505050565b6000805462010000900473ffffffffffffffffffffffffffffffffffffffff161561074557600060029054906101000a900473ffffffffffffffffffffffffffffffffffffffff1673ffffffffffffffffffffffffffffffffffffffff1663f851a4406040518163ffffffff1660e01b815260040160206040518083038186803b15801561070857600080fd5b6060600080600080610db886610ecd565b90508067ffffffffffffffff811115610dd357610dd3611002565b604051908082528060200260200182016040528015610dfc578160200160208202803683370190505b50945060005b81811015610ec257610e148782610efd565b6040805160008152602081018083528d905260ff8516918101919091526060810183905260808101829052929750909550935060019060a0016020604051602081039080840390855afa158015610e6f573d6000803e3d6000fd5b50505060206040510351868281518110610e8b57610e8b611161565b73ffffffffffffffffffffffffffffffffffffffff9092166020928302919091019091015280610eba816111fe565b915050610e02565b505050505092915050565b600060418251610edd9190611266565b15610ee9576000610ef7565b60418251610ef7919061127a565b92915050565b6000808080610f0d85604161128e565b8681016020810151604082015160419092015160ff169650945092509050601b841015610f4257610f3f601b856112cb565b93505b8360ff16601b1480610f5757508360ff16601c145b610f6057600080fd5b509250925092565b73ffffffffffffffffffffffffffffffffffffffff81168114610f8a57600080fd5b50565b60008060008060808587031215610fa357600080fd5b8435610fae81610f68565b93506020850135610fbe81610f68565b92506040850135610fce81610f68565b9396929550929360600135925050565b600060208284031215610ff057600080fd5b8135610ffb81610f68565b9392505050565b7f4e487b7100000000000000000000000000000000000000000000000000000000600052604160045260246000fd5b6000806040838503121561104457600080fd5b823561104f81610f68565b9150602083013567ffffffffffffffff8082111561106c57600080fd5b818501915085601f83011261108057600080fd5b81358181111561109257611092611002565b604051601f82017fffffffffffffffffffffffffffffffffffffffffffffffffffffffffffffffe0908116603f011681019083821181831017156110d8576110d8611002565b816040528281528860208487010111156110f157600080fd5b8260208601602083013760006020848301015280955050505050509250929050565b6020808252825182820181905260009190848201906040850190845b8181101561115557835167ffffffffffffffff168352928401929184019160010161112f565b50909695505050505050565b7f4e487b7100000000000000000000000000000000000000000000000000000000600052603260045260246000fd5b6000602082840312156111a257600080fd5b8151610ffb81610f68565b6000602082840312156111bf57600080fd5b81518015158114610ffb57600080fd5b7f4e487b7100000000000000000000000000000000000000000000000000000000600052601160045260246000fd5b60007fffffffffffffffffffffffffffffffffffffffffffffffffffffffffffffffff821415611230576112306111cf565b5060010190565b7f4e487b7100000000000000000000000000000000000000000000000000000000600052601260045260246000fd5b60008261127557611275611237565b500690565b60008261128957611289611237565b500490565b6000817fffffffffffffffffffffffffffffffffffffffffffffffffffffffffffffffff04831182151516156112c6576112c66111cf565b500290565b600060ff821660ff84168060ff038211156112e8576112e86111cf565b01939250505056fea164736f6c6343000809000a",
  "linkReferences": {},
  "deployedLinkReferences": {}
}