{
  "_format": "hh-sol-artifact-1",
  "contractName": "DailyPunchIn",
  "sourceName": "contracts/DailyPunchIn.sol",
  "abi": [
    {
      "anonymous": false,
      "inputs": [
        {
          "indexed": false,
          "internalType": "address",
          "name": "user",
          "type": "address"
        },
        {
          "indexed": false,
          "internalType": "uint256",
          "name": "timestamp",
          "type": "uint256"
        }
      ],
      "name": "PunchInEvent",
      "type": "event"
    },
    {
      "inputs": [],
      "name": "punchIn",
      "outputs": [],
      "stateMutability": "nonpayable",
      "type": "function"
    },
    {
      "inputs": [
        {
          "internalType": "address",
          "name": "user",
          "type": "address"
        }
      ],
      "name": "userInfo",
      "outputs": [
        {
          "internalType": "uint256",
          "name": "",
          "type": "uint256"
        },
        {
          "internalType": "uint256",
          "name": "",
          "type": "uint256"
        }
      ],
      "stateMutability": "view",
      "type": "function"
    },
    {
      "inputs": [],
      "name": "userTotalAmount",
      "outputs": [
        {
          "internalType": "uint256",
          "name": "",
          "type": "uint256"
        }
      ],
      "stateMutability": "view",
      "type": "function"
    }
  ],
  "bytecode": "0x608060405234801561001057600080fd5b506102ac806100206000396000f3fe608060405234801561001057600080fd5b50600436106100415760003560e01c80631959a002146100465780636ca7f2fe1461009e5780637a4c6d70146100a8575b600080fd5b61008461005436600461020b565b73ffffffffffffffffffffffffffffffffffffffff16600090815260026020526040902080546001909101549091565b604080519283526020830191909152015b60405180910390f35b6100a66100bf565b005b6100b160015481565b604051908152602001610095565b336000908152600260205260409020600101546100eb57600180546100e3916101ec565b600155610176565b33600090815260026020526040902054620151809061010b9042906101ff565b11610176576040517f08c379a000000000000000000000000000000000000000000000000000000000815260206004820152601860248201527f416c72656164792070756e6368656420696e2031206461790000000000000000604482015260640160405180910390fd5b336000908152600260205260409020600190810154610194916101ec565b336000818152600260209081526040918290206001810194909455429384905581519283528201929092527fa85b332b638e2639ffcbb5b94aaf0a9cb16d9578afab1606a2734b99fb407ccf910160405180910390a1565b60006101f88284610270565b9392505050565b60006101f88284610288565b60006020828403121561021d57600080fd5b813573ffffffffffffffffffffffffffffffffffffffff811681146101f857600080fd5b7f4e487b7100000000000000000000000000000000000000000000000000000000600052601160045260246000fd5b6000821982111561028357610283610241565b500190565b60008282101561029a5761029a610241565b50039056fea164736f6c6343000809000a",
  "linkReferences": {},
  "deployedLinkReferences": {}
}