{
  "_format": "hh-sol-artifact-1",
  "contractName": "Props721",
  "sourceName": "contracts/Props721.sol",
  "abi": [
    {
      "inputs": [
        {
          "internalType": "string",
          "name": "name_",
          "type": "string"
        },
        {
          "internalType": "string",
          "name": "symbol_",
          "type": "string"
        },
        {
          "internalType": "string",
          "name": "baseURI_",
          "type": "string"
        },
        {
          "internalType": "string",
          "name": "suffix_",
          "type": "string"
        },
        {
          "internalType": "address",
          "name": "signer_",
          "type": "address"
        },
        {
          "internalType": "address",
          "name": "consumeToken_",
          "type": "address"
        }
      ],
      "stateMutability": "nonpayable",
      "type": "constructor"
    },
    {
      "anonymous": false,
      "inputs": [
        {
          "indexed": true,
          "internalType": "address",
          "name": "owner",
          "type": "address"
        },
        {
          "indexed": true,
          "internalType": "address",
          "name": "approved",
          "type": "address"
        },
        {
          "indexed": true,
          "internalType": "uint256",
          "name": "tokenId",
          "type": "uint256"
        }
      ],
      "name": "Approval",
      "type": "event"
    },
    {
      "anonymous": false,
      "inputs": [
        {
          "indexed": true,
          "internalType": "address",
          "name": "owner",
          "type": "address"
        },
        {
          "indexed": true,
          "internalType": "address",
          "name": "operator",
          "type": "address"
        },
        {
          "indexed": false,
          "internalType": "bool",
          "name": "approved",
          "type": "bool"
        }
      ],
      "name": "ApprovalForAll",
      "type": "event"
    },
    {
      "anonymous": false,
      "inputs": [
        {
          "indexed": true,
          "internalType": "address",
          "name": "_user",
          "type": "address"
        },
        {
          "indexed": true,
          "internalType": "address",
          "name": "_old",
          "type": "address"
        },
        {
          "indexed": true,
          "internalType": "address",
          "name": "_new",
          "type": "address"
        }
      ],
      "name": "ConfigChanged",
      "type": "event"
    },
    {
      "anonymous": false,
      "inputs": [
        {
          "indexed": true,
          "internalType": "address",
          "name": "user",
          "type": "address"
        },
        {
          "indexed": false,
          "internalType": "uint256",
          "name": "tokenId",
          "type": "uint256"
        },
        {
          "indexed": false,
          "internalType": "uint256",
          "name": "seed",
          "type": "uint256"
        }
      ],
      "name": "Create",
      "type": "event"
    },
    {
      "anonymous": false,
      "inputs": [
        {
          "indexed": true,
          "internalType": "address",
          "name": "user",
          "type": "address"
        },
        {
          "indexed": false,
          "internalType": "uint256",
          "name": "tokenId",
          "type": "uint256"
        }
      ],
      "name": "Destroy",
      "type": "event"
    },
    {
      "anonymous": false,
      "inputs": [
        {
          "indexed": true,
          "internalType": "address",
          "name": "_user",
          "type": "address"
        },
        {
          "indexed": true,
          "internalType": "address",
          "name": "_old",
          "type": "address"
        },
        {
          "indexed": true,
          "internalType": "address",
          "name": "_new",
          "type": "address"
        }
      ],
      "name": "OwnerChanged",
      "type": "event"
    },
    {
      "anonymous": false,
      "inputs": [
        {
          "indexed": true,
          "internalType": "address",
          "name": "from",
          "type": "address"
        },
        {
          "indexed": true,
          "internalType": "address",
          "name": "to",
          "type": "address"
        },
        {
          "indexed": true,
          "internalType": "uint256",
          "name": "tokenId",
          "type": "uint256"
        }
      ],
      "name": "Transfer",
      "type": "event"
    },
    {
      "inputs": [],
      "name": "admin",
      "outputs": [
        {
          "internalType": "address",
          "name": "",
          "type": "address"
        }
      ],
      "stateMutability": "view",
      "type": "function"
    },
    {
      "inputs": [
        {
          "internalType": "address",
          "name": "to",
          "type": "address"
        },
        {
          "internalType": "uint256",
          "name": "tokenId",
          "type": "uint256"
        }
      ],
      "name": "approve",
      "outputs": [],
      "stateMutability": "nonpayable",
      "type": "function"
    },
    {
      "inputs": [
        {
          "internalType": "address",
          "name": "owner",
          "type": "address"
        }
      ],
      "name": "balanceOf",
      "outputs": [
        {
          "internalType": "uint256",
          "name": "",
          "type": "uint256"
        }
      ],
      "stateMutability": "view",
      "type": "function"
    },
    {
      "inputs": [],
      "name": "baseURI",
      "outputs": [
        {
          "internalType": "string",
          "name": "",
          "type": "string"
        }
      ],
      "stateMutability": "view",
      "type": "function"
    },
    {
      "inputs": [
        {
          "internalType": "uint256",
          "name": "tokenId",
          "type": "uint256"
        },
        {
          "internalType": "uint256",
          "name": "consumeAmount",
          "type": "uint256"
        },
        {
          "internalType": "bytes",
          "name": "signature",
          "type": "bytes"
        }
      ],
      "name": "burn",
      "outputs": [],
      "stateMutability": "nonpayable",
      "type": "function"
    },
    {
      "inputs": [
        {
          "internalType": "address",
          "name": "_user",
          "type": "address"
        }
      ],
      "name": "changeOwner",
      "outputs": [],
      "stateMutability": "nonpayable",
      "type": "function"
    },
    {
      "inputs": [],
      "name": "config",
      "outputs": [
        {
          "internalType": "address",
          "name": "",
          "type": "address"
        }
      ],
      "stateMutability": "view",
      "type": "function"
    },
    {
      "inputs": [],
      "name": "consumeToken",
      "outputs": [
        {
          "internalType": "address",
          "name": "",
          "type": "address"
        }
      ],
      "stateMutability": "view",
      "type": "function"
    },
    {
      "inputs": [],
      "name": "dev",
      "outputs": [
        {
          "internalType": "address",
          "name": "",
          "type": "address"
        }
      ],
      "stateMutability": "view",
      "type": "function"
    },
    {
      "inputs": [
        {
          "internalType": "uint256",
          "name": "tokenId",
          "type": "uint256"
        }
      ],
      "name": "getApproved",
      "outputs": [
        {
          "internalType": "address",
          "name": "",
          "type": "address"
        }
      ],
      "stateMutability": "view",
      "type": "function"
    },
    {
      "inputs": [
        {
          "internalType": "address",
          "name": "owner",
          "type": "address"
        },
        {
          "internalType": "address",
          "name": "operator",
          "type": "address"
        }
      ],
      "name": "isApprovedForAll",
      "outputs": [
        {
          "internalType": "bool",
          "name": "",
          "type": "bool"
        }
      ],
      "stateMutability": "view",
      "type": "function"
    },
    {
      "inputs": [
        {
          "internalType": "uint256",
          "name": "expiryTime",
          "type": "uint256"
        },
        {
          "internalType": "uint256",
          "name": "seed",
          "type": "uint256"
        },
        {
          "internalType": "uint256",
          "name": "consumeAmount",
          "type": "uint256"
        },
        {
          "internalType": "bytes",
          "name": "signature",
          "type": "bytes"
        }
      ],
      "name": "mint",
      "outputs": [],
      "stateMutability": "nonpayable",
      "type": "function"
    },
    {
      "inputs": [],
      "name": "name",
      "outputs": [
        {
          "internalType": "string",
          "name": "",
          "type": "string"
        }
      ],
      "stateMutability": "view",
      "type": "function"
    },
    {
      "inputs": [],
      "name": "owner",
      "outputs": [
        {
          "internalType": "address",
          "name": "",
          "type": "address"
        }
      ],
      "stateMutability": "view",
      "type": "function"
    },
    {
      "inputs": [
        {
          "internalType": "uint256",
          "name": "tokenId",
          "type": "uint256"
        }
      ],
      "name": "ownerOf",
      "outputs": [
        {
          "internalType": "address",
          "name": "",
          "type": "address"
        }
      ],
      "stateMutability": "view",
      "type": "function"
    },
    {
      "inputs": [
        {
          "internalType": "address",
          "name": "from",
          "type": "address"
        },
        {
          "internalType": "address",
          "name": "to",
          "type": "address"
        },
        {
          "internalType": "uint256",
          "name": "tokenId",
          "type": "uint256"
        }
      ],
      "name": "safeTransferFrom",
      "outputs": [],
      "stateMutability": "nonpayable",
      "type": "function"
    },
    {
      "inputs": [
        {
          "internalType": "address",
          "name": "from",
          "type": "address"
        },
        {
          "internalType": "address",
          "name": "to",
          "type": "address"
        },
        {
          "internalType": "uint256",
          "name": "tokenId",
          "type": "uint256"
        },
        {
          "internalType": "bytes",
          "name": "_data",
          "type": "bytes"
        }
      ],
      "name": "safeTransferFrom",
      "outputs": [],
      "stateMutability": "nonpayable",
      "type": "function"
    },
    {
      "inputs": [
        {
          "internalType": "address",
          "name": "operator",
          "type": "address"
        },
        {
          "internalType": "bool",
          "name": "approved",
          "type": "bool"
        }
      ],
      "name": "setApprovalForAll",
      "outputs": [],
      "stateMutability": "nonpayable",
      "type": "function"
    },
    {
      "inputs": [
        {
          "internalType": "string",
          "name": "baseURI_",
          "type": "string"
        },
        {
          "internalType": "string",
          "name": "suffix_",
          "type": "string"
        }
      ],
      "name": "setBaseURI",
      "outputs": [],
      "stateMutability": "nonpayable",
      "type": "function"
    },
    {
      "inputs": [
        {
          "internalType": "address",
          "name": "consumeToken_",
          "type": "address"
        }
      ],
      "name": "setConsumeToken",
      "outputs": [],
      "stateMutability": "nonpayable",
      "type": "function"
    },
    {
      "inputs": [
        {
          "internalType": "address",
          "name": "signer_",
          "type": "address"
        }
      ],
      "name": "setSigner",
      "outputs": [],
      "stateMutability": "nonpayable",
      "type": "function"
    },
    {
      "inputs": [
        {
          "internalType": "address",
          "name": "_config",
          "type": "address"
        }
      ],
      "name": "setupConfig",
      "outputs": [],
      "stateMutability": "nonpayable",
      "type": "function"
    },
    {
      "inputs": [],
      "name": "signer",
      "outputs": [
        {
          "internalType": "address",
          "name": "",
          "type": "address"
        }
      ],
      "stateMutability": "view",
      "type": "function"
    },
    {
      "inputs": [],
      "name": "suffix",
      "outputs": [
        {
          "internalType": "string",
          "name": "",
          "type": "string"
        }
      ],
      "stateMutability": "view",
      "type": "function"
    },
    {
      "inputs": [
        {
          "internalType": "bytes4",
          "name": "interfaceId",
          "type": "bytes4"
        }
      ],
      "name": "supportsInterface",
      "outputs": [
        {
          "internalType": "bool",
          "name": "",
          "type": "bool"
        }
      ],
      "stateMutability": "view",
      "type": "function"
    },
    {
      "inputs": [],
      "name": "symbol",
      "outputs": [
        {
          "internalType": "string",
          "name": "",
          "type": "string"
        }
      ],
      "stateMutability": "view",
      "type": "function"
    },
    {
      "inputs": [
        {
          "internalType": "uint256",
          "name": "tokenId",
          "type": "uint256"
        }
      ],
      "name": "tokenURI",
      "outputs": [
        {
          "internalType": "string",
          "name": "",
          "type": "string"
        }
      ],
      "stateMutability": "view",
      "type": "function"
    },
    {
      "inputs": [
        {
          "internalType": "address",
          "name": "from",
          "type": "address"
        },
        {
          "internalType": "address",
          "name": "to",
          "type": "address"
        },
        {
          "internalType": "uint256",
          "name": "tokenId",
          "type": "uint256"
        }
      ],
      "name": "transferFrom",
      "outputs": [],
      "stateMutability": "nonpayable",
      "type": "function"
    },
    {
      "inputs": [
        {
          "internalType": "uint256",
          "name": "tokenId",
          "type": "uint256"
        },
        {
          "internalType": "uint256",
          "name": "consumeAmount",
          "type": "uint256"
        },
        {
          "internalType": "bytes",
          "name": "signature",
          "type": "bytes"
        }
      ],
      "name": "verifyBurn",
      "outputs": [
        {
          "internalType": "bool",
          "name": "",
          "type": "bool"
        }
      ],
      "stateMutability": "view",
      "type": "function"
    },
    {
      "inputs": [
        {
          "internalType": "address",
          "name": "account",
          "type": "address"
        },
        {
          "internalType": "uint256",
          "name": "expiryTime",
          "type": "uint256"
        },
        {
          "internalType": "uint256",
          "name": "seed",
          "type": "uint256"
        },
        {
          "internalType": "uint256",
          "name": "consumeAmount",
          "type": "uint256"
        },
        {
          "internalType": "bytes",
          "name": "signature",
          "type": "bytes"
        }
      ],
      "name": "verifyMint",
      "outputs": [
        {
          "internalType": "bool",
          "name": "",
          "type": "bool"
        }
      ],
      "stateMutability": "view",
      "type": "function"
    },
    {
      "inputs": [
        {
          "internalType": "address",
          "name": "token",
          "type": "address"
        },
        {
          "internalType": "address",
          "name": "to",
          "type": "address"
        },
        {
          "internalType": "uint256",
          "name": "amount",
          "type": "uint256"
        }
      ],
      "name": "withdraw",
      "outputs": [],
      "stateMutability": "nonpayable",
      "type": "function"
    }
  ],
  "bytecode": "0x60806040526001600c553480156200001657600080fd5b5060405162003b6738038062003b678339810160408190526200003991620002b7565b8551869086906200005290600090602085019062000127565b5080516200006890600190602084019062000127565b5050506001600160a01b038216620000b55760405162461bcd60e51b815260206004820152600c60248201526b5a65726f206164647265737360a01b604482015260640160405180910390fd5b60078054336001600160a01b0319918216179091556008805482166001600160a01b03848116919091179091556009805490921690841617905583516200010490600a90602087019062000127565b5082516200011a90600b90602086019062000127565b50505050505050620003d1565b828054620001359062000394565b90600052602060002090601f016020900481019282620001595760008555620001a4565b82601f106200017457805160ff1916838001178555620001a4565b82800160010185558215620001a4579182015b82811115620001a457825182559160200191906001019062000187565b50620001b2929150620001b6565b5090565b5b80821115620001b25760008155600101620001b7565b634e487b7160e01b600052604160045260246000fd5b600082601f830112620001f557600080fd5b81516001600160401b0380821115620002125762000212620001cd565b604051601f8301601f19908116603f011681019082821181831017156200023d576200023d620001cd565b816040528381526020925086838588010111156200025a57600080fd5b600091505b838210156200027e57858201830151818301840152908201906200025f565b83821115620002905760008385830101525b9695505050505050565b80516001600160a01b0381168114620002b257600080fd5b919050565b60008060008060008060c08789031215620002d157600080fd5b86516001600160401b0380821115620002e957600080fd5b620002f78a838b01620001e3565b975060208901519150808211156200030e57600080fd5b6200031c8a838b01620001e3565b965060408901519150808211156200033357600080fd5b620003418a838b01620001e3565b955060608901519150808211156200035857600080fd5b506200036789828a01620001e3565b93505062000378608088016200029a565b91506200038860a088016200029a565b90509295509295509295565b600181811c90821680620003a957607f821691505b60208210811415620003cb57634e487b7160e01b600052602260045260246000fd5b50919050565b61378680620003e16000396000f3fe608060405234801561001057600080fd5b50600436106101e55760003560e01c80636c19e7831161010f578063a22cb465116100a2578063d9caed1211610071578063d9caed121461044a578063e985e9c51461045d578063f7073c3a146104a6578063f851a440146104ae57600080fd5b8063a22cb465146103fe578063a6f9dae114610411578063b88d4fde14610424578063c87b56dd1461043757600080fd5b80638da5cb5b116100de5780638da5cb5b146103bb57806391cca3db146103db57806395d89b41146103e3578063994afbb0146103eb57600080fd5b80636c19e7831461035457806370a082311461036757806379502c551461038857806380a5a371146103a857600080fd5b806335691b56116101875780635f746484116101565780635f746484146103135780636352211e146103265780636790a9de146103395780636c0360eb1461034c57600080fd5b806335691b56146102ba5780633d50f2e0146102da57806342842e0e146102ed5780634a9eee691461030057600080fd5b8063095ea7b3116101c3578063095ea7b31461025f5780631052566014610274578063238ac9331461028757806323b872dd146102a757600080fd5b806301ffc9a7146101ea57806306fdde0314610212578063081812fc14610227575b600080fd5b6101fd6101f8366004612f5e565b6104b6565b60405190151581526020015b60405180910390f35b61021a61059b565b6040516102099190612ff1565b61023a610235366004613004565b61062d565b60405173ffffffffffffffffffffffffffffffffffffffff9091168152602001610209565b61027261026d36600461303f565b61070c565b005b61027261028236600461306b565b610899565b60095461023a9073ffffffffffffffffffffffffffffffffffffffff1681565b6102726102b5366004613088565b610a23565b60085461023a9073ffffffffffffffffffffffffffffffffffffffff1681565b6102726102e836600461306b565b610ac4565b6102726102fb366004613088565b610bd5565b61027261030e3660046131a3565b610bf0565b6101fd6103213660046131fd565b610d5e565b61023a610334366004613004565b610e6c565b61027261034736600461324d565b610f1e565b61021a611003565b61027261036236600461306b565b611091565b61037a61037536600461306b565b61121b565b604051908152602001610209565b60065461023a9073ffffffffffffffffffffffffffffffffffffffff1681565b6102726103b63660046131fd565b6112e9565b60075461023a9073ffffffffffffffffffffffffffffffffffffffff1681565b61023a611475565b61021a611558565b6101fd6103f93660046132b1565b611567565b61027261040c36600461332c565b61167d565b61027261041f36600461306b565b61168c565b610272610432366004613365565b611822565b61021a610445366004613004565b6118ca565b610272610458366004613088565b61198d565b6101fd61046b3660046133b9565b73ffffffffffffffffffffffffffffffffffffffff918216600090815260056020908152604080832093909416825291909152205460ff1690565b61021a611b20565b61023a611b2d565b60007fffffffff0000000000000000000000000000000000000000000000000000000082167f80ac58cd00000000000000000000000000000000000000000000000000000000148061054957507fffffffff0000000000000000000000000000000000000000000000000000000082167f5b5e139f00000000000000000000000000000000000000000000000000000000145b8061059557507f01ffc9a7000000000000000000000000000000000000000000000000000000007fffffffff000000000000000000000000000000000000000000000000000000008316145b92915050565b6060600080546105aa906133e7565b80601f01602080910402602001604051908101604052809291908181526020018280546105d6906133e7565b80156106235780601f106105f857610100808354040283529160200191610623565b820191906000526020600020905b81548152906001019060200180831161060657829003601f168201915b5050505050905090565b60008181526002602052604081205473ffffffffffffffffffffffffffffffffffffffff166106e3576040517f08c379a000000000000000000000000000000000000000000000000000000000815260206004820152602c60248201527f4552433732313a20617070726f76656420717565727920666f72206e6f6e657860448201527f697374656e7420746f6b656e000000000000000000000000000000000000000060648201526084015b60405180910390fd5b5060009081526004602052604090205473ffffffffffffffffffffffffffffffffffffffff1690565b600061071782610e6c565b90508073ffffffffffffffffffffffffffffffffffffffff168373ffffffffffffffffffffffffffffffffffffffff1614156107d5576040517f08c379a000000000000000000000000000000000000000000000000000000000815260206004820152602160248201527f4552433732313a20617070726f76616c20746f2063757272656e74206f776e6560448201527f720000000000000000000000000000000000000000000000000000000000000060648201526084016106da565b3373ffffffffffffffffffffffffffffffffffffffff821614806107fe57506107fe813361046b565b61088a576040517f08c379a000000000000000000000000000000000000000000000000000000000815260206004820152603860248201527f4552433732313a20617070726f76652063616c6c6572206973206e6f74206f7760448201527f6e6572206e6f7220617070726f76656420666f7220616c6c000000000000000060648201526084016106da565b6108948383611bb6565b505050565b6108a1611475565b73ffffffffffffffffffffffffffffffffffffffff163373ffffffffffffffffffffffffffffffffffffffff1614806108f1575060075473ffffffffffffffffffffffffffffffffffffffff1633145b610957576040517f08c379a000000000000000000000000000000000000000000000000000000000815260206004820152600d60248201527f64657620464f5242494444454e0000000000000000000000000000000000000060448201526064016106da565b60085473ffffffffffffffffffffffffffffffffffffffff828116911614156109dc576040517f08c379a000000000000000000000000000000000000000000000000000000000815260206004820152601260248201527f5468657265206973206e6f206368616e6765000000000000000000000000000060448201526064016106da565b600880547fffffffffffffffffffffffff00000000000000000000000000000000000000001673ffffffffffffffffffffffffffffffffffffffff92909216919091179055565b610a2d3382611c56565b610ab9576040517f08c379a000000000000000000000000000000000000000000000000000000000815260206004820152603160248201527f4552433732313a207472616e736665722063616c6c6572206973206e6f74206f60448201527f776e6572206e6f7220617070726f76656400000000000000000000000000000060648201526084016106da565b610894838383611dc6565b60075473ffffffffffffffffffffffffffffffffffffffff163314610b45576040517f08c379a000000000000000000000000000000000000000000000000000000000815260206004820152600f60248201527f4f574e455220464f5242494444454e000000000000000000000000000000000060448201526064016106da565b60065460405173ffffffffffffffffffffffffffffffffffffffff80841692169033907f1c9f92ac4e71628bcbcaa06d364d40e010aef535184545a709e14cced8ac2d3c90600090a4600680547fffffffffffffffffffffffff00000000000000000000000000000000000000001673ffffffffffffffffffffffffffffffffffffffff92909216919091179055565b61089483838360405180602001604052806000815250611822565b428411610c59576040517f08c379a000000000000000000000000000000000000000000000000000000000815260206004820152601560248201527f5369676e6174757265206861732065787069726564000000000000000000000060448201526064016106da565b610c663385858585611567565b610ccc576040517f08c379a000000000000000000000000000000000000000000000000000000000815260206004820152601160248201527f496e76616c6964207369676e617475726500000000000000000000000000000060448201526064016106da565b8115610cf757600854610cf79073ffffffffffffffffffffffffffffffffffffffff1633308561202d565b600c54610d0433826121cb565b6001600c6000828254610d17919061346a565b9091555050604080518281526020810186905233917f278b0fd0170e87df8d6e9c94b47d3ff7382de693c547e6089b53f9972c532389910160405180910390a25050505050565b600080848430604051602001610dac93929190928352602083019190915260601b7fffffffffffffffffffffffffffffffffffffffff00000000000000000000000016604082015260540190565b604051602081830303815290604052805190602001209050600081604051602001610e0391907f19457468657265756d205369676e6564204d6573736167653a0a3332000000008152601c810191909152603c0190565b604080517fffffffffffffffffffffffffffffffffffffffffffffffffffffffffffffffe08184030181529190528051602090910120600954909150610e609073ffffffffffffffffffffffffffffffffffffffff16828661238d565b925050505b9392505050565b60008181526002602052604081205473ffffffffffffffffffffffffffffffffffffffff1680610595576040517f08c379a000000000000000000000000000000000000000000000000000000000815260206004820152602960248201527f4552433732313a206f776e657220717565727920666f72206e6f6e657869737460448201527f656e7420746f6b656e000000000000000000000000000000000000000000000060648201526084016106da565b610f26611475565b73ffffffffffffffffffffffffffffffffffffffff163373ffffffffffffffffffffffffffffffffffffffff161480610f76575060075473ffffffffffffffffffffffffffffffffffffffff1633145b610fdc576040517f08c379a000000000000000000000000000000000000000000000000000000000815260206004820152600d60248201527f64657620464f5242494444454e0000000000000000000000000000000000000060448201526064016106da565b8151610fef90600a906020850190612e94565b50805161089490600b906020840190612e94565b600a8054611010906133e7565b80601f016020809104026020016040519081016040528092919081815260200182805461103c906133e7565b80156110895780601f1061105e57610100808354040283529160200191611089565b820191906000526020600020905b81548152906001019060200180831161106c57829003601f168201915b505050505081565b611099611475565b73ffffffffffffffffffffffffffffffffffffffff163373ffffffffffffffffffffffffffffffffffffffff1614806110e9575060075473ffffffffffffffffffffffffffffffffffffffff1633145b61114f576040517f08c379a000000000000000000000000000000000000000000000000000000000815260206004820152600d60248201527f64657620464f5242494444454e0000000000000000000000000000000000000060448201526064016106da565b60095473ffffffffffffffffffffffffffffffffffffffff828116911614156111d4576040517f08c379a000000000000000000000000000000000000000000000000000000000815260206004820152601260248201527f5468657265206973206e6f206368616e6765000000000000000000000000000060448201526064016106da565b600980547fffffffffffffffffffffffff00000000000000000000000000000000000000001673ffffffffffffffffffffffffffffffffffffffff92909216919091179055565b600073ffffffffffffffffffffffffffffffffffffffff82166112c0576040517f08c379a000000000000000000000000000000000000000000000000000000000815260206004820152602a60248201527f4552433732313a2062616c616e636520717565727920666f7220746865207a6560448201527f726f20616464726573730000000000000000000000000000000000000000000060648201526084016106da565b5073ffffffffffffffffffffffffffffffffffffffff1660009081526003602052604090205490565b6112f4838383610d5e565b61135a576040517f08c379a000000000000000000000000000000000000000000000000000000000815260206004820152601160248201527f496e76616c6964207369676e617475726500000000000000000000000000000060448201526064016106da565b3361136484610e6c565b73ffffffffffffffffffffffffffffffffffffffff1614611407576040517f08c379a000000000000000000000000000000000000000000000000000000000815260206004820152602260248201527f43616c6c6572206973206e6f7420746865206f776e6572206f6620746f6b656e60448201527f496400000000000000000000000000000000000000000000000000000000000060648201526084016106da565b8115611432576008546114329073ffffffffffffffffffffffffffffffffffffffff1633308561202d565b61143b8361257b565b60405183815233907f81325e2a6c442af9d36e4ee9697f38d5f4bf0837ade0f6c411c6a40af7c057ee9060200160405180910390a2505050565b60065460009073ffffffffffffffffffffffffffffffffffffffff161561153b57600660009054906101000a900473ffffffffffffffffffffffffffffffffffffffff1673ffffffffffffffffffffffffffffffffffffffff166391cca3db6040518163ffffffff1660e01b815260040160206040518083038186803b1580156114fe57600080fd5b505afa158015611512573d6000803e3d6000fd5b505050506040513d601f19601f820116820180604052508101906115369190613482565b905090565b5060075473ffffffffffffffffffffffffffffffffffffffff1690565b6060600180546105aa906133e7565b6040517fffffffffffffffffffffffffffffffffffffffff000000000000000000000000606087811b8216602084015260348301879052605483018690526074830185905230901b166094820152600090819060a80160405160208183030381529060405280519060200120905060008160405160200161161491907f19457468657265756d205369676e6564204d6573736167653a0a3332000000008152601c810191909152603c0190565b604080517fffffffffffffffffffffffffffffffffffffffffffffffffffffffffffffffe081840301815291905280516020909101206009549091506116719073ffffffffffffffffffffffffffffffffffffffff16828661238d565b98975050505050505050565b611688338383612648565b5050565b60075473ffffffffffffffffffffffffffffffffffffffff16331461170d576040517f08c379a000000000000000000000000000000000000000000000000000000000815260206004820152600f60248201527f4f574e455220464f5242494444454e000000000000000000000000000000000060448201526064016106da565b60075473ffffffffffffffffffffffffffffffffffffffff82811691161415611792576040517f08c379a000000000000000000000000000000000000000000000000000000000815260206004820152601060248201527f4f776e65723a204e4f204348414e47450000000000000000000000000000000060448201526064016106da565b60075460405173ffffffffffffffffffffffffffffffffffffffff80841692169033907f381c0d11398486654573703c51ee8210ce9461764d133f9f0e53b6a53970533190600090a4600780547fffffffffffffffffffffffff00000000000000000000000000000000000000001673ffffffffffffffffffffffffffffffffffffffff92909216919091179055565b61182c3383611c56565b6118b8576040517f08c379a000000000000000000000000000000000000000000000000000000000815260206004820152603160248201527f4552433732313a207472616e736665722063616c6c6572206973206e6f74206f60448201527f776e6572206e6f7220617070726f76656400000000000000000000000000000060648201526084016106da565b6118c484848484612776565b50505050565b60008181526002602052604090205460609073ffffffffffffffffffffffffffffffffffffffff16611958576040517f08c379a000000000000000000000000000000000000000000000000000000000815260206004820152601660248201527f546f6b656e496420646f6573206e6f742065786973740000000000000000000060448201526064016106da565b600a61196383612819565b600b60405160200161197793929190613570565b6040516020818303038152906040529050919050565b60075473ffffffffffffffffffffffffffffffffffffffff163314611a0e576040517f08c379a000000000000000000000000000000000000000000000000000000000815260206004820152600f60248201527f4f574e455220464f5242494444454e000000000000000000000000000000000060448201526064016106da565b6040517f70a08231000000000000000000000000000000000000000000000000000000008152306004820152819073ffffffffffffffffffffffffffffffffffffffff8516906370a082319060240160206040518083038186803b158015611a7557600080fd5b505afa158015611a89573d6000803e3d6000fd5b505050506040513d601f19601f82011682018060405250810190611aad91906135a3565b1015611b15576040517f08c379a000000000000000000000000000000000000000000000000000000000815260206004820152601460248201527f496e73756666696369656e742062616c616e636500000000000000000000000060448201526064016106da565b61089483838361294b565b600b8054611010906133e7565b60065460009073ffffffffffffffffffffffffffffffffffffffff161561153b57600660009054906101000a900473ffffffffffffffffffffffffffffffffffffffff1673ffffffffffffffffffffffffffffffffffffffff1663f851a4406040518163ffffffff1660e01b815260040160206040518083038186803b1580156114fe57600080fd5b600081815260046020526040902080547fffffffffffffffffffffffff00000000000000000000000000000000000000001673ffffffffffffffffffffffffffffffffffffffff84169081179091558190611c1082610e6c565b73ffffffffffffffffffffffffffffffffffffffff167f8c5be1e5ebec7d5bd14f71427d1e84f3dd0314c0f7b2291e5b200ac8c7c3b92560405160405180910390a45050565b60008181526002602052604081205473ffffffffffffffffffffffffffffffffffffffff16611d07576040517f08c379a000000000000000000000000000000000000000000000000000000000815260206004820152602c60248201527f4552433732313a206f70657261746f7220717565727920666f72206e6f6e657860448201527f697374656e7420746f6b656e000000000000000000000000000000000000000060648201526084016106da565b6000611d1283610e6c565b90508073ffffffffffffffffffffffffffffffffffffffff168473ffffffffffffffffffffffffffffffffffffffff161480611d8157508373ffffffffffffffffffffffffffffffffffffffff16611d698461062d565b73ffffffffffffffffffffffffffffffffffffffff16145b80611dbe575073ffffffffffffffffffffffffffffffffffffffff80821660009081526005602090815260408083209388168352929052205460ff165b949350505050565b8273ffffffffffffffffffffffffffffffffffffffff16611de682610e6c565b73ffffffffffffffffffffffffffffffffffffffff1614611e89576040517f08c379a000000000000000000000000000000000000000000000000000000000815260206004820152602560248201527f4552433732313a207472616e736665722066726f6d20696e636f72726563742060448201527f6f776e657200000000000000000000000000000000000000000000000000000060648201526084016106da565b73ffffffffffffffffffffffffffffffffffffffff8216611f2b576040517f08c379a0000000000000000000000000000000000000000000000000000000008152602060048201526024808201527f4552433732313a207472616e7366657220746f20746865207a65726f2061646460448201527f726573730000000000000000000000000000000000000000000000000000000060648201526084016106da565b611f36600082611bb6565b73ffffffffffffffffffffffffffffffffffffffff83166000908152600360205260408120805460019290611f6c9084906135bc565b909155505073ffffffffffffffffffffffffffffffffffffffff82166000908152600360205260408120805460019290611fa790849061346a565b909155505060008181526002602052604080822080547fffffffffffffffffffffffff00000000000000000000000000000000000000001673ffffffffffffffffffffffffffffffffffffffff86811691821790925591518493918716917fddf252ad1be2c89b69c2b068fc378daa952ba7f163c4a11628f55a4df523b3ef91a4505050565b6040805173ffffffffffffffffffffffffffffffffffffffff85811660248301528481166044830152606480830185905283518084039091018152608490920183526020820180517bffffffffffffffffffffffffffffffffffffffffffffffffffffffff167f23b872dd0000000000000000000000000000000000000000000000000000000017905291516000928392908816916120cc91906135d3565b6000604051808303816000865af19150503d8060008114612109576040519150601f19603f3d011682016040523d82523d6000602084013e61210e565b606091505b509150915081801561213857508051158061213857508080602001905181019061213891906135ef565b6121c3576040517f08c379a0000000000000000000000000000000000000000000000000000000008152602060048201526024808201527f5472616e7366657248656c7065723a205452414e534645525f46524f4d5f464160448201527f494c45440000000000000000000000000000000000000000000000000000000060648201526084016106da565b505050505050565b73ffffffffffffffffffffffffffffffffffffffff8216612248576040517f08c379a000000000000000000000000000000000000000000000000000000000815260206004820181905260248201527f4552433732313a206d696e7420746f20746865207a65726f206164647265737360448201526064016106da565b60008181526002602052604090205473ffffffffffffffffffffffffffffffffffffffff16156122d4576040517f08c379a000000000000000000000000000000000000000000000000000000000815260206004820152601c60248201527f4552433732313a20746f6b656e20616c7265616479206d696e7465640000000060448201526064016106da565b73ffffffffffffffffffffffffffffffffffffffff8216600090815260036020526040812080546001929061230a90849061346a565b909155505060008181526002602052604080822080547fffffffffffffffffffffffff00000000000000000000000000000000000000001673ffffffffffffffffffffffffffffffffffffffff861690811790915590518392907fddf252ad1be2c89b69c2b068fc378daa952ba7f163c4a11628f55a4df523b3ef908290a45050565b600080600061239c8585612abb565b909250905060008160048111156123b5576123b561360c565b1480156123ed57508573ffffffffffffffffffffffffffffffffffffffff168273ffffffffffffffffffffffffffffffffffffffff16145b156123fd57600192505050610e65565b6000808773ffffffffffffffffffffffffffffffffffffffff16631626ba7e60e01b888860405160240161243292919061363b565b604080517fffffffffffffffffffffffffffffffffffffffffffffffffffffffffffffffe08184030181529181526020820180517bffffffffffffffffffffffffffffffffffffffffffffffffffffffff167fffffffff000000000000000000000000000000000000000000000000000000009094169390931790925290516124bb91906135d3565b600060405180830381855afa9150503d80600081146124f6576040519150601f19603f3d011682016040523d82523d6000602084013e6124fb565b606091505b509150915081801561250e575080516020145b8015611671575080517f1626ba7e000000000000000000000000000000000000000000000000000000009061254c9083016020908101908401613654565b7fffffffff00000000000000000000000000000000000000000000000000000000161498975050505050505050565b600061258682610e6c565b9050612593600083611bb6565b73ffffffffffffffffffffffffffffffffffffffff811660009081526003602052604081208054600192906125c99084906135bc565b909155505060008281526002602052604080822080547fffffffffffffffffffffffff00000000000000000000000000000000000000001690555183919073ffffffffffffffffffffffffffffffffffffffff8416907fddf252ad1be2c89b69c2b068fc378daa952ba7f163c4a11628f55a4df523b3ef908390a45050565b8173ffffffffffffffffffffffffffffffffffffffff168373ffffffffffffffffffffffffffffffffffffffff1614156126de576040517f08c379a000000000000000000000000000000000000000000000000000000000815260206004820152601960248201527f4552433732313a20617070726f766520746f2063616c6c65720000000000000060448201526064016106da565b73ffffffffffffffffffffffffffffffffffffffff83811660008181526005602090815260408083209487168084529482529182902080547fffffffffffffffffffffffffffffffffffffffffffffffffffffffffffffff001686151590811790915591519182527f17307eab39ab6107e8899845ad3d59bd9653f200f220920489ca2b5937696c31910160405180910390a3505050565b612781848484611dc6565b61278d84848484612b2b565b6118c4576040517f08c379a000000000000000000000000000000000000000000000000000000000815260206004820152603260248201527f4552433732313a207472616e7366657220746f206e6f6e20455243373231526560448201527f63656976657220696d706c656d656e746572000000000000000000000000000060648201526084016106da565b60608161285957505060408051808201909152600181527f3000000000000000000000000000000000000000000000000000000000000000602082015290565b8160005b8115612883578061286d81613671565b915061287c9050600a836136d9565b915061285d565b60008167ffffffffffffffff81111561289e5761289e6130c9565b6040519080825280601f01601f1916602001820160405280156128c8576020820181803683370190505b5090505b8415611dbe576128dd6001836135bc565b91506128ea600a866136ed565b6128f590603061346a565b60f81b81838151811061290a5761290a613701565b60200101907effffffffffffffffffffffffffffffffffffffffffffffffffffffffffffff1916908160001a905350612944600a866136d9565b94506128cc565b6040805173ffffffffffffffffffffffffffffffffffffffff8481166024830152604480830185905283518084039091018152606490920183526020820180517bffffffffffffffffffffffffffffffffffffffffffffffffffffffff167fa9059cbb0000000000000000000000000000000000000000000000000000000017905291516000928392908716916129e291906135d3565b6000604051808303816000865af19150503d8060008114612a1f576040519150601f19603f3d011682016040523d82523d6000602084013e612a24565b606091505b5091509150818015612a4e575080511580612a4e575080806020019051810190612a4e91906135ef565b612ab4576040517f08c379a000000000000000000000000000000000000000000000000000000000815260206004820152601f60248201527f5472616e7366657248656c7065723a205452414e534645525f4641494c45440060448201526064016106da565b5050505050565b600080825160411415612af25760208301516040840151606085015160001a612ae687828585612d2a565b94509450505050612b24565b825160401415612b1c5760208301516040840151612b11868383612e42565b935093505050612b24565b506000905060025b9250929050565b600073ffffffffffffffffffffffffffffffffffffffff84163b15612d1f576040517f150b7a0200000000000000000000000000000000000000000000000000000000815273ffffffffffffffffffffffffffffffffffffffff85169063150b7a0290612ba2903390899088908890600401613730565b602060405180830381600087803b158015612bbc57600080fd5b505af1925050508015612c0a575060408051601f3d9081017fffffffffffffffffffffffffffffffffffffffffffffffffffffffffffffffe0168201909252612c0791810190613654565b60015b612cd4573d808015612c38576040519150601f19603f3d011682016040523d82523d6000602084013e612c3d565b606091505b508051612ccc576040517f08c379a000000000000000000000000000000000000000000000000000000000815260206004820152603260248201527f4552433732313a207472616e7366657220746f206e6f6e20455243373231526560448201527f63656976657220696d706c656d656e746572000000000000000000000000000060648201526084016106da565b805181602001fd5b7fffffffff00000000000000000000000000000000000000000000000000000000167f150b7a0200000000000000000000000000000000000000000000000000000000149050611dbe565b506001949350505050565b6000807f7fffffffffffffffffffffffffffffff5d576e7357a4501ddfe92f46681b20a0831115612d615750600090506003612e39565b8460ff16601b14158015612d7957508460ff16601c14155b15612d8a5750600090506004612e39565b6040805160008082526020820180845289905260ff881692820192909252606081018690526080810185905260019060a0016020604051602081039080840390855afa158015612dde573d6000803e3d6000fd5b50506040517fffffffffffffffffffffffffffffffffffffffffffffffffffffffffffffffe0015191505073ffffffffffffffffffffffffffffffffffffffff8116612e3257600060019250925050612e39565b9150600090505b94509492505050565b6000807f7fffffffffffffffffffffffffffffffffffffffffffffffffffffffffffffff831681612e7860ff86901c601b61346a565b9050612e8687828885612d2a565b935093505050935093915050565b828054612ea0906133e7565b90600052602060002090601f016020900481019282612ec25760008555612f08565b82601f10612edb57805160ff1916838001178555612f08565b82800160010185558215612f08579182015b82811115612f08578251825591602001919060010190612eed565b50612f14929150612f18565b5090565b5b80821115612f145760008155600101612f19565b7fffffffff0000000000000000000000000000000000000000000000000000000081168114612f5b57600080fd5b50565b600060208284031215612f7057600080fd5b8135610e6581612f2d565b60005b83811015612f96578181015183820152602001612f7e565b838111156118c45750506000910152565b60008151808452612fbf816020860160208601612f7b565b601f017fffffffffffffffffffffffffffffffffffffffffffffffffffffffffffffffe0169290920160200192915050565b602081526000610e656020830184612fa7565b60006020828403121561301657600080fd5b5035919050565b73ffffffffffffffffffffffffffffffffffffffff81168114612f5b57600080fd5b6000806040838503121561305257600080fd5b823561305d8161301d565b946020939093013593505050565b60006020828403121561307d57600080fd5b8135610e658161301d565b60008060006060848603121561309d57600080fd5b83356130a88161301d565b925060208401356130b88161301d565b929592945050506040919091013590565b7f4e487b7100000000000000000000000000000000000000000000000000000000600052604160045260246000fd5b600082601f83011261310957600080fd5b813567ffffffffffffffff80821115613124576131246130c9565b604051601f83017fffffffffffffffffffffffffffffffffffffffffffffffffffffffffffffffe0908116603f0116810190828211818310171561316a5761316a6130c9565b8160405283815286602085880101111561318357600080fd5b836020870160208301376000602085830101528094505050505092915050565b600080600080608085870312156131b957600080fd5b843593506020850135925060408501359150606085013567ffffffffffffffff8111156131e557600080fd5b6131f1878288016130f8565b91505092959194509250565b60008060006060848603121561321257600080fd5b8335925060208401359150604084013567ffffffffffffffff81111561323757600080fd5b613243868287016130f8565b9150509250925092565b6000806040838503121561326057600080fd5b823567ffffffffffffffff8082111561327857600080fd5b613284868387016130f8565b9350602085013591508082111561329a57600080fd5b506132a7858286016130f8565b9150509250929050565b600080600080600060a086880312156132c957600080fd5b85356132d48161301d565b9450602086013593506040860135925060608601359150608086013567ffffffffffffffff81111561330557600080fd5b613311888289016130f8565b9150509295509295909350565b8015158114612f5b57600080fd5b6000806040838503121561333f57600080fd5b823561334a8161301d565b9150602083013561335a8161331e565b809150509250929050565b6000806000806080858703121561337b57600080fd5b84356133868161301d565b935060208501356133968161301d565b925060408501359150606085013567ffffffffffffffff8111156131e557600080fd5b600080604083850312156133cc57600080fd5b82356133d78161301d565b9150602083013561335a8161301d565b600181811c908216806133fb57607f821691505b60208210811415613435577f4e487b7100000000000000000000000000000000000000000000000000000000600052602260045260246000fd5b50919050565b7f4e487b7100000000000000000000000000000000000000000000000000000000600052601160045260246000fd5b6000821982111561347d5761347d61343b565b500190565b60006020828403121561349457600080fd5b8151610e658161301d565b8054600090600181811c90808316806134b957607f831692505b60208084108214156134f4577f4e487b7100000000000000000000000000000000000000000000000000000000600052602260045260246000fd5b818015613508576001811461353757613564565b7fffffffffffffffffffffffffffffffffffffffffffffffffffffffffffffff00861689528489019650613564565b60008881526020902060005b8681101561355c5781548b820152908501908301613543565b505084890196505b50505050505092915050565b600061357c828661349f565b845161358c818360208901612f7b565b6135988183018661349f565b979650505050505050565b6000602082840312156135b557600080fd5b5051919050565b6000828210156135ce576135ce61343b565b500390565b600082516135e5818460208701612f7b565b9190910192915050565b60006020828403121561360157600080fd5b8151610e658161331e565b7f4e487b7100000000000000000000000000000000000000000000000000000000600052602160045260246000fd5b828152604060208201526000611dbe6040830184612fa7565b60006020828403121561366657600080fd5b8151610e6581612f2d565b60007fffffffffffffffffffffffffffffffffffffffffffffffffffffffffffffffff8214156136a3576136a361343b565b5060010190565b7f4e487b7100000000000000000000000000000000000000000000000000000000600052601260045260246000fd5b6000826136e8576136e86136aa565b500490565b6000826136fc576136fc6136aa565b500690565b7f4e487b7100000000000000000000000000000000000000000000000000000000600052603260045260246000fd5b600073ffffffffffffffffffffffffffffffffffffffff80871683528086166020840152508360408301526080606083015261376f6080830184612fa7565b969550505050505056fea164736f6c6343000809000a",
  "linkReferences": {},
  "deployedLinkReferences": {}
}