{
  "_format": "hh-sol-artifact-1",
  "contractName": "Props721",
  "sourceName": "contracts/Props721.sol",
  "abi": [
    {
      "inputs": [
        {
          "internalType": "string",
          "name": "name_",
          "type": "string"
        },
        {
          "internalType": "string",
          "name": "symbol_",
          "type": "string"
        },
        {
          "internalType": "string",
          "name": "baseURI_",
          "type": "string"
        },
        {
          "internalType": "string",
          "name": "suffix_",
          "type": "string"
        },
        {
          "internalType": "address",
          "name": "signer_",
          "type": "address"
        },
        {
          "internalType": "address",
          "name": "consumeToken_",
          "type": "address"
        }
      ],
      "stateMutability": "nonpayable",
      "type": "constructor"
    },
    {
      "anonymous": false,
      "inputs": [
        {
          "indexed": true,
          "internalType": "address",
          "name": "owner",
          "type": "address"
        },
        {
          "indexed": true,
          "internalType": "address",
          "name": "approved",
          "type": "address"
        },
        {
          "indexed": true,
          "internalType": "uint256",
          "name": "tokenId",
          "type": "uint256"
        }
      ],
      "name": "Approval",
      "type": "event"
    },
    {
      "anonymous": false,
      "inputs": [
        {
          "indexed": true,
          "internalType": "address",
          "name": "owner",
          "type": "address"
        },
        {
          "indexed": true,
          "internalType": "address",
          "name": "operator",
          "type": "address"
        },
        {
          "indexed": false,
          "internalType": "bool",
          "name": "approved",
          "type": "bool"
        }
      ],
      "name": "ApprovalForAll",
      "type": "event"
    },
    {
      "anonymous": false,
      "inputs": [
        {
          "indexed": true,
          "internalType": "address",
          "name": "_user",
          "type": "address"
        },
        {
          "indexed": true,
          "internalType": "address",
          "name": "_old",
          "type": "address"
        },
        {
          "indexed": true,
          "internalType": "address",
          "name": "_new",
          "type": "address"
        }
      ],
      "name": "ConfigChanged",
      "type": "event"
    },
    {
      "anonymous": false,
      "inputs": [
        {
          "indexed": true,
          "internalType": "address",
          "name": "user",
          "type": "address"
        },
        {
          "indexed": false,
          "internalType": "uint256",
          "name": "orderId",
          "type": "uint256"
        },
        {
          "indexed": false,
          "internalType": "uint256",
          "name": "propId",
          "type": "uint256"
        },
        {
          "indexed": false,
          "internalType": "uint256",
          "name": "tokenId",
          "type": "uint256"
        }
      ],
      "name": "Create",
      "type": "event"
    },
    {
      "anonymous": false,
      "inputs": [
        {
          "indexed": true,
          "internalType": "address",
          "name": "user",
          "type": "address"
        },
        {
          "indexed": false,
          "internalType": "uint256",
          "name": "tokenId",
          "type": "uint256"
        }
      ],
      "name": "Destroy",
      "type": "event"
    },
    {
      "anonymous": false,
      "inputs": [
        {
          "indexed": true,
          "internalType": "address",
          "name": "_user",
          "type": "address"
        },
        {
          "indexed": true,
          "internalType": "address",
          "name": "_old",
          "type": "address"
        },
        {
          "indexed": true,
          "internalType": "address",
          "name": "_new",
          "type": "address"
        }
      ],
      "name": "OwnerChanged",
      "type": "event"
    },
    {
      "anonymous": false,
      "inputs": [
        {
          "indexed": true,
          "internalType": "address",
          "name": "from",
          "type": "address"
        },
        {
          "indexed": true,
          "internalType": "address",
          "name": "to",
          "type": "address"
        },
        {
          "indexed": true,
          "internalType": "uint256",
          "name": "tokenId",
          "type": "uint256"
        }
      ],
      "name": "Transfer",
      "type": "event"
    },
    {
      "inputs": [],
      "name": "admin",
      "outputs": [
        {
          "internalType": "address",
          "name": "",
          "type": "address"
        }
      ],
      "stateMutability": "view",
      "type": "function"
    },
    {
      "inputs": [
        {
          "internalType": "address",
          "name": "to",
          "type": "address"
        },
        {
          "internalType": "uint256",
          "name": "tokenId",
          "type": "uint256"
        }
      ],
      "name": "approve",
      "outputs": [],
      "stateMutability": "nonpayable",
      "type": "function"
    },
    {
      "inputs": [
        {
          "internalType": "address",
          "name": "owner",
          "type": "address"
        }
      ],
      "name": "balanceOf",
      "outputs": [
        {
          "internalType": "uint256",
          "name": "",
          "type": "uint256"
        }
      ],
      "stateMutability": "view",
      "type": "function"
    },
    {
      "inputs": [],
      "name": "baseURI",
      "outputs": [
        {
          "internalType": "string",
          "name": "",
          "type": "string"
        }
      ],
      "stateMutability": "view",
      "type": "function"
    },
    {
      "inputs": [
        {
          "internalType": "uint256",
          "name": "tokenId",
          "type": "uint256"
        },
        {
          "internalType": "uint256",
          "name": "consumeAmount",
          "type": "uint256"
        },
        {
          "internalType": "bytes",
          "name": "signature",
          "type": "bytes"
        }
      ],
      "name": "burn",
      "outputs": [],
      "stateMutability": "nonpayable",
      "type": "function"
    },
    {
      "inputs": [
        {
          "internalType": "address",
          "name": "_user",
          "type": "address"
        }
      ],
      "name": "changeOwner",
      "outputs": [],
      "stateMutability": "nonpayable",
      "type": "function"
    },
    {
      "inputs": [],
      "name": "config",
      "outputs": [
        {
          "internalType": "address",
          "name": "",
          "type": "address"
        }
      ],
      "stateMutability": "view",
      "type": "function"
    },
    {
      "inputs": [],
      "name": "consumeToken",
      "outputs": [
        {
          "internalType": "address",
          "name": "",
          "type": "address"
        }
      ],
      "stateMutability": "view",
      "type": "function"
    },
    {
      "inputs": [],
      "name": "dev",
      "outputs": [
        {
          "internalType": "address",
          "name": "",
          "type": "address"
        }
      ],
      "stateMutability": "view",
      "type": "function"
    },
    {
      "inputs": [
        {
          "internalType": "uint256",
          "name": "tokenId",
          "type": "uint256"
        }
      ],
      "name": "getApproved",
      "outputs": [
        {
          "internalType": "address",
          "name": "",
          "type": "address"
        }
      ],
      "stateMutability": "view",
      "type": "function"
    },
    {
      "inputs": [
        {
          "internalType": "address",
          "name": "owner",
          "type": "address"
        },
        {
          "internalType": "address",
          "name": "operator",
          "type": "address"
        }
      ],
      "name": "isApprovedForAll",
      "outputs": [
        {
          "internalType": "bool",
          "name": "",
          "type": "bool"
        }
      ],
      "stateMutability": "view",
      "type": "function"
    },
    {
      "inputs": [
        {
          "internalType": "uint256",
          "name": "expiryTime",
          "type": "uint256"
        },
        {
          "internalType": "uint256",
          "name": "orderId",
          "type": "uint256"
        },
        {
          "internalType": "uint256",
          "name": "propId",
          "type": "uint256"
        },
        {
          "internalType": "uint256",
          "name": "consumeAmount",
          "type": "uint256"
        },
        {
          "internalType": "bytes",
          "name": "signature",
          "type": "bytes"
        }
      ],
      "name": "mint",
      "outputs": [],
      "stateMutability": "nonpayable",
      "type": "function"
    },
    {
      "inputs": [],
      "name": "name",
      "outputs": [
        {
          "internalType": "string",
          "name": "",
          "type": "string"
        }
      ],
      "stateMutability": "view",
      "type": "function"
    },
    {
      "inputs": [],
      "name": "owner",
      "outputs": [
        {
          "internalType": "address",
          "name": "",
          "type": "address"
        }
      ],
      "stateMutability": "view",
      "type": "function"
    },
    {
      "inputs": [
        {
          "internalType": "uint256",
          "name": "tokenId",
          "type": "uint256"
        }
      ],
      "name": "ownerOf",
      "outputs": [
        {
          "internalType": "address",
          "name": "",
          "type": "address"
        }
      ],
      "stateMutability": "view",
      "type": "function"
    },
    {
      "inputs": [
        {
          "internalType": "address",
          "name": "from",
          "type": "address"
        },
        {
          "internalType": "address",
          "name": "to",
          "type": "address"
        },
        {
          "internalType": "uint256",
          "name": "tokenId",
          "type": "uint256"
        }
      ],
      "name": "safeTransferFrom",
      "outputs": [],
      "stateMutability": "nonpayable",
      "type": "function"
    },
    {
      "inputs": [
        {
          "internalType": "address",
          "name": "from",
          "type": "address"
        },
        {
          "internalType": "address",
          "name": "to",
          "type": "address"
        },
        {
          "internalType": "uint256",
          "name": "tokenId",
          "type": "uint256"
        },
        {
          "internalType": "bytes",
          "name": "_data",
          "type": "bytes"
        }
      ],
      "name": "safeTransferFrom",
      "outputs": [],
      "stateMutability": "nonpayable",
      "type": "function"
    },
    {
      "inputs": [
        {
          "internalType": "address",
          "name": "operator",
          "type": "address"
        },
        {
          "internalType": "bool",
          "name": "approved",
          "type": "bool"
        }
      ],
      "name": "setApprovalForAll",
      "outputs": [],
      "stateMutability": "nonpayable",
      "type": "function"
    },
    {
      "inputs": [
        {
          "internalType": "string",
          "name": "baseURI_",
          "type": "string"
        },
        {
          "internalType": "string",
          "name": "suffix_",
          "type": "string"
        }
      ],
      "name": "setBaseURI",
      "outputs": [],
      "stateMutability": "nonpayable",
      "type": "function"
    },
    {
      "inputs": [
        {
          "internalType": "address",
          "name": "consumeToken_",
          "type": "address"
        }
      ],
      "name": "setConsumeToken",
      "outputs": [],
      "stateMutability": "nonpayable",
      "type": "function"
    },
    {
      "inputs": [
        {
          "internalType": "address",
          "name": "signer_",
          "type": "address"
        }
      ],
      "name": "setSigner",
      "outputs": [],
      "stateMutability": "nonpayable",
      "type": "function"
    },
    {
      "inputs": [
        {
          "internalType": "address",
          "name": "_config",
          "type": "address"
        }
      ],
      "name": "setupConfig",
      "outputs": [],
      "stateMutability": "nonpayable",
      "type": "function"
    },
    {
      "inputs": [],
      "name": "signer",
      "outputs": [
        {
          "internalType": "address",
          "name": "",
          "type": "address"
        }
      ],
      "stateMutability": "view",
      "type": "function"
    },
    {
      "inputs": [],
      "name": "suffix",
      "outputs": [
        {
          "internalType": "string",
          "name": "",
          "type": "string"
        }
      ],
      "stateMutability": "view",
      "type": "function"
    },
    {
      "inputs": [
        {
          "internalType": "bytes4",
          "name": "interfaceId",
          "type": "bytes4"
        }
      ],
      "name": "supportsInterface",
      "outputs": [
        {
          "internalType": "bool",
          "name": "",
          "type": "bool"
        }
      ],
      "stateMutability": "view",
      "type": "function"
    },
    {
      "inputs": [],
      "name": "symbol",
      "outputs": [
        {
          "internalType": "string",
          "name": "",
          "type": "string"
        }
      ],
      "stateMutability": "view",
      "type": "function"
    },
    {
      "inputs": [
        {
          "internalType": "uint256",
          "name": "tokenId",
          "type": "uint256"
        }
      ],
      "name": "tokenURI",
      "outputs": [
        {
          "internalType": "string",
          "name": "",
          "type": "string"
        }
      ],
      "stateMutability": "view",
      "type": "function"
    },
    {
      "inputs": [
        {
          "internalType": "address",
          "name": "from",
          "type": "address"
        },
        {
          "internalType": "address",
          "name": "to",
          "type": "address"
        },
        {
          "internalType": "uint256",
          "name": "tokenId",
          "type": "uint256"
        }
      ],
      "name": "transferFrom",
      "outputs": [],
      "stateMutability": "nonpayable",
      "type": "function"
    },
    {
      "inputs": [
        {
          "internalType": "uint256",
          "name": "tokenId",
          "type": "uint256"
        },
        {
          "internalType": "uint256",
          "name": "consumeAmount",
          "type": "uint256"
        },
        {
          "internalType": "bytes",
          "name": "signature",
          "type": "bytes"
        }
      ],
      "name": "verifyBurn",
      "outputs": [
        {
          "internalType": "bool",
          "name": "",
          "type": "bool"
        }
      ],
      "stateMutability": "view",
      "type": "function"
    },
    {
      "inputs": [
        {
          "internalType": "address",
          "name": "account",
          "type": "address"
        },
        {
          "internalType": "uint256",
          "name": "expiryTime",
          "type": "uint256"
        },
        {
          "internalType": "uint256",
          "name": "orderId",
          "type": "uint256"
        },
        {
          "internalType": "uint256",
          "name": "propId",
          "type": "uint256"
        },
        {
          "internalType": "uint256",
          "name": "consumeAmount",
          "type": "uint256"
        },
        {
          "internalType": "bytes",
          "name": "signature",
          "type": "bytes"
        }
      ],
      "name": "verifyMint",
      "outputs": [
        {
          "internalType": "bool",
          "name": "",
          "type": "bool"
        }
      ],
      "stateMutability": "view",
      "type": "function"
    },
    {
      "inputs": [
        {
          "internalType": "address",
          "name": "token",
          "type": "address"
        },
        {
          "internalType": "address",
          "name": "to",
          "type": "address"
        },
        {
          "internalType": "uint256",
          "name": "amount",
          "type": "uint256"
        }
      ],
      "name": "withdraw",
      "outputs": [],
      "stateMutability": "nonpayable",
      "type": "function"
    }
  ],
  "bytecode": "0x60806040526001600c553480156200001657600080fd5b5060405162003c5438038062003c548339810160408190526200003991620002b7565b8551869086906200005290600090602085019062000127565b5080516200006890600190602084019062000127565b5050506001600160a01b038216620000b55760405162461bcd60e51b815260206004820152600c60248201526b5a65726f206164647265737360a01b604482015260640160405180910390fd5b60078054336001600160a01b0319918216179091556008805482166001600160a01b03848116919091179091556009805490921690841617905583516200010490600a90602087019062000127565b5082516200011a90600b90602086019062000127565b50505050505050620003d1565b828054620001359062000394565b90600052602060002090601f016020900481019282620001595760008555620001a4565b82601f106200017457805160ff1916838001178555620001a4565b82800160010185558215620001a4579182015b82811115620001a457825182559160200191906001019062000187565b50620001b2929150620001b6565b5090565b5b80821115620001b25760008155600101620001b7565b634e487b7160e01b600052604160045260246000fd5b600082601f830112620001f557600080fd5b81516001600160401b0380821115620002125762000212620001cd565b604051601f8301601f19908116603f011681019082821181831017156200023d576200023d620001cd565b816040528381526020925086838588010111156200025a57600080fd5b600091505b838210156200027e57858201830151818301840152908201906200025f565b83821115620002905760008385830101525b9695505050505050565b80516001600160a01b0381168114620002b257600080fd5b919050565b60008060008060008060c08789031215620002d157600080fd5b86516001600160401b0380821115620002e957600080fd5b620002f78a838b01620001e3565b975060208901519150808211156200030e57600080fd5b6200031c8a838b01620001e3565b965060408901519150808211156200033357600080fd5b620003418a838b01620001e3565b955060608901519150808211156200035857600080fd5b506200036789828a01620001e3565b93505062000378608088016200029a565b91506200038860a088016200029a565b90509295509295509295565b600181811c90821680620003a957607f821691505b60208210811415620003cb57634e487b7160e01b600052602260045260246000fd5b50919050565b61387380620003e16000396000f3fe608060405234801561001057600080fd5b50600436106101e55760003560e01c806370a082311161010f578063a6f9dae1116100a2578063e985e9c511610071578063e985e9c51461044a578063f7073c3a14610493578063f851a4401461049b578063f8ea8f16146104a357600080fd5b8063a6f9dae1146103fe578063b88d4fde14610411578063c87b56dd14610424578063d9caed121461043757600080fd5b80638da5cb5b116100de5780638da5cb5b146103bb57806391cca3db146103db57806395d89b41146103e3578063a22cb465146103eb57600080fd5b806370a082311461035457806375d2bd581461037557806379502c551461038857806380a5a371146103a857600080fd5b806335691b56116101875780636352211e116101565780636352211e146103135780636790a9de146103265780636c0360eb146103395780636c19e7831461034157600080fd5b806335691b56146102ba5780633d50f2e0146102da57806342842e0e146102ed5780635f7464841461030057600080fd5b8063095ea7b3116101c3578063095ea7b31461025f5780631052566014610274578063238ac9331461028757806323b872dd146102a757600080fd5b806301ffc9a7146101ea57806306fdde0314610212578063081812fc14610227575b600080fd5b6101fd6101f8366004613021565b6104b6565b60405190151581526020015b60405180910390f35b61021a61059b565b60405161020991906130b4565b61023a6102353660046130c7565b61062d565b60405173ffffffffffffffffffffffffffffffffffffffff9091168152602001610209565b61027261026d366004613102565b61070c565b005b61027261028236600461312e565b610899565b60095461023a9073ffffffffffffffffffffffffffffffffffffffff1681565b6102726102b536600461314b565b610a23565b60085461023a9073ffffffffffffffffffffffffffffffffffffffff1681565b6102726102e836600461312e565b610ac4565b6102726102fb36600461314b565b610bd5565b6101fd61030e366004613266565b610bf0565b61023a6103213660046130c7565b610cfe565b6102726103343660046132b6565b610db0565b61021a610e95565b61027261034f36600461312e565b610f23565b61036761036236600461312e565b6110ad565b604051908152602001610209565b6101fd61038336600461331a565b61117b565b60065461023a9073ffffffffffffffffffffffffffffffffffffffff1681565b6102726103b6366004613266565b611299565b60075461023a9073ffffffffffffffffffffffffffffffffffffffff1681565b61023a611425565b61021a611508565b6102726103f936600461339d565b611517565b61027261040c36600461312e565b611526565b61027261041f3660046133d6565b6116bc565b61021a6104323660046130c7565b611764565b61027261044536600461314b565b611827565b6101fd610458366004613442565b73ffffffffffffffffffffffffffffffffffffffff918216600090815260056020908152604080832093909416825291909152205460ff1690565b61021a6119ba565b61023a6119c7565b6102726104b1366004613470565b611a50565b60007fffffffff0000000000000000000000000000000000000000000000000000000082167f80ac58cd00000000000000000000000000000000000000000000000000000000148061054957507fffffffff0000000000000000000000000000000000000000000000000000000082167f5b5e139f00000000000000000000000000000000000000000000000000000000145b8061059557507f01ffc9a7000000000000000000000000000000000000000000000000000000007fffffffff000000000000000000000000000000000000000000000000000000008316145b92915050565b6060600080546105aa906134d4565b80601f01602080910402602001604051908101604052809291908181526020018280546105d6906134d4565b80156106235780601f106105f857610100808354040283529160200191610623565b820191906000526020600020905b81548152906001019060200180831161060657829003601f168201915b5050505050905090565b60008181526002602052604081205473ffffffffffffffffffffffffffffffffffffffff166106e3576040517f08c379a000000000000000000000000000000000000000000000000000000000815260206004820152602c60248201527f4552433732313a20617070726f76656420717565727920666f72206e6f6e657860448201527f697374656e7420746f6b656e000000000000000000000000000000000000000060648201526084015b60405180910390fd5b5060009081526004602052604090205473ffffffffffffffffffffffffffffffffffffffff1690565b600061071782610cfe565b90508073ffffffffffffffffffffffffffffffffffffffff168373ffffffffffffffffffffffffffffffffffffffff1614156107d5576040517f08c379a000000000000000000000000000000000000000000000000000000000815260206004820152602160248201527f4552433732313a20617070726f76616c20746f2063757272656e74206f776e6560448201527f720000000000000000000000000000000000000000000000000000000000000060648201526084016106da565b3373ffffffffffffffffffffffffffffffffffffffff821614806107fe57506107fe8133610458565b61088a576040517f08c379a000000000000000000000000000000000000000000000000000000000815260206004820152603860248201527f4552433732313a20617070726f76652063616c6c6572206973206e6f74206f7760448201527f6e6572206e6f7220617070726f76656420666f7220616c6c000000000000000060648201526084016106da565b6108948383611c78565b505050565b6108a1611425565b73ffffffffffffffffffffffffffffffffffffffff163373ffffffffffffffffffffffffffffffffffffffff1614806108f1575060075473ffffffffffffffffffffffffffffffffffffffff1633145b610957576040517f08c379a000000000000000000000000000000000000000000000000000000000815260206004820152600d60248201527f64657620464f5242494444454e0000000000000000000000000000000000000060448201526064016106da565b60085473ffffffffffffffffffffffffffffffffffffffff828116911614156109dc576040517f08c379a000000000000000000000000000000000000000000000000000000000815260206004820152601260248201527f5468657265206973206e6f206368616e6765000000000000000000000000000060448201526064016106da565b600880547fffffffffffffffffffffffff00000000000000000000000000000000000000001673ffffffffffffffffffffffffffffffffffffffff92909216919091179055565b610a2d3382611d18565b610ab9576040517f08c379a000000000000000000000000000000000000000000000000000000000815260206004820152603160248201527f4552433732313a207472616e736665722063616c6c6572206973206e6f74206f60448201527f776e6572206e6f7220617070726f76656400000000000000000000000000000060648201526084016106da565b610894838383611e88565b60075473ffffffffffffffffffffffffffffffffffffffff163314610b45576040517f08c379a000000000000000000000000000000000000000000000000000000000815260206004820152600f60248201527f4f574e455220464f5242494444454e000000000000000000000000000000000060448201526064016106da565b60065460405173ffffffffffffffffffffffffffffffffffffffff80841692169033907f1c9f92ac4e71628bcbcaa06d364d40e010aef535184545a709e14cced8ac2d3c90600090a4600680547fffffffffffffffffffffffff00000000000000000000000000000000000000001673ffffffffffffffffffffffffffffffffffffffff92909216919091179055565b610894838383604051806020016040528060008152506116bc565b600080848430604051602001610c3e93929190928352602083019190915260601b7fffffffffffffffffffffffffffffffffffffffff00000000000000000000000016604082015260540190565b604051602081830303815290604052805190602001209050600081604051602001610c9591907f19457468657265756d205369676e6564204d6573736167653a0a3332000000008152601c810191909152603c0190565b604080517fffffffffffffffffffffffffffffffffffffffffffffffffffffffffffffffe08184030181529190528051602090910120600954909150610cf29073ffffffffffffffffffffffffffffffffffffffff1682866120ef565b925050505b9392505050565b60008181526002602052604081205473ffffffffffffffffffffffffffffffffffffffff1680610595576040517f08c379a000000000000000000000000000000000000000000000000000000000815260206004820152602960248201527f4552433732313a206f776e657220717565727920666f72206e6f6e657869737460448201527f656e7420746f6b656e000000000000000000000000000000000000000000000060648201526084016106da565b610db8611425565b73ffffffffffffffffffffffffffffffffffffffff163373ffffffffffffffffffffffffffffffffffffffff161480610e08575060075473ffffffffffffffffffffffffffffffffffffffff1633145b610e6e576040517f08c379a000000000000000000000000000000000000000000000000000000000815260206004820152600d60248201527f64657620464f5242494444454e0000000000000000000000000000000000000060448201526064016106da565b8151610e8190600a906020850190612f57565b50805161089490600b906020840190612f57565b600a8054610ea2906134d4565b80601f0160208091040260200160405190810160405280929190818152602001828054610ece906134d4565b8015610f1b5780601f10610ef057610100808354040283529160200191610f1b565b820191906000526020600020905b815481529060010190602001808311610efe57829003601f168201915b505050505081565b610f2b611425565b73ffffffffffffffffffffffffffffffffffffffff163373ffffffffffffffffffffffffffffffffffffffff161480610f7b575060075473ffffffffffffffffffffffffffffffffffffffff1633145b610fe1576040517f08c379a000000000000000000000000000000000000000000000000000000000815260206004820152600d60248201527f64657620464f5242494444454e0000000000000000000000000000000000000060448201526064016106da565b60095473ffffffffffffffffffffffffffffffffffffffff82811691161415611066576040517f08c379a000000000000000000000000000000000000000000000000000000000815260206004820152601260248201527f5468657265206973206e6f206368616e6765000000000000000000000000000060448201526064016106da565b600980547fffffffffffffffffffffffff00000000000000000000000000000000000000001673ffffffffffffffffffffffffffffffffffffffff92909216919091179055565b600073ffffffffffffffffffffffffffffffffffffffff8216611152576040517f08c379a000000000000000000000000000000000000000000000000000000000815260206004820152602a60248201527f4552433732313a2062616c616e636520717565727920666f7220746865207a6560448201527f726f20616464726573730000000000000000000000000000000000000000000060648201526084016106da565b5073ffffffffffffffffffffffffffffffffffffffff1660009081526003602052604090205490565b6040517fffffffffffffffffffffffffffffffffffffffff000000000000000000000000606088811b821660208401526034830188905260548301879052607483018690526094830185905230901b1660b4820152600090819060c80160405160208183030381529060405280519060200120905060008160405160200161122f91907f19457468657265756d205369676e6564204d6573736167653a0a3332000000008152601c810191909152603c0190565b604080517fffffffffffffffffffffffffffffffffffffffffffffffffffffffffffffffe0818403018152919052805160209091012060095490915061128c9073ffffffffffffffffffffffffffffffffffffffff1682866120ef565b9998505050505050505050565b6112a4838383610bf0565b61130a576040517f08c379a000000000000000000000000000000000000000000000000000000000815260206004820152601160248201527f496e76616c6964207369676e617475726500000000000000000000000000000060448201526064016106da565b3361131484610cfe565b73ffffffffffffffffffffffffffffffffffffffff16146113b7576040517f08c379a000000000000000000000000000000000000000000000000000000000815260206004820152602260248201527f43616c6c6572206973206e6f7420746865206f776e6572206f6620746f6b656e60448201527f496400000000000000000000000000000000000000000000000000000000000060648201526084016106da565b81156113e2576008546113e29073ffffffffffffffffffffffffffffffffffffffff163330856122de565b6113eb8361247c565b60405183815233907f81325e2a6c442af9d36e4ee9697f38d5f4bf0837ade0f6c411c6a40af7c057ee9060200160405180910390a2505050565b60065460009073ffffffffffffffffffffffffffffffffffffffff16156114eb57600660009054906101000a900473ffffffffffffffffffffffffffffffffffffffff1673ffffffffffffffffffffffffffffffffffffffff166391cca3db6040518163ffffffff1660e01b815260040160206040518083038186803b1580156114ae57600080fd5b505afa1580156114c2573d6000803e3d6000fd5b505050506040513d601f19601f820116820180604052508101906114e69190613528565b905090565b5060075473ffffffffffffffffffffffffffffffffffffffff1690565b6060600180546105aa906134d4565b611522338383612549565b5050565b60075473ffffffffffffffffffffffffffffffffffffffff1633146115a7576040517f08c379a000000000000000000000000000000000000000000000000000000000815260206004820152600f60248201527f4f574e455220464f5242494444454e000000000000000000000000000000000060448201526064016106da565b60075473ffffffffffffffffffffffffffffffffffffffff8281169116141561162c576040517f08c379a000000000000000000000000000000000000000000000000000000000815260206004820152601060248201527f4f776e65723a204e4f204348414e47450000000000000000000000000000000060448201526064016106da565b60075460405173ffffffffffffffffffffffffffffffffffffffff80841692169033907f381c0d11398486654573703c51ee8210ce9461764d133f9f0e53b6a53970533190600090a4600780547fffffffffffffffffffffffff00000000000000000000000000000000000000001673ffffffffffffffffffffffffffffffffffffffff92909216919091179055565b6116c63383611d18565b611752576040517f08c379a000000000000000000000000000000000000000000000000000000000815260206004820152603160248201527f4552433732313a207472616e736665722063616c6c6572206973206e6f74206f60448201527f776e6572206e6f7220617070726f76656400000000000000000000000000000060648201526084016106da565b61175e84848484612677565b50505050565b60008181526002602052604090205460609073ffffffffffffffffffffffffffffffffffffffff166117f2576040517f08c379a000000000000000000000000000000000000000000000000000000000815260206004820152601660248201527f546f6b656e496420646f6573206e6f742065786973740000000000000000000060448201526064016106da565b600a6117fd8361271a565b600b60405160200161181193929190613616565b6040516020818303038152906040529050919050565b60075473ffffffffffffffffffffffffffffffffffffffff1633146118a8576040517f08c379a000000000000000000000000000000000000000000000000000000000815260206004820152600f60248201527f4f574e455220464f5242494444454e000000000000000000000000000000000060448201526064016106da565b6040517f70a08231000000000000000000000000000000000000000000000000000000008152306004820152819073ffffffffffffffffffffffffffffffffffffffff8516906370a082319060240160206040518083038186803b15801561190f57600080fd5b505afa158015611923573d6000803e3d6000fd5b505050506040513d601f19601f820116820180604052508101906119479190613649565b10156119af576040517f08c379a000000000000000000000000000000000000000000000000000000000815260206004820152601460248201527f496e73756666696369656e742062616c616e636500000000000000000000000060448201526064016106da565b61089483838361284c565b600b8054610ea2906134d4565b60065460009073ffffffffffffffffffffffffffffffffffffffff16156114eb57600660009054906101000a900473ffffffffffffffffffffffffffffffffffffffff1673ffffffffffffffffffffffffffffffffffffffff1663f851a4406040518163ffffffff1660e01b815260040160206040518083038186803b1580156114ae57600080fd5b428511611ab9576040517f08c379a000000000000000000000000000000000000000000000000000000000815260206004820152601560248201527f5369676e6174757265206861732065787069726564000000000000000000000060448201526064016106da565b6000848152600d602052604090205460ff1615611b32576040517f08c379a000000000000000000000000000000000000000000000000000000000815260206004820152601660248201527f4f72646572496420616c7265616479206578697374730000000000000000000060448201526064016106da565b611b4033868686868661117b565b611ba6576040517f08c379a000000000000000000000000000000000000000000000000000000000815260206004820152601160248201527f496e76616c6964207369676e617475726500000000000000000000000000000060448201526064016106da565b6000848152600d6020526040902080547fffffffffffffffffffffffffffffffffffffffffffffffffffffffffffffff001660011790558115611c0857600854611c089073ffffffffffffffffffffffffffffffffffffffff163330856122de565b600c54611c1533826129bc565b6001600c6000828254611c289190613691565b9091555050604080518681526020810186905290810182905233907fe3a07e2ac405f9c908f600ba464ed28dd28f04e308ccc0610a33ca7ed1c59abb9060600160405180910390a2505050505050565b600081815260046020526040902080547fffffffffffffffffffffffff00000000000000000000000000000000000000001673ffffffffffffffffffffffffffffffffffffffff84169081179091558190611cd282610cfe565b73ffffffffffffffffffffffffffffffffffffffff167f8c5be1e5ebec7d5bd14f71427d1e84f3dd0314c0f7b2291e5b200ac8c7c3b92560405160405180910390a45050565b60008181526002602052604081205473ffffffffffffffffffffffffffffffffffffffff16611dc9576040517f08c379a000000000000000000000000000000000000000000000000000000000815260206004820152602c60248201527f4552433732313a206f70657261746f7220717565727920666f72206e6f6e657860448201527f697374656e7420746f6b656e000000000000000000000000000000000000000060648201526084016106da565b6000611dd483610cfe565b90508073ffffffffffffffffffffffffffffffffffffffff168473ffffffffffffffffffffffffffffffffffffffff161480611e4357508373ffffffffffffffffffffffffffffffffffffffff16611e2b8461062d565b73ffffffffffffffffffffffffffffffffffffffff16145b80611e80575073ffffffffffffffffffffffffffffffffffffffff80821660009081526005602090815260408083209388168352929052205460ff165b949350505050565b8273ffffffffffffffffffffffffffffffffffffffff16611ea882610cfe565b73ffffffffffffffffffffffffffffffffffffffff1614611f4b576040517f08c379a000000000000000000000000000000000000000000000000000000000815260206004820152602560248201527f4552433732313a207472616e736665722066726f6d20696e636f72726563742060448201527f6f776e657200000000000000000000000000000000000000000000000000000060648201526084016106da565b73ffffffffffffffffffffffffffffffffffffffff8216611fed576040517f08c379a0000000000000000000000000000000000000000000000000000000008152602060048201526024808201527f4552433732313a207472616e7366657220746f20746865207a65726f2061646460448201527f726573730000000000000000000000000000000000000000000000000000000060648201526084016106da565b611ff8600082611c78565b73ffffffffffffffffffffffffffffffffffffffff8316600090815260036020526040812080546001929061202e9084906136a9565b909155505073ffffffffffffffffffffffffffffffffffffffff82166000908152600360205260408120805460019290612069908490613691565b909155505060008181526002602052604080822080547fffffffffffffffffffffffff00000000000000000000000000000000000000001673ffffffffffffffffffffffffffffffffffffffff86811691821790925591518493918716917fddf252ad1be2c89b69c2b068fc378daa952ba7f163c4a11628f55a4df523b3ef91a4505050565b60008060006120fe8585612b7e565b90925090506000816004811115612117576121176136c0565b14801561214f57508573ffffffffffffffffffffffffffffffffffffffff168273ffffffffffffffffffffffffffffffffffffffff16145b1561215f57600192505050610cf7565b6000808773ffffffffffffffffffffffffffffffffffffffff16631626ba7e60e01b88886040516024016121949291906136ef565b604080517fffffffffffffffffffffffffffffffffffffffffffffffffffffffffffffffe08184030181529181526020820180517bffffffffffffffffffffffffffffffffffffffffffffffffffffffff167fffffffff0000000000000000000000000000000000000000000000000000000090941693909317909252905161221d9190613708565b600060405180830381855afa9150503d8060008114612258576040519150601f19603f3d011682016040523d82523d6000602084013e61225d565b606091505b5091509150818015612270575080516020145b80156122d2575080517f1626ba7e00000000000000000000000000000000000000000000000000000000906122ae9083016020908101908401613724565b7fffffffff0000000000000000000000000000000000000000000000000000000016145b98975050505050505050565b6040805173ffffffffffffffffffffffffffffffffffffffff85811660248301528481166044830152606480830185905283518084039091018152608490920183526020820180517bffffffffffffffffffffffffffffffffffffffffffffffffffffffff167f23b872dd00000000000000000000000000000000000000000000000000000000179052915160009283929088169161237d9190613708565b6000604051808303816000865af19150503d80600081146123ba576040519150601f19603f3d011682016040523d82523d6000602084013e6123bf565b606091505b50915091508180156123e95750805115806123e95750808060200190518101906123e99190613741565b612474576040517f08c379a0000000000000000000000000000000000000000000000000000000008152602060048201526024808201527f5472616e7366657248656c7065723a205452414e534645525f46524f4d5f464160448201527f494c45440000000000000000000000000000000000000000000000000000000060648201526084016106da565b505050505050565b600061248782610cfe565b9050612494600083611c78565b73ffffffffffffffffffffffffffffffffffffffff811660009081526003602052604081208054600192906124ca9084906136a9565b909155505060008281526002602052604080822080547fffffffffffffffffffffffff00000000000000000000000000000000000000001690555183919073ffffffffffffffffffffffffffffffffffffffff8416907fddf252ad1be2c89b69c2b068fc378daa952ba7f163c4a11628f55a4df523b3ef908390a45050565b8173ffffffffffffffffffffffffffffffffffffffff168373ffffffffffffffffffffffffffffffffffffffff1614156125df576040517f08c379a000000000000000000000000000000000000000000000000000000000815260206004820152601960248201527f4552433732313a20617070726f766520746f2063616c6c65720000000000000060448201526064016106da565b73ffffffffffffffffffffffffffffffffffffffff83811660008181526005602090815260408083209487168084529482529182902080547fffffffffffffffffffffffffffffffffffffffffffffffffffffffffffffff001686151590811790915591519182527f17307eab39ab6107e8899845ad3d59bd9653f200f220920489ca2b5937696c31910160405180910390a3505050565b612682848484611e88565b61268e84848484612bee565b61175e576040517f08c379a000000000000000000000000000000000000000000000000000000000815260206004820152603260248201527f4552433732313a207472616e7366657220746f206e6f6e20455243373231526560448201527f63656976657220696d706c656d656e746572000000000000000000000000000060648201526084016106da565b60608161275a57505060408051808201909152600181527f3000000000000000000000000000000000000000000000000000000000000000602082015290565b8160005b8115612784578061276e8161375e565b915061277d9050600a836137c6565b915061275e565b60008167ffffffffffffffff81111561279f5761279f61318c565b6040519080825280601f01601f1916602001820160405280156127c9576020820181803683370190505b5090505b8415611e80576127de6001836136a9565b91506127eb600a866137da565b6127f6906030613691565b60f81b81838151811061280b5761280b6137ee565b60200101907effffffffffffffffffffffffffffffffffffffffffffffffffffffffffffff1916908160001a905350612845600a866137c6565b94506127cd565b6040805173ffffffffffffffffffffffffffffffffffffffff8481166024830152604480830185905283518084039091018152606490920183526020820180517bffffffffffffffffffffffffffffffffffffffffffffffffffffffff167fa9059cbb0000000000000000000000000000000000000000000000000000000017905291516000928392908716916128e39190613708565b6000604051808303816000865af19150503d8060008114612920576040519150601f19603f3d011682016040523d82523d6000602084013e612925565b606091505b509150915081801561294f57508051158061294f57508080602001905181019061294f9190613741565b6129b5576040517f08c379a000000000000000000000000000000000000000000000000000000000815260206004820152601f60248201527f5472616e7366657248656c7065723a205452414e534645525f4641494c45440060448201526064016106da565b5050505050565b73ffffffffffffffffffffffffffffffffffffffff8216612a39576040517f08c379a000000000000000000000000000000000000000000000000000000000815260206004820181905260248201527f4552433732313a206d696e7420746f20746865207a65726f206164647265737360448201526064016106da565b60008181526002602052604090205473ffffffffffffffffffffffffffffffffffffffff1615612ac5576040517f08c379a000000000000000000000000000000000000000000000000000000000815260206004820152601c60248201527f4552433732313a20746f6b656e20616c7265616479206d696e7465640000000060448201526064016106da565b73ffffffffffffffffffffffffffffffffffffffff82166000908152600360205260408120805460019290612afb908490613691565b909155505060008181526002602052604080822080547fffffffffffffffffffffffff00000000000000000000000000000000000000001673ffffffffffffffffffffffffffffffffffffffff861690811790915590518392907fddf252ad1be2c89b69c2b068fc378daa952ba7f163c4a11628f55a4df523b3ef908290a45050565b600080825160411415612bb55760208301516040840151606085015160001a612ba987828585612ded565b94509450505050612be7565b825160401415612bdf5760208301516040840151612bd4868383612f05565b935093505050612be7565b506000905060025b9250929050565b600073ffffffffffffffffffffffffffffffffffffffff84163b15612de2576040517f150b7a0200000000000000000000000000000000000000000000000000000000815273ffffffffffffffffffffffffffffffffffffffff85169063150b7a0290612c6590339089908890889060040161381d565b602060405180830381600087803b158015612c7f57600080fd5b505af1925050508015612ccd575060408051601f3d9081017fffffffffffffffffffffffffffffffffffffffffffffffffffffffffffffffe0168201909252612cca91810190613724565b60015b612d97573d808015612cfb576040519150601f19603f3d011682016040523d82523d6000602084013e612d00565b606091505b508051612d8f576040517f08c379a000000000000000000000000000000000000000000000000000000000815260206004820152603260248201527f4552433732313a207472616e7366657220746f206e6f6e20455243373231526560448201527f63656976657220696d706c656d656e746572000000000000000000000000000060648201526084016106da565b805181602001fd5b7fffffffff00000000000000000000000000000000000000000000000000000000167f150b7a0200000000000000000000000000000000000000000000000000000000149050611e80565b506001949350505050565b6000807f7fffffffffffffffffffffffffffffff5d576e7357a4501ddfe92f46681b20a0831115612e245750600090506003612efc565b8460ff16601b14158015612e3c57508460ff16601c14155b15612e4d5750600090506004612efc565b6040805160008082526020820180845289905260ff881692820192909252606081018690526080810185905260019060a0016020604051602081039080840390855afa158015612ea1573d6000803e3d6000fd5b50506040517fffffffffffffffffffffffffffffffffffffffffffffffffffffffffffffffe0015191505073ffffffffffffffffffffffffffffffffffffffff8116612ef557600060019250925050612efc565b9150600090505b94509492505050565b6000807f7fffffffffffffffffffffffffffffffffffffffffffffffffffffffffffffff831681612f3b60ff86901c601b613691565b9050612f4987828885612ded565b935093505050935093915050565b828054612f63906134d4565b90600052602060002090601f016020900481019282612f855760008555612fcb565b82601f10612f9e57805160ff1916838001178555612fcb565b82800160010185558215612fcb579182015b82811115612fcb578251825591602001919060010190612fb0565b50612fd7929150612fdb565b5090565b5b80821115612fd75760008155600101612fdc565b7fffffffff000000000000000000000000000000000000000000000000000000008116811461301e57600080fd5b50565b60006020828403121561303357600080fd5b8135610cf781612ff0565b60005b83811015613059578181015183820152602001613041565b8381111561175e5750506000910152565b6000815180845261308281602086016020860161303e565b601f017fffffffffffffffffffffffffffffffffffffffffffffffffffffffffffffffe0169290920160200192915050565b602081526000610cf7602083018461306a565b6000602082840312156130d957600080fd5b5035919050565b73ffffffffffffffffffffffffffffffffffffffff8116811461301e57600080fd5b6000806040838503121561311557600080fd5b8235613120816130e0565b946020939093013593505050565b60006020828403121561314057600080fd5b8135610cf7816130e0565b60008060006060848603121561316057600080fd5b833561316b816130e0565b9250602084013561317b816130e0565b929592945050506040919091013590565b7f4e487b7100000000000000000000000000000000000000000000000000000000600052604160045260246000fd5b600082601f8301126131cc57600080fd5b813567ffffffffffffffff808211156131e7576131e761318c565b604051601f83017fffffffffffffffffffffffffffffffffffffffffffffffffffffffffffffffe0908116603f0116810190828211818310171561322d5761322d61318c565b8160405283815286602085880101111561324657600080fd5b836020870160208301376000602085830101528094505050505092915050565b60008060006060848603121561327b57600080fd5b8335925060208401359150604084013567ffffffffffffffff8111156132a057600080fd5b6132ac868287016131bb565b9150509250925092565b600080604083850312156132c957600080fd5b823567ffffffffffffffff808211156132e157600080fd5b6132ed868387016131bb565b9350602085013591508082111561330357600080fd5b50613310858286016131bb565b9150509250929050565b60008060008060008060c0878903121561333357600080fd5b863561333e816130e0565b95506020870135945060408701359350606087013592506080870135915060a087013567ffffffffffffffff81111561337657600080fd5b61338289828a016131bb565b9150509295509295509295565b801515811461301e57600080fd5b600080604083850312156133b057600080fd5b82356133bb816130e0565b915060208301356133cb8161338f565b809150509250929050565b600080600080608085870312156133ec57600080fd5b84356133f7816130e0565b93506020850135613407816130e0565b925060408501359150606085013567ffffffffffffffff81111561342a57600080fd5b613436878288016131bb565b91505092959194509250565b6000806040838503121561345557600080fd5b8235613460816130e0565b915060208301356133cb816130e0565b600080600080600060a0868803121561348857600080fd5b85359450602086013593506040860135925060608601359150608086013567ffffffffffffffff8111156134bb57600080fd5b6134c7888289016131bb565b9150509295509295909350565b600181811c908216806134e857607f821691505b60208210811415613522577f4e487b7100000000000000000000000000000000000000000000000000000000600052602260045260246000fd5b50919050565b60006020828403121561353a57600080fd5b8151610cf7816130e0565b8054600090600181811c908083168061355f57607f831692505b602080841082141561359a577f4e487b7100000000000000000000000000000000000000000000000000000000600052602260045260246000fd5b8180156135ae57600181146135dd5761360a565b7fffffffffffffffffffffffffffffffffffffffffffffffffffffffffffffff0086168952848901965061360a565b60008881526020902060005b868110156136025781548b8201529085019083016135e9565b505084890196505b50505050505092915050565b60006136228286613545565b845161363281836020890161303e565b61363e81830186613545565b979650505050505050565b60006020828403121561365b57600080fd5b5051919050565b7f4e487b7100000000000000000000000000000000000000000000000000000000600052601160045260246000fd5b600082198211156136a4576136a4613662565b500190565b6000828210156136bb576136bb613662565b500390565b7f4e487b7100000000000000000000000000000000000000000000000000000000600052602160045260246000fd5b828152604060208201526000611e80604083018461306a565b6000825161371a81846020870161303e565b9190910192915050565b60006020828403121561373657600080fd5b8151610cf781612ff0565b60006020828403121561375357600080fd5b8151610cf78161338f565b60007fffffffffffffffffffffffffffffffffffffffffffffffffffffffffffffffff82141561379057613790613662565b5060010190565b7f4e487b7100000000000000000000000000000000000000000000000000000000600052601260045260246000fd5b6000826137d5576137d5613797565b500490565b6000826137e9576137e9613797565b500690565b7f4e487b7100000000000000000000000000000000000000000000000000000000600052603260045260246000fd5b600073ffffffffffffffffffffffffffffffffffffffff80871683528086166020840152508360408301526080606083015261385c608083018461306a565b969550505050505056fea164736f6c6343000809000a",
  "linkReferences": {},
  "deployedLinkReferences": {}
}