{
  "_format": "hh-sol-artifact-1",
  "contractName": "RaffleTicket",
  "sourceName": "contracts/RaffleTicket.sol",
  "abi": [
    {
      "inputs": [
        {
          "internalType": "address",
          "name": "signer_",
          "type": "address"
        }
      ],
      "stateMutability": "nonpayable",
      "type": "constructor"
    },
    {
      "anonymous": false,
      "inputs": [
        {
          "indexed": true,
          "internalType": "address",
          "name": "owner",
          "type": "address"
        },
        {
          "indexed": true,
          "internalType": "address",
          "name": "spender",
          "type": "address"
        },
        {
          "indexed": false,
          "internalType": "uint256",
          "name": "value",
          "type": "uint256"
        }
      ],
      "name": "Approval",
      "type": "event"
    },
    {
      "anonymous": false,
      "inputs": [
        {
          "indexed": true,
          "internalType": "address",
          "name": "_user",
          "type": "address"
        },
        {
          "indexed": true,
          "internalType": "address",
          "name": "_old",
          "type": "address"
        },
        {
          "indexed": true,
          "internalType": "address",
          "name": "_new",
          "type": "address"
        }
      ],
      "name": "ConfigChanged",
      "type": "event"
    },
    {
      "anonymous": false,
      "inputs": [
        {
          "indexed": true,
          "internalType": "address",
          "name": "_user",
          "type": "address"
        },
        {
          "indexed": true,
          "internalType": "address",
          "name": "_old",
          "type": "address"
        },
        {
          "indexed": true,
          "internalType": "address",
          "name": "_new",
          "type": "address"
        }
      ],
      "name": "OwnerChanged",
      "type": "event"
    },
    {
      "anonymous": false,
      "inputs": [
        {
          "indexed": true,
          "internalType": "address",
          "name": "from",
          "type": "address"
        },
        {
          "indexed": true,
          "internalType": "address",
          "name": "to",
          "type": "address"
        },
        {
          "indexed": false,
          "internalType": "uint256",
          "name": "value",
          "type": "uint256"
        }
      ],
      "name": "Transfer",
      "type": "event"
    },
    {
      "inputs": [],
      "name": "admin",
      "outputs": [
        {
          "internalType": "address",
          "name": "",
          "type": "address"
        }
      ],
      "stateMutability": "view",
      "type": "function"
    },
    {
      "inputs": [
        {
          "internalType": "address",
          "name": "owner",
          "type": "address"
        },
        {
          "internalType": "address",
          "name": "spender",
          "type": "address"
        }
      ],
      "name": "allowance",
      "outputs": [
        {
          "internalType": "uint256",
          "name": "",
          "type": "uint256"
        }
      ],
      "stateMutability": "view",
      "type": "function"
    },
    {
      "inputs": [
        {
          "internalType": "address",
          "name": "spender",
          "type": "address"
        },
        {
          "internalType": "uint256",
          "name": "amount",
          "type": "uint256"
        }
      ],
      "name": "approve",
      "outputs": [
        {
          "internalType": "bool",
          "name": "",
          "type": "bool"
        }
      ],
      "stateMutability": "nonpayable",
      "type": "function"
    },
    {
      "inputs": [
        {
          "internalType": "address",
          "name": "account",
          "type": "address"
        }
      ],
      "name": "balanceOf",
      "outputs": [
        {
          "internalType": "uint256",
          "name": "",
          "type": "uint256"
        }
      ],
      "stateMutability": "view",
      "type": "function"
    },
    {
      "inputs": [
        {
          "internalType": "address",
          "name": "_user",
          "type": "address"
        }
      ],
      "name": "changeOwner",
      "outputs": [],
      "stateMutability": "nonpayable",
      "type": "function"
    },
    {
      "inputs": [
        {
          "internalType": "uint256",
          "name": "amount",
          "type": "uint256"
        },
        {
          "internalType": "uint64",
          "name": "orderId",
          "type": "uint64"
        },
        {
          "internalType": "bytes",
          "name": "signature",
          "type": "bytes"
        }
      ],
      "name": "claim",
      "outputs": [],
      "stateMutability": "nonpayable",
      "type": "function"
    },
    {
      "inputs": [],
      "name": "config",
      "outputs": [
        {
          "internalType": "address",
          "name": "",
          "type": "address"
        }
      ],
      "stateMutability": "view",
      "type": "function"
    },
    {
      "inputs": [],
      "name": "decimals",
      "outputs": [
        {
          "internalType": "uint8",
          "name": "",
          "type": "uint8"
        }
      ],
      "stateMutability": "pure",
      "type": "function"
    },
    {
      "inputs": [
        {
          "internalType": "address",
          "name": "spender",
          "type": "address"
        },
        {
          "internalType": "uint256",
          "name": "subtractedValue",
          "type": "uint256"
        }
      ],
      "name": "decreaseAllowance",
      "outputs": [
        {
          "internalType": "bool",
          "name": "",
          "type": "bool"
        }
      ],
      "stateMutability": "nonpayable",
      "type": "function"
    },
    {
      "inputs": [],
      "name": "dev",
      "outputs": [
        {
          "internalType": "address",
          "name": "",
          "type": "address"
        }
      ],
      "stateMutability": "view",
      "type": "function"
    },
    {
      "inputs": [
        {
          "internalType": "uint256",
          "name": "amount",
          "type": "uint256"
        }
      ],
      "name": "exchange",
      "outputs": [],
      "stateMutability": "nonpayable",
      "type": "function"
    },
    {
      "inputs": [
        {
          "internalType": "address",
          "name": "spender",
          "type": "address"
        },
        {
          "internalType": "uint256",
          "name": "addedValue",
          "type": "uint256"
        }
      ],
      "name": "increaseAllowance",
      "outputs": [
        {
          "internalType": "bool",
          "name": "",
          "type": "bool"
        }
      ],
      "stateMutability": "nonpayable",
      "type": "function"
    },
    {
      "inputs": [
        {
          "internalType": "address",
          "name": "to",
          "type": "address"
        },
        {
          "internalType": "uint256",
          "name": "amount",
          "type": "uint256"
        }
      ],
      "name": "mint",
      "outputs": [],
      "stateMutability": "nonpayable",
      "type": "function"
    },
    {
      "inputs": [],
      "name": "name",
      "outputs": [
        {
          "internalType": "string",
          "name": "",
          "type": "string"
        }
      ],
      "stateMutability": "view",
      "type": "function"
    },
    {
      "inputs": [],
      "name": "owner",
      "outputs": [
        {
          "internalType": "address",
          "name": "",
          "type": "address"
        }
      ],
      "stateMutability": "view",
      "type": "function"
    },
    {
      "inputs": [
        {
          "internalType": "address",
          "name": "signer_",
          "type": "address"
        }
      ],
      "name": "setSigner",
      "outputs": [],
      "stateMutability": "nonpayable",
      "type": "function"
    },
    {
      "inputs": [
        {
          "internalType": "address",
          "name": "_config",
          "type": "address"
        }
      ],
      "name": "setupConfig",
      "outputs": [],
      "stateMutability": "nonpayable",
      "type": "function"
    },
    {
      "inputs": [],
      "name": "signer",
      "outputs": [
        {
          "internalType": "address",
          "name": "",
          "type": "address"
        }
      ],
      "stateMutability": "view",
      "type": "function"
    },
    {
      "inputs": [],
      "name": "symbol",
      "outputs": [
        {
          "internalType": "string",
          "name": "",
          "type": "string"
        }
      ],
      "stateMutability": "view",
      "type": "function"
    },
    {
      "inputs": [],
      "name": "totalSupply",
      "outputs": [
        {
          "internalType": "uint256",
          "name": "",
          "type": "uint256"
        }
      ],
      "stateMutability": "view",
      "type": "function"
    },
    {
      "inputs": [
        {
          "internalType": "address",
          "name": "to",
          "type": "address"
        },
        {
          "internalType": "uint256",
          "name": "amount",
          "type": "uint256"
        }
      ],
      "name": "transfer",
      "outputs": [
        {
          "internalType": "bool",
          "name": "",
          "type": "bool"
        }
      ],
      "stateMutability": "nonpayable",
      "type": "function"
    },
    {
      "inputs": [
        {
          "internalType": "address",
          "name": "from",
          "type": "address"
        },
        {
          "internalType": "address",
          "name": "to",
          "type": "address"
        },
        {
          "internalType": "uint256",
          "name": "amount",
          "type": "uint256"
        }
      ],
      "name": "transferFrom",
      "outputs": [
        {
          "internalType": "bool",
          "name": "",
          "type": "bool"
        }
      ],
      "stateMutability": "nonpayable",
      "type": "function"
    },
    {
      "inputs": [
        {
          "internalType": "address",
          "name": "to",
          "type": "address"
        },
        {
          "internalType": "uint256",
          "name": "amount",
          "type": "uint256"
        },
        {
          "internalType": "uint256",
          "name": "orderId",
          "type": "uint256"
        },
        {
          "internalType": "bytes",
          "name": "signature",
          "type": "bytes"
        }
      ],
      "name": "verifyClaim",
      "outputs": [
        {
          "internalType": "bool",
          "name": "",
          "type": "bool"
        }
      ],
      "stateMutability": "view",
      "type": "function"
    }
  ],
  "bytecode": "0x60806040523480156200001157600080fd5b50604051620021c4380380620021c48339810160408190526200003491620001cc565b604080518082018252600d81526c149859999b1948151a58dad95d609a1b602080830191825283518085019094526002845261149560f21b908401528151919291620000839160039162000126565b5080516200009990600490602084019062000126565b5050506001600160a01b038116620000f75760405162461bcd60e51b815260206004820152601e60248201527f5369676e65722063616e206e6f74206265207a65726f20616464726573730000604482015260640160405180910390fd5b600780546001600160a01b039092166001600160a01b031992831617905560068054909116331790556200023b565b8280546200013490620001fe565b90600052602060002090601f016020900481019282620001585760008555620001a3565b82601f106200017357805160ff1916838001178555620001a3565b82800160010185558215620001a3579182015b82811115620001a357825182559160200191906001019062000186565b50620001b1929150620001b5565b5090565b5b80821115620001b15760008155600101620001b6565b600060208284031215620001df57600080fd5b81516001600160a01b0381168114620001f757600080fd5b9392505050565b600181811c908216806200021357607f821691505b602082108114156200023557634e487b7160e01b600052602260045260246000fd5b50919050565b611f79806200024b6000396000f3fe608060405234801561001057600080fd5b506004361061018d5760003560e01c80636c19e783116100e3578063a457c2d71161008c578063a9e137f611610066578063a9e137f61461037f578063dd62ed3e14610392578063f851a440146103d857600080fd5b8063a457c2d714610346578063a6f9dae114610359578063a9059cbb1461036c57600080fd5b80638da5cb5b116100bd5780638da5cb5b1461031657806391cca3db1461033657806395d89b411461033e57600080fd5b80636c19e783146102ad57806370a08231146102c057806379502c55146102f657600080fd5b8063313ce5671161014557806340c10f191161011f57806340c10f19146102745780634c99013414610287578063535565591461029a57600080fd5b8063313ce5671461023d578063395093511461024c5780633d50f2e01461025f57600080fd5b806318160ddd1161017657806318160ddd146101d3578063238ac933146101e557806323b872dd1461022a57600080fd5b806306fdde0314610192578063095ea7b3146101b0575b600080fd5b61019a6103e0565b6040516101a79190611b16565b60405180910390f35b6101c36101be366004611b4b565b610472565b60405190151581526020016101a7565b6002545b6040519081526020016101a7565b6007546102059073ffffffffffffffffffffffffffffffffffffffff1681565b60405173ffffffffffffffffffffffffffffffffffffffff90911681526020016101a7565b6101c3610238366004611b77565b61048a565b604051600081526020016101a7565b6101c361025a366004611b4b565b6104b0565b61027261026d366004611bb8565b6104fc565b005b610272610282366004611b4b565b610612565b6101c3610295366004611caf565b6106de565b6102726102a8366004611d12565b6107ec565b6102726102bb366004611bb8565b6107f9565b6101d76102ce366004611bb8565b73ffffffffffffffffffffffffffffffffffffffff1660009081526020819052604090205490565b6005546102059073ffffffffffffffffffffffffffffffffffffffff1681565b6006546102059073ffffffffffffffffffffffffffffffffffffffff1681565b610205610983565b61019a610a66565b6101c3610354366004611b4b565b610a75565b610272610367366004611bb8565b610b51565b6101c361037a366004611b4b565b610ce7565b61027261038d366004611d2b565b610cf5565b6101d76103a0366004611d8d565b73ffffffffffffffffffffffffffffffffffffffff918216600090815260016020908152604080832093909416825291909152205490565b610205610e04565b6060600380546103ef90611dc6565b80601f016020809104026020016040519081016040528092919081815260200182805461041b90611dc6565b80156104685780601f1061043d57610100808354040283529160200191610468565b820191906000526020600020905b81548152906001019060200180831161044b57829003601f168201915b5050505050905090565b600033610480818585610e8d565b5060019392505050565b600033610498858285611040565b6104a3858585611117565b60019150505b9392505050565b33600081815260016020908152604080832073ffffffffffffffffffffffffffffffffffffffff8716845290915281205490919061048090829086906104f7908790611e49565b610e8d565b60065473ffffffffffffffffffffffffffffffffffffffff163314610582576040517f08c379a000000000000000000000000000000000000000000000000000000000815260206004820152600f60248201527f4f574e455220464f5242494444454e000000000000000000000000000000000060448201526064015b60405180910390fd5b60055460405173ffffffffffffffffffffffffffffffffffffffff80841692169033907f1c9f92ac4e71628bcbcaa06d364d40e010aef535184545a709e14cced8ac2d3c90600090a4600580547fffffffffffffffffffffffff00000000000000000000000000000000000000001673ffffffffffffffffffffffffffffffffffffffff92909216919091179055565b61061a610983565b73ffffffffffffffffffffffffffffffffffffffff163373ffffffffffffffffffffffffffffffffffffffff16148061066a575060065473ffffffffffffffffffffffffffffffffffffffff1633145b6106d0576040517f08c379a000000000000000000000000000000000000000000000000000000000815260206004820152600d60248201527f64657620464f5242494444454e000000000000000000000000000000000000006044820152606401610579565b6106da82826113ca565b5050565b6040517fffffffffffffffffffffffffffffffffffffffff000000000000000000000000606086811b82166020840152603483018690526054830185905230901b166074820152600090819060880160405160208183030381529060405280519060200120905060008160405160200161078491907f19457468657265756d205369676e6564204d6573736167653a0a3332000000008152601c810191909152603c0190565b604080517fffffffffffffffffffffffffffffffffffffffffffffffffffffffffffffffe081840301815291905280516020909101206007549091506107e19073ffffffffffffffffffffffffffffffffffffffff1682866114ea565b979650505050505050565b6107f633826116d9565b50565b610801610983565b73ffffffffffffffffffffffffffffffffffffffff163373ffffffffffffffffffffffffffffffffffffffff161480610851575060065473ffffffffffffffffffffffffffffffffffffffff1633145b6108b7576040517f08c379a000000000000000000000000000000000000000000000000000000000815260206004820152600d60248201527f64657620464f5242494444454e000000000000000000000000000000000000006044820152606401610579565b60075473ffffffffffffffffffffffffffffffffffffffff8281169116141561093c576040517f08c379a000000000000000000000000000000000000000000000000000000000815260206004820152601260248201527f5468657265206973206e6f206368616e676500000000000000000000000000006044820152606401610579565b600780547fffffffffffffffffffffffff00000000000000000000000000000000000000001673ffffffffffffffffffffffffffffffffffffffff92909216919091179055565b60055460009073ffffffffffffffffffffffffffffffffffffffff1615610a4957600560009054906101000a900473ffffffffffffffffffffffffffffffffffffffff1673ffffffffffffffffffffffffffffffffffffffff166391cca3db6040518163ffffffff1660e01b815260040160206040518083038186803b158015610a0c57600080fd5b505afa158015610a20573d6000803e3d6000fd5b505050506040513d601f19601f82011682018060405250810190610a449190611e61565b905090565b5060065473ffffffffffffffffffffffffffffffffffffffff1690565b6060600480546103ef90611dc6565b33600081815260016020908152604080832073ffffffffffffffffffffffffffffffffffffffff8716845290915281205490919083811015610b39576040517f08c379a000000000000000000000000000000000000000000000000000000000815260206004820152602560248201527f45524332303a2064656372656173656420616c6c6f77616e63652062656c6f7760448201527f207a65726f0000000000000000000000000000000000000000000000000000006064820152608401610579565b610b468286868403610e8d565b506001949350505050565b60065473ffffffffffffffffffffffffffffffffffffffff163314610bd2576040517f08c379a000000000000000000000000000000000000000000000000000000000815260206004820152600f60248201527f4f574e455220464f5242494444454e00000000000000000000000000000000006044820152606401610579565b60065473ffffffffffffffffffffffffffffffffffffffff82811691161415610c57576040517f08c379a000000000000000000000000000000000000000000000000000000000815260206004820152601060248201527f4f776e65723a204e4f204348414e4745000000000000000000000000000000006044820152606401610579565b60065460405173ffffffffffffffffffffffffffffffffffffffff80841692169033907f381c0d11398486654573703c51ee8210ce9461764d133f9f0e53b6a53970533190600090a4600680547fffffffffffffffffffffffff00000000000000000000000000000000000000001673ffffffffffffffffffffffffffffffffffffffff92909216919091179055565b600033610480818585611117565b67ffffffffffffffff821660009081526008602052604090205460ff1615610d79576040517f08c379a000000000000000000000000000000000000000000000000000000000815260206004820152601660248201527f4f72646572496420616c726561647920657869737473000000000000000000006044820152606401610579565b610d8f33848467ffffffffffffffff16846106de565b610df5576040517f08c379a000000000000000000000000000000000000000000000000000000000815260206004820152601160248201527f496e76616c6964207369676e61747572650000000000000000000000000000006044820152606401610579565b610dff33846113ca565b505050565b60055460009073ffffffffffffffffffffffffffffffffffffffff1615610a4957600560009054906101000a900473ffffffffffffffffffffffffffffffffffffffff1673ffffffffffffffffffffffffffffffffffffffff1663f851a4406040518163ffffffff1660e01b815260040160206040518083038186803b158015610a0c57600080fd5b73ffffffffffffffffffffffffffffffffffffffff8316610f2f576040517f08c379a0000000000000000000000000000000000000000000000000000000008152602060048201526024808201527f45524332303a20617070726f76652066726f6d20746865207a65726f2061646460448201527f72657373000000000000000000000000000000000000000000000000000000006064820152608401610579565b73ffffffffffffffffffffffffffffffffffffffff8216610fd2576040517f08c379a000000000000000000000000000000000000000000000000000000000815260206004820152602260248201527f45524332303a20617070726f766520746f20746865207a65726f20616464726560448201527f73730000000000000000000000000000000000000000000000000000000000006064820152608401610579565b73ffffffffffffffffffffffffffffffffffffffff83811660008181526001602090815260408083209487168084529482529182902085905590518481527f8c5be1e5ebec7d5bd14f71427d1e84f3dd0314c0f7b2291e5b200ac8c7c3b925910160405180910390a3505050565b73ffffffffffffffffffffffffffffffffffffffff8381166000908152600160209081526040808320938616835292905220547fffffffffffffffffffffffffffffffffffffffffffffffffffffffffffffffff81146111115781811015611104576040517f08c379a000000000000000000000000000000000000000000000000000000000815260206004820152601d60248201527f45524332303a20696e73756666696369656e7420616c6c6f77616e63650000006044820152606401610579565b6111118484848403610e8d565b50505050565b73ffffffffffffffffffffffffffffffffffffffff83166111ba576040517f08c379a000000000000000000000000000000000000000000000000000000000815260206004820152602560248201527f45524332303a207472616e736665722066726f6d20746865207a65726f20616460448201527f64726573730000000000000000000000000000000000000000000000000000006064820152608401610579565b73ffffffffffffffffffffffffffffffffffffffff821661125d576040517f08c379a000000000000000000000000000000000000000000000000000000000815260206004820152602360248201527f45524332303a207472616e7366657220746f20746865207a65726f206164647260448201527f65737300000000000000000000000000000000000000000000000000000000006064820152608401610579565b73ffffffffffffffffffffffffffffffffffffffff831660009081526020819052604090205481811015611313576040517f08c379a000000000000000000000000000000000000000000000000000000000815260206004820152602660248201527f45524332303a207472616e7366657220616d6f756e742065786365656473206260448201527f616c616e636500000000000000000000000000000000000000000000000000006064820152608401610579565b73ffffffffffffffffffffffffffffffffffffffff808516600090815260208190526040808220858503905591851681529081208054849290611357908490611e49565b925050819055508273ffffffffffffffffffffffffffffffffffffffff168473ffffffffffffffffffffffffffffffffffffffff167fddf252ad1be2c89b69c2b068fc378daa952ba7f163c4a11628f55a4df523b3ef846040516113bd91815260200190565b60405180910390a3611111565b73ffffffffffffffffffffffffffffffffffffffff8216611447576040517f08c379a000000000000000000000000000000000000000000000000000000000815260206004820152601f60248201527f45524332303a206d696e7420746f20746865207a65726f2061646472657373006044820152606401610579565b80600260008282546114599190611e49565b909155505073ffffffffffffffffffffffffffffffffffffffff821660009081526020819052604081208054839290611493908490611e49565b909155505060405181815273ffffffffffffffffffffffffffffffffffffffff8316906000907fddf252ad1be2c89b69c2b068fc378daa952ba7f163c4a11628f55a4df523b3ef9060200160405180910390a35050565b60008060006114f985856118c6565b9092509050600081600481111561151257611512611e7e565b14801561154a57508573ffffffffffffffffffffffffffffffffffffffff168273ffffffffffffffffffffffffffffffffffffffff16145b1561155a576001925050506104a9565b6000808773ffffffffffffffffffffffffffffffffffffffff16631626ba7e60e01b888860405160240161158f929190611ead565b604080517fffffffffffffffffffffffffffffffffffffffffffffffffffffffffffffffe08184030181529181526020820180517bffffffffffffffffffffffffffffffffffffffffffffffffffffffff167fffffffff000000000000000000000000000000000000000000000000000000009094169390931790925290516116189190611ece565b600060405180830381855afa9150503d8060008114611653576040519150601f19603f3d011682016040523d82523d6000602084013e611658565b606091505b509150915081801561166b575080516020145b80156116cd575080517f1626ba7e00000000000000000000000000000000000000000000000000000000906116a99083016020908101908401611eea565b7fffffffff0000000000000000000000000000000000000000000000000000000016145b98975050505050505050565b73ffffffffffffffffffffffffffffffffffffffff821661177c576040517f08c379a000000000000000000000000000000000000000000000000000000000815260206004820152602160248201527f45524332303a206275726e2066726f6d20746865207a65726f2061646472657360448201527f73000000000000000000000000000000000000000000000000000000000000006064820152608401610579565b73ffffffffffffffffffffffffffffffffffffffff821660009081526020819052604090205481811015611832576040517f08c379a000000000000000000000000000000000000000000000000000000000815260206004820152602260248201527f45524332303a206275726e20616d6f756e7420657863656564732062616c616e60448201527f63650000000000000000000000000000000000000000000000000000000000006064820152608401610579565b73ffffffffffffffffffffffffffffffffffffffff8316600090815260208190526040812083830390556002805484929061186e908490611f2c565b909155505060405182815260009073ffffffffffffffffffffffffffffffffffffffff8516907fddf252ad1be2c89b69c2b068fc378daa952ba7f163c4a11628f55a4df523b3ef9060200160405180910390a3505050565b6000808251604114156118fd5760208301516040840151606085015160001a6118f187828585611936565b9450945050505061192f565b825160401415611927576020830151604084015161191c868383611a4e565b93509350505061192f565b506000905060025b9250929050565b6000807f7fffffffffffffffffffffffffffffff5d576e7357a4501ddfe92f46681b20a083111561196d5750600090506003611a45565b8460ff16601b1415801561198557508460ff16601c14155b156119965750600090506004611a45565b6040805160008082526020820180845289905260ff881692820192909252606081018690526080810185905260019060a0016020604051602081039080840390855afa1580156119ea573d6000803e3d6000fd5b50506040517fffffffffffffffffffffffffffffffffffffffffffffffffffffffffffffffe0015191505073ffffffffffffffffffffffffffffffffffffffff8116611a3e57600060019250925050611a45565b9150600090505b94509492505050565b6000807f7fffffffffffffffffffffffffffffffffffffffffffffffffffffffffffffff831681611a8460ff86901c601b611e49565b9050611a9287828885611936565b935093505050935093915050565b60005b83811015611abb578181015183820152602001611aa3565b838111156111115750506000910152565b60008151808452611ae4816020860160208601611aa0565b601f017fffffffffffffffffffffffffffffffffffffffffffffffffffffffffffffffe0169290920160200192915050565b6020815260006104a96020830184611acc565b73ffffffffffffffffffffffffffffffffffffffff811681146107f657600080fd5b60008060408385031215611b5e57600080fd5b8235611b6981611b29565b946020939093013593505050565b600080600060608486031215611b8c57600080fd5b8335611b9781611b29565b92506020840135611ba781611b29565b929592945050506040919091013590565b600060208284031215611bca57600080fd5b81356104a981611b29565b7f4e487b7100000000000000000000000000000000000000000000000000000000600052604160045260246000fd5b600082601f830112611c1557600080fd5b813567ffffffffffffffff80821115611c3057611c30611bd5565b604051601f83017fffffffffffffffffffffffffffffffffffffffffffffffffffffffffffffffe0908116603f01168101908282118183101715611c7657611c76611bd5565b81604052838152866020858801011115611c8f57600080fd5b836020870160208301376000602085830101528094505050505092915050565b60008060008060808587031215611cc557600080fd5b8435611cd081611b29565b93506020850135925060408501359150606085013567ffffffffffffffff811115611cfa57600080fd5b611d0687828801611c04565b91505092959194509250565b600060208284031215611d2457600080fd5b5035919050565b600080600060608486031215611d4057600080fd5b83359250602084013567ffffffffffffffff8082168214611d6057600080fd5b90925060408501359080821115611d7657600080fd5b50611d8386828701611c04565b9150509250925092565b60008060408385031215611da057600080fd5b8235611dab81611b29565b91506020830135611dbb81611b29565b809150509250929050565b600181811c90821680611dda57607f821691505b60208210811415611e14577f4e487b7100000000000000000000000000000000000000000000000000000000600052602260045260246000fd5b50919050565b7f4e487b7100000000000000000000000000000000000000000000000000000000600052601160045260246000fd5b60008219821115611e5c57611e5c611e1a565b500190565b600060208284031215611e7357600080fd5b81516104a981611b29565b7f4e487b7100000000000000000000000000000000000000000000000000000000600052602160045260246000fd5b828152604060208201526000611ec66040830184611acc565b949350505050565b60008251611ee0818460208701611aa0565b9190910192915050565b600060208284031215611efc57600080fd5b81517fffffffff00000000000000000000000000000000000000000000000000000000811681146104a957600080fd5b600082821015611f3e57611f3e611e1a565b50039056fea264697066735822122006c3663f509e3e7def287d3dc2fb80ca14b45593165b4a74debdc36527dc9c0964736f6c63430008090033",
  "linkReferences": {},
  "deployedLinkReferences": {}
}