{
  "_format": "hh-sol-artifact-1",
  "contractName": "RaffleTicket",
  "sourceName": "contracts/RaffleTicket.sol",
  "abi": [
    {
      "inputs": [
        {
          "internalType": "address",
          "name": "signer_",
          "type": "address"
        }
      ],
      "stateMutability": "nonpayable",
      "type": "constructor"
    },
    {
      "anonymous": false,
      "inputs": [
        {
          "indexed": true,
          "internalType": "address",
          "name": "owner",
          "type": "address"
        },
        {
          "indexed": true,
          "internalType": "address",
          "name": "spender",
          "type": "address"
        },
        {
          "indexed": false,
          "internalType": "uint256",
          "name": "value",
          "type": "uint256"
        }
      ],
      "name": "Approval",
      "type": "event"
    },
    {
      "anonymous": false,
      "inputs": [
        {
          "indexed": true,
          "internalType": "address",
          "name": "receiver",
          "type": "address"
        },
        {
          "indexed": false,
          "internalType": "uint256",
          "name": "amount",
          "type": "uint256"
        },
        {
          "indexed": false,
          "internalType": "uint64",
          "name": "orderId",
          "type": "uint64"
        },
        {
          "indexed": false,
          "internalType": "uint64",
          "name": "txId",
          "type": "uint64"
        }
      ],
      "name": "Claim",
      "type": "event"
    },
    {
      "anonymous": false,
      "inputs": [
        {
          "indexed": true,
          "internalType": "address",
          "name": "_user",
          "type": "address"
        },
        {
          "indexed": true,
          "internalType": "address",
          "name": "_old",
          "type": "address"
        },
        {
          "indexed": true,
          "internalType": "address",
          "name": "_new",
          "type": "address"
        }
      ],
      "name": "ConfigChanged",
      "type": "event"
    },
    {
      "anonymous": false,
      "inputs": [
        {
          "indexed": true,
          "internalType": "address",
          "name": "_user",
          "type": "address"
        },
        {
          "indexed": true,
          "internalType": "address",
          "name": "_old",
          "type": "address"
        },
        {
          "indexed": true,
          "internalType": "address",
          "name": "_new",
          "type": "address"
        }
      ],
      "name": "OwnerChanged",
      "type": "event"
    },
    {
      "anonymous": false,
      "inputs": [
        {
          "indexed": true,
          "internalType": "address",
          "name": "from",
          "type": "address"
        },
        {
          "indexed": true,
          "internalType": "address",
          "name": "to",
          "type": "address"
        },
        {
          "indexed": false,
          "internalType": "uint256",
          "name": "value",
          "type": "uint256"
        }
      ],
      "name": "Transfer",
      "type": "event"
    },
    {
      "inputs": [],
      "name": "admin",
      "outputs": [
        {
          "internalType": "address",
          "name": "",
          "type": "address"
        }
      ],
      "stateMutability": "view",
      "type": "function"
    },
    {
      "inputs": [
        {
          "internalType": "address",
          "name": "owner",
          "type": "address"
        },
        {
          "internalType": "address",
          "name": "spender",
          "type": "address"
        }
      ],
      "name": "allowance",
      "outputs": [
        {
          "internalType": "uint256",
          "name": "",
          "type": "uint256"
        }
      ],
      "stateMutability": "view",
      "type": "function"
    },
    {
      "inputs": [
        {
          "internalType": "address",
          "name": "spender",
          "type": "address"
        },
        {
          "internalType": "uint256",
          "name": "amount",
          "type": "uint256"
        }
      ],
      "name": "approve",
      "outputs": [
        {
          "internalType": "bool",
          "name": "",
          "type": "bool"
        }
      ],
      "stateMutability": "nonpayable",
      "type": "function"
    },
    {
      "inputs": [
        {
          "internalType": "address",
          "name": "account",
          "type": "address"
        }
      ],
      "name": "balanceOf",
      "outputs": [
        {
          "internalType": "uint256",
          "name": "",
          "type": "uint256"
        }
      ],
      "stateMutability": "view",
      "type": "function"
    },
    {
      "inputs": [
        {
          "internalType": "address",
          "name": "_user",
          "type": "address"
        }
      ],
      "name": "changeOwner",
      "outputs": [],
      "stateMutability": "nonpayable",
      "type": "function"
    },
    {
      "inputs": [
        {
          "internalType": "uint256",
          "name": "amount",
          "type": "uint256"
        },
        {
          "internalType": "uint64",
          "name": "orderId",
          "type": "uint64"
        },
        {
          "internalType": "uint64",
          "name": "txId",
          "type": "uint64"
        },
        {
          "internalType": "bytes",
          "name": "signature",
          "type": "bytes"
        }
      ],
      "name": "claim",
      "outputs": [],
      "stateMutability": "nonpayable",
      "type": "function"
    },
    {
      "inputs": [],
      "name": "config",
      "outputs": [
        {
          "internalType": "address",
          "name": "",
          "type": "address"
        }
      ],
      "stateMutability": "view",
      "type": "function"
    },
    {
      "inputs": [],
      "name": "decimals",
      "outputs": [
        {
          "internalType": "uint8",
          "name": "",
          "type": "uint8"
        }
      ],
      "stateMutability": "pure",
      "type": "function"
    },
    {
      "inputs": [
        {
          "internalType": "address",
          "name": "spender",
          "type": "address"
        },
        {
          "internalType": "uint256",
          "name": "subtractedValue",
          "type": "uint256"
        }
      ],
      "name": "decreaseAllowance",
      "outputs": [
        {
          "internalType": "bool",
          "name": "",
          "type": "bool"
        }
      ],
      "stateMutability": "nonpayable",
      "type": "function"
    },
    {
      "inputs": [],
      "name": "dev",
      "outputs": [
        {
          "internalType": "address",
          "name": "",
          "type": "address"
        }
      ],
      "stateMutability": "view",
      "type": "function"
    },
    {
      "inputs": [
        {
          "internalType": "uint256",
          "name": "amount",
          "type": "uint256"
        }
      ],
      "name": "exchange",
      "outputs": [],
      "stateMutability": "nonpayable",
      "type": "function"
    },
    {
      "inputs": [
        {
          "internalType": "address",
          "name": "spender",
          "type": "address"
        },
        {
          "internalType": "uint256",
          "name": "addedValue",
          "type": "uint256"
        }
      ],
      "name": "increaseAllowance",
      "outputs": [
        {
          "internalType": "bool",
          "name": "",
          "type": "bool"
        }
      ],
      "stateMutability": "nonpayable",
      "type": "function"
    },
    {
      "inputs": [
        {
          "internalType": "address",
          "name": "to",
          "type": "address"
        },
        {
          "internalType": "uint256",
          "name": "amount",
          "type": "uint256"
        }
      ],
      "name": "mint",
      "outputs": [],
      "stateMutability": "nonpayable",
      "type": "function"
    },
    {
      "inputs": [],
      "name": "name",
      "outputs": [
        {
          "internalType": "string",
          "name": "",
          "type": "string"
        }
      ],
      "stateMutability": "view",
      "type": "function"
    },
    {
      "inputs": [],
      "name": "owner",
      "outputs": [
        {
          "internalType": "address",
          "name": "",
          "type": "address"
        }
      ],
      "stateMutability": "view",
      "type": "function"
    },
    {
      "inputs": [
        {
          "internalType": "address",
          "name": "signer_",
          "type": "address"
        }
      ],
      "name": "setSigner",
      "outputs": [],
      "stateMutability": "nonpayable",
      "type": "function"
    },
    {
      "inputs": [
        {
          "internalType": "address",
          "name": "_config",
          "type": "address"
        }
      ],
      "name": "setupConfig",
      "outputs": [],
      "stateMutability": "nonpayable",
      "type": "function"
    },
    {
      "inputs": [],
      "name": "signer",
      "outputs": [
        {
          "internalType": "address",
          "name": "",
          "type": "address"
        }
      ],
      "stateMutability": "view",
      "type": "function"
    },
    {
      "inputs": [],
      "name": "symbol",
      "outputs": [
        {
          "internalType": "string",
          "name": "",
          "type": "string"
        }
      ],
      "stateMutability": "view",
      "type": "function"
    },
    {
      "inputs": [],
      "name": "totalSupply",
      "outputs": [
        {
          "internalType": "uint256",
          "name": "",
          "type": "uint256"
        }
      ],
      "stateMutability": "view",
      "type": "function"
    },
    {
      "inputs": [
        {
          "internalType": "address",
          "name": "to",
          "type": "address"
        },
        {
          "internalType": "uint256",
          "name": "amount",
          "type": "uint256"
        }
      ],
      "name": "transfer",
      "outputs": [
        {
          "internalType": "bool",
          "name": "",
          "type": "bool"
        }
      ],
      "stateMutability": "nonpayable",
      "type": "function"
    },
    {
      "inputs": [
        {
          "internalType": "address",
          "name": "from",
          "type": "address"
        },
        {
          "internalType": "address",
          "name": "to",
          "type": "address"
        },
        {
          "internalType": "uint256",
          "name": "amount",
          "type": "uint256"
        }
      ],
      "name": "transferFrom",
      "outputs": [
        {
          "internalType": "bool",
          "name": "",
          "type": "bool"
        }
      ],
      "stateMutability": "nonpayable",
      "type": "function"
    },
    {
      "inputs": [
        {
          "internalType": "address",
          "name": "to",
          "type": "address"
        },
        {
          "internalType": "uint256",
          "name": "amount",
          "type": "uint256"
        },
        {
          "internalType": "uint256",
          "name": "orderId",
          "type": "uint256"
        },
        {
          "internalType": "bytes",
          "name": "signature",
          "type": "bytes"
        }
      ],
      "name": "verifyClaim",
      "outputs": [
        {
          "internalType": "bool",
          "name": "",
          "type": "bool"
        }
      ],
      "stateMutability": "view",
      "type": "function"
    }
  ],
  "bytecode": "0x60806040523480156200001157600080fd5b5060405162002215380380620022158339810160408190526200003491620001cc565b604080518082018252600d81526c149859999b1948151a58dad95d609a1b602080830191825283518085019094526002845261149560f21b908401528151919291620000839160039162000126565b5080516200009990600490602084019062000126565b5050506001600160a01b038116620000f75760405162461bcd60e51b815260206004820152601e60248201527f5369676e65722063616e206e6f74206265207a65726f20616464726573730000604482015260640160405180910390fd5b600780546001600160a01b039092166001600160a01b031992831617905560068054909116331790556200023b565b8280546200013490620001fe565b90600052602060002090601f016020900481019282620001585760008555620001a3565b82601f106200017357805160ff1916838001178555620001a3565b82800160010185558215620001a3579182015b82811115620001a357825182559160200191906001019062000186565b50620001b1929150620001b5565b5090565b5b80821115620001b15760008155600101620001b6565b600060208284031215620001df57600080fd5b81516001600160a01b0381168114620001f757600080fd5b9392505050565b600181811c908216806200021357607f821691505b602082108114156200023557634e487b7160e01b600052602260045260246000fd5b50919050565b611fca806200024b6000396000f3fe608060405234801561001057600080fd5b506004361061018c5760003560e01c806353556559116100e357806395d89b411161008c578063a9059cbb11610066578063a9059cbb1461037e578063dd62ed3e14610391578063f851a440146103d757600080fd5b806395d89b4114610350578063a457c2d714610358578063a6f9dae11461036b57600080fd5b806379502c55116100bd57806379502c55146103085780638da5cb5b1461032857806391cca3db1461034857600080fd5b806353556559146102ac5780636c19e783146102bf57806370a08231146102d257600080fd5b806323b872dd116101455780633d50f2e01161011f5780633d50f2e01461027357806340c10f19146102865780634c9901341461029957600080fd5b806323b872dd1461023e578063313ce56714610251578063395093511461026057600080fd5b8063095ea7b311610176578063095ea7b3146101c457806318160ddd146101e7578063238ac933146101f957600080fd5b806273f1701461019157806306fdde03146101a6575b600080fd5b6101a461019f366004611bdd565b6103df565b005b6101ae610541565b6040516101bb9190611cbb565b60405180910390f35b6101d76101d2366004611cf0565b6105d3565b60405190151581526020016101bb565b6002545b6040519081526020016101bb565b6007546102199073ffffffffffffffffffffffffffffffffffffffff1681565b60405173ffffffffffffffffffffffffffffffffffffffff90911681526020016101bb565b6101d761024c366004611d1c565b6105eb565b604051600081526020016101bb565b6101d761026e366004611cf0565b610611565b6101a4610281366004611d5d565b61065d565b6101a4610294366004611cf0565b61076e565b6101d76102a7366004611d7a565b61083a565b6101a46102ba366004611dc5565b610948565b6101a46102cd366004611d5d565b610955565b6101eb6102e0366004611d5d565b73ffffffffffffffffffffffffffffffffffffffff1660009081526020819052604090205490565b6005546102199073ffffffffffffffffffffffffffffffffffffffff1681565b6006546102199073ffffffffffffffffffffffffffffffffffffffff1681565b610219610adf565b6101ae610bc2565b6101d7610366366004611cf0565b610bd1565b6101a4610379366004611d5d565b610cad565b6101d761038c366004611cf0565b610e43565b6101eb61039f366004611dde565b73ffffffffffffffffffffffffffffffffffffffff918216600090815260016020908152604080832093909416825291909152205490565b610219610e51565b67ffffffffffffffff831660009081526008602052604090205460ff1615610468576040517f08c379a000000000000000000000000000000000000000000000000000000000815260206004820152601660248201527f4f72646572496420616c7265616479206578697374730000000000000000000060448201526064015b60405180910390fd5b61047e33858567ffffffffffffffff168461083a565b6104e4576040517f08c379a000000000000000000000000000000000000000000000000000000000815260206004820152601160248201527f496e76616c6964207369676e6174757265000000000000000000000000000000604482015260640161045f565b6104ee3385610eda565b6040805185815267ffffffffffffffff8581166020830152841681830152905133917f76b268c3e045ccfb05784f52edc03662fa2a6b2dfa05f719605169abc48fa3f7919081900360600190a250505050565b60606003805461055090611e17565b80601f016020809104026020016040519081016040528092919081815260200182805461057c90611e17565b80156105c95780601f1061059e576101008083540402835291602001916105c9565b820191906000526020600020905b8154815290600101906020018083116105ac57829003601f168201915b5050505050905090565b6000336105e1818585610ffa565b5060019392505050565b6000336105f98582856111ae565b610604858585611285565b60019150505b9392505050565b33600081815260016020908152604080832073ffffffffffffffffffffffffffffffffffffffff871684529091528120549091906105e19082908690610658908790611e9a565b610ffa565b60065473ffffffffffffffffffffffffffffffffffffffff1633146106de576040517f08c379a000000000000000000000000000000000000000000000000000000000815260206004820152600f60248201527f4f574e455220464f5242494444454e0000000000000000000000000000000000604482015260640161045f565b60055460405173ffffffffffffffffffffffffffffffffffffffff80841692169033907f1c9f92ac4e71628bcbcaa06d364d40e010aef535184545a709e14cced8ac2d3c90600090a4600580547fffffffffffffffffffffffff00000000000000000000000000000000000000001673ffffffffffffffffffffffffffffffffffffffff92909216919091179055565b610776610adf565b73ffffffffffffffffffffffffffffffffffffffff163373ffffffffffffffffffffffffffffffffffffffff1614806107c6575060065473ffffffffffffffffffffffffffffffffffffffff1633145b61082c576040517f08c379a000000000000000000000000000000000000000000000000000000000815260206004820152600d60248201527f64657620464f5242494444454e00000000000000000000000000000000000000604482015260640161045f565b6108368282610eda565b5050565b6040517fffffffffffffffffffffffffffffffffffffffff000000000000000000000000606086811b82166020840152603483018690526054830185905230901b16607482015260009081906088016040516020818303038152906040528051906020012090506000816040516020016108e091907f19457468657265756d205369676e6564204d6573736167653a0a3332000000008152601c810191909152603c0190565b604080517fffffffffffffffffffffffffffffffffffffffffffffffffffffffffffffffe0818403018152919052805160209091012060075490915061093d9073ffffffffffffffffffffffffffffffffffffffff168286611538565b979650505050505050565b6109523382611727565b50565b61095d610adf565b73ffffffffffffffffffffffffffffffffffffffff163373ffffffffffffffffffffffffffffffffffffffff1614806109ad575060065473ffffffffffffffffffffffffffffffffffffffff1633145b610a13576040517f08c379a000000000000000000000000000000000000000000000000000000000815260206004820152600d60248201527f64657620464f5242494444454e00000000000000000000000000000000000000604482015260640161045f565b60075473ffffffffffffffffffffffffffffffffffffffff82811691161415610a98576040517f08c379a000000000000000000000000000000000000000000000000000000000815260206004820152601260248201527f5468657265206973206e6f206368616e67650000000000000000000000000000604482015260640161045f565b600780547fffffffffffffffffffffffff00000000000000000000000000000000000000001673ffffffffffffffffffffffffffffffffffffffff92909216919091179055565b60055460009073ffffffffffffffffffffffffffffffffffffffff1615610ba557600560009054906101000a900473ffffffffffffffffffffffffffffffffffffffff1673ffffffffffffffffffffffffffffffffffffffff166391cca3db6040518163ffffffff1660e01b815260040160206040518083038186803b158015610b6857600080fd5b505afa158015610b7c573d6000803e3d6000fd5b505050506040513d601f19601f82011682018060405250810190610ba09190611eb2565b905090565b5060065473ffffffffffffffffffffffffffffffffffffffff1690565b60606004805461055090611e17565b33600081815260016020908152604080832073ffffffffffffffffffffffffffffffffffffffff8716845290915281205490919083811015610c95576040517f08c379a000000000000000000000000000000000000000000000000000000000815260206004820152602560248201527f45524332303a2064656372656173656420616c6c6f77616e63652062656c6f7760448201527f207a65726f000000000000000000000000000000000000000000000000000000606482015260840161045f565b610ca28286868403610ffa565b506001949350505050565b60065473ffffffffffffffffffffffffffffffffffffffff163314610d2e576040517f08c379a000000000000000000000000000000000000000000000000000000000815260206004820152600f60248201527f4f574e455220464f5242494444454e0000000000000000000000000000000000604482015260640161045f565b60065473ffffffffffffffffffffffffffffffffffffffff82811691161415610db3576040517f08c379a000000000000000000000000000000000000000000000000000000000815260206004820152601060248201527f4f776e65723a204e4f204348414e474500000000000000000000000000000000604482015260640161045f565b60065460405173ffffffffffffffffffffffffffffffffffffffff80841692169033907f381c0d11398486654573703c51ee8210ce9461764d133f9f0e53b6a53970533190600090a4600680547fffffffffffffffffffffffff00000000000000000000000000000000000000001673ffffffffffffffffffffffffffffffffffffffff92909216919091179055565b6000336105e1818585611285565b60055460009073ffffffffffffffffffffffffffffffffffffffff1615610ba557600560009054906101000a900473ffffffffffffffffffffffffffffffffffffffff1673ffffffffffffffffffffffffffffffffffffffff1663f851a4406040518163ffffffff1660e01b815260040160206040518083038186803b158015610b6857600080fd5b73ffffffffffffffffffffffffffffffffffffffff8216610f57576040517f08c379a000000000000000000000000000000000000000000000000000000000815260206004820152601f60248201527f45524332303a206d696e7420746f20746865207a65726f206164647265737300604482015260640161045f565b8060026000828254610f699190611e9a565b909155505073ffffffffffffffffffffffffffffffffffffffff821660009081526020819052604081208054839290610fa3908490611e9a565b909155505060405181815273ffffffffffffffffffffffffffffffffffffffff8316906000907fddf252ad1be2c89b69c2b068fc378daa952ba7f163c4a11628f55a4df523b3ef9060200160405180910390a35050565b73ffffffffffffffffffffffffffffffffffffffff831661109c576040517f08c379a0000000000000000000000000000000000000000000000000000000008152602060048201526024808201527f45524332303a20617070726f76652066726f6d20746865207a65726f2061646460448201527f7265737300000000000000000000000000000000000000000000000000000000606482015260840161045f565b73ffffffffffffffffffffffffffffffffffffffff821661113f576040517f08c379a000000000000000000000000000000000000000000000000000000000815260206004820152602260248201527f45524332303a20617070726f766520746f20746865207a65726f20616464726560448201527f7373000000000000000000000000000000000000000000000000000000000000606482015260840161045f565b73ffffffffffffffffffffffffffffffffffffffff83811660008181526001602090815260408083209487168084529482529182902085905590518481527f8c5be1e5ebec7d5bd14f71427d1e84f3dd0314c0f7b2291e5b200ac8c7c3b92591015b60405180910390a3505050565b73ffffffffffffffffffffffffffffffffffffffff8381166000908152600160209081526040808320938616835292905220547fffffffffffffffffffffffffffffffffffffffffffffffffffffffffffffffff811461127f5781811015611272576040517f08c379a000000000000000000000000000000000000000000000000000000000815260206004820152601d60248201527f45524332303a20696e73756666696369656e7420616c6c6f77616e6365000000604482015260640161045f565b61127f8484848403610ffa565b50505050565b73ffffffffffffffffffffffffffffffffffffffff8316611328576040517f08c379a000000000000000000000000000000000000000000000000000000000815260206004820152602560248201527f45524332303a207472616e736665722066726f6d20746865207a65726f20616460448201527f6472657373000000000000000000000000000000000000000000000000000000606482015260840161045f565b73ffffffffffffffffffffffffffffffffffffffff82166113cb576040517f08c379a000000000000000000000000000000000000000000000000000000000815260206004820152602360248201527f45524332303a207472616e7366657220746f20746865207a65726f206164647260448201527f6573730000000000000000000000000000000000000000000000000000000000606482015260840161045f565b73ffffffffffffffffffffffffffffffffffffffff831660009081526020819052604090205481811015611481576040517f08c379a000000000000000000000000000000000000000000000000000000000815260206004820152602660248201527f45524332303a207472616e7366657220616d6f756e742065786365656473206260448201527f616c616e63650000000000000000000000000000000000000000000000000000606482015260840161045f565b73ffffffffffffffffffffffffffffffffffffffff8085166000908152602081905260408082208585039055918516815290812080548492906114c5908490611e9a565b925050819055508273ffffffffffffffffffffffffffffffffffffffff168473ffffffffffffffffffffffffffffffffffffffff167fddf252ad1be2c89b69c2b068fc378daa952ba7f163c4a11628f55a4df523b3ef8460405161152b91815260200190565b60405180910390a361127f565b6000806000611547858561190c565b9092509050600081600481111561156057611560611ecf565b14801561159857508573ffffffffffffffffffffffffffffffffffffffff168273ffffffffffffffffffffffffffffffffffffffff16145b156115a85760019250505061060a565b6000808773ffffffffffffffffffffffffffffffffffffffff16631626ba7e60e01b88886040516024016115dd929190611efe565b604080517fffffffffffffffffffffffffffffffffffffffffffffffffffffffffffffffe08184030181529181526020820180517bffffffffffffffffffffffffffffffffffffffffffffffffffffffff167fffffffff000000000000000000000000000000000000000000000000000000009094169390931790925290516116669190611f1f565b600060405180830381855afa9150503d80600081146116a1576040519150601f19603f3d011682016040523d82523d6000602084013e6116a6565b606091505b50915091508180156116b9575080516020145b801561171b575080517f1626ba7e00000000000000000000000000000000000000000000000000000000906116f79083016020908101908401611f3b565b7fffffffff0000000000000000000000000000000000000000000000000000000016145b98975050505050505050565b73ffffffffffffffffffffffffffffffffffffffff82166117ca576040517f08c379a000000000000000000000000000000000000000000000000000000000815260206004820152602160248201527f45524332303a206275726e2066726f6d20746865207a65726f2061646472657360448201527f7300000000000000000000000000000000000000000000000000000000000000606482015260840161045f565b73ffffffffffffffffffffffffffffffffffffffff821660009081526020819052604090205481811015611880576040517f08c379a000000000000000000000000000000000000000000000000000000000815260206004820152602260248201527f45524332303a206275726e20616d6f756e7420657863656564732062616c616e60448201527f6365000000000000000000000000000000000000000000000000000000000000606482015260840161045f565b73ffffffffffffffffffffffffffffffffffffffff831660009081526020819052604081208383039055600280548492906118bc908490611f7d565b909155505060405182815260009073ffffffffffffffffffffffffffffffffffffffff8516907fddf252ad1be2c89b69c2b068fc378daa952ba7f163c4a11628f55a4df523b3ef906020016111a1565b6000808251604114156119435760208301516040840151606085015160001a6119378782858561197c565b94509450505050611975565b82516040141561196d5760208301516040840151611962868383611a94565b935093505050611975565b506000905060025b9250929050565b6000807f7fffffffffffffffffffffffffffffff5d576e7357a4501ddfe92f46681b20a08311156119b35750600090506003611a8b565b8460ff16601b141580156119cb57508460ff16601c14155b156119dc5750600090506004611a8b565b6040805160008082526020820180845289905260ff881692820192909252606081018690526080810185905260019060a0016020604051602081039080840390855afa158015611a30573d6000803e3d6000fd5b50506040517fffffffffffffffffffffffffffffffffffffffffffffffffffffffffffffffe0015191505073ffffffffffffffffffffffffffffffffffffffff8116611a8457600060019250925050611a8b565b9150600090505b94509492505050565b6000807f7fffffffffffffffffffffffffffffffffffffffffffffffffffffffffffffff831681611aca60ff86901c601b611e9a565b9050611ad88782888561197c565b935093505050935093915050565b803567ffffffffffffffff81168114611afe57600080fd5b919050565b7f4e487b7100000000000000000000000000000000000000000000000000000000600052604160045260246000fd5b600082601f830112611b4357600080fd5b813567ffffffffffffffff80821115611b5e57611b5e611b03565b604051601f83017fffffffffffffffffffffffffffffffffffffffffffffffffffffffffffffffe0908116603f01168101908282118183101715611ba457611ba4611b03565b81604052838152866020858801011115611bbd57600080fd5b836020870160208301376000602085830101528094505050505092915050565b60008060008060808587031215611bf357600080fd5b84359350611c0360208601611ae6565b9250611c1160408601611ae6565b9150606085013567ffffffffffffffff811115611c2d57600080fd5b611c3987828801611b32565b91505092959194509250565b60005b83811015611c60578181015183820152602001611c48565b8381111561127f5750506000910152565b60008151808452611c89816020860160208601611c45565b601f017fffffffffffffffffffffffffffffffffffffffffffffffffffffffffffffffe0169290920160200192915050565b60208152600061060a6020830184611c71565b73ffffffffffffffffffffffffffffffffffffffff8116811461095257600080fd5b60008060408385031215611d0357600080fd5b8235611d0e81611cce565b946020939093013593505050565b600080600060608486031215611d3157600080fd5b8335611d3c81611cce565b92506020840135611d4c81611cce565b929592945050506040919091013590565b600060208284031215611d6f57600080fd5b813561060a81611cce565b60008060008060808587031215611d9057600080fd5b8435611d9b81611cce565b93506020850135925060408501359150606085013567ffffffffffffffff811115611c2d57600080fd5b600060208284031215611dd757600080fd5b5035919050565b60008060408385031215611df157600080fd5b8235611dfc81611cce565b91506020830135611e0c81611cce565b809150509250929050565b600181811c90821680611e2b57607f821691505b60208210811415611e65577f4e487b7100000000000000000000000000000000000000000000000000000000600052602260045260246000fd5b50919050565b7f4e487b7100000000000000000000000000000000000000000000000000000000600052601160045260246000fd5b60008219821115611ead57611ead611e6b565b500190565b600060208284031215611ec457600080fd5b815161060a81611cce565b7f4e487b7100000000000000000000000000000000000000000000000000000000600052602160045260246000fd5b828152604060208201526000611f176040830184611c71565b949350505050565b60008251611f31818460208701611c45565b9190910192915050565b600060208284031215611f4d57600080fd5b81517fffffffff000000000000000000000000000000000000000000000000000000008116811461060a57600080fd5b600082821015611f8f57611f8f611e6b565b50039056fea2646970667358221220351c1f5d58cbf92a354045da4fbc75fe742f4a84cdb812ebb2907cd2fe8ed0be64736f6c63430008090033",
  "linkReferences": {},
  "deployedLinkReferences": {}
}