{
  "_format": "hh-sol-artifact-1",
  "contractName": "RewardAgent",
  "sourceName": "contracts/RewardAgent.sol",
  "abi": [
    {
      "anonymous": false,
      "inputs": [
        {
          "indexed": true,
          "internalType": "address",
          "name": "_user",
          "type": "address"
        },
        {
          "indexed": true,
          "internalType": "address",
          "name": "_old",
          "type": "address"
        },
        {
          "indexed": true,
          "internalType": "address",
          "name": "_new",
          "type": "address"
        }
      ],
      "name": "ConfigChanged",
      "type": "event"
    },
    {
      "anonymous": false,
      "inputs": [
        {
          "indexed": true,
          "internalType": "address",
          "name": "_user",
          "type": "address"
        },
        {
          "indexed": true,
          "internalType": "address",
          "name": "_old",
          "type": "address"
        },
        {
          "indexed": true,
          "internalType": "address",
          "name": "_new",
          "type": "address"
        }
      ],
      "name": "OwnerChanged",
      "type": "event"
    },
    {
      "anonymous": false,
      "inputs": [
        {
          "indexed": true,
          "internalType": "address",
          "name": "receiver",
          "type": "address"
        },
        {
          "indexed": false,
          "internalType": "address",
          "name": "nft",
          "type": "address"
        },
        {
          "indexed": false,
          "internalType": "uint256",
          "name": "tokenId",
          "type": "uint256"
        },
        {
          "indexed": false,
          "internalType": "uint256",
          "name": "amount",
          "type": "uint256"
        },
        {
          "indexed": false,
          "internalType": "uint256",
          "name": "orderId",
          "type": "uint256"
        }
      ],
      "name": "SendERC1155Reward",
      "type": "event"
    },
    {
      "anonymous": false,
      "inputs": [
        {
          "indexed": true,
          "internalType": "address",
          "name": "receiver",
          "type": "address"
        },
        {
          "indexed": false,
          "internalType": "address",
          "name": "token",
          "type": "address"
        },
        {
          "indexed": false,
          "internalType": "uint256",
          "name": "amount",
          "type": "uint256"
        },
        {
          "indexed": false,
          "internalType": "uint256",
          "name": "orderId",
          "type": "uint256"
        }
      ],
      "name": "SendERC20Reward",
      "type": "event"
    },
    {
      "anonymous": false,
      "inputs": [
        {
          "indexed": true,
          "internalType": "address",
          "name": "receiver",
          "type": "address"
        },
        {
          "indexed": false,
          "internalType": "address",
          "name": "nft",
          "type": "address"
        },
        {
          "indexed": false,
          "internalType": "uint256",
          "name": "tokenId",
          "type": "uint256"
        },
        {
          "indexed": false,
          "internalType": "uint256",
          "name": "orderId",
          "type": "uint256"
        }
      ],
      "name": "SendERC721Reward",
      "type": "event"
    },
    {
      "inputs": [],
      "name": "admin",
      "outputs": [
        {
          "internalType": "address",
          "name": "",
          "type": "address"
        }
      ],
      "stateMutability": "view",
      "type": "function"
    },
    {
      "inputs": [
        {
          "internalType": "address",
          "name": "_user",
          "type": "address"
        }
      ],
      "name": "changeOwner",
      "outputs": [],
      "stateMutability": "nonpayable",
      "type": "function"
    },
    {
      "inputs": [
        {
          "internalType": "address",
          "name": "",
          "type": "address"
        },
        {
          "internalType": "address",
          "name": "",
          "type": "address"
        },
        {
          "internalType": "uint256",
          "name": "",
          "type": "uint256"
        },
        {
          "internalType": "uint256",
          "name": "",
          "type": "uint256"
        },
        {
          "internalType": "uint64",
          "name": "",
          "type": "uint64"
        },
        {
          "internalType": "bytes",
          "name": "",
          "type": "bytes"
        }
      ],
      "name": "claimERC1155",
      "outputs": [
        {
          "internalType": "bool",
          "name": "",
          "type": "bool"
        }
      ],
      "stateMutability": "pure",
      "type": "function"
    },
    {
      "inputs": [
        {
          "internalType": "address",
          "name": "to",
          "type": "address"
        },
        {
          "internalType": "address",
          "name": "token",
          "type": "address"
        },
        {
          "internalType": "uint256",
          "name": "amount",
          "type": "uint256"
        },
        {
          "internalType": "uint64",
          "name": "orderId",
          "type": "uint64"
        },
        {
          "internalType": "bytes",
          "name": "signature",
          "type": "bytes"
        }
      ],
      "name": "claimERC20",
      "outputs": [
        {
          "internalType": "bool",
          "name": "",
          "type": "bool"
        }
      ],
      "stateMutability": "nonpayable",
      "type": "function"
    },
    {
      "inputs": [
        {
          "internalType": "address",
          "name": "",
          "type": "address"
        },
        {
          "internalType": "address",
          "name": "",
          "type": "address"
        },
        {
          "internalType": "uint256",
          "name": "",
          "type": "uint256"
        },
        {
          "internalType": "uint64",
          "name": "",
          "type": "uint64"
        },
        {
          "internalType": "bytes",
          "name": "",
          "type": "bytes"
        }
      ],
      "name": "claimERC721",
      "outputs": [
        {
          "internalType": "bool",
          "name": "",
          "type": "bool"
        }
      ],
      "stateMutability": "pure",
      "type": "function"
    },
    {
      "inputs": [],
      "name": "config",
      "outputs": [
        {
          "internalType": "address",
          "name": "",
          "type": "address"
        }
      ],
      "stateMutability": "view",
      "type": "function"
    },
    {
      "inputs": [],
      "name": "dev",
      "outputs": [
        {
          "internalType": "address",
          "name": "",
          "type": "address"
        }
      ],
      "stateMutability": "view",
      "type": "function"
    },
    {
      "inputs": [
        {
          "internalType": "address",
          "name": "signer_",
          "type": "address"
        },
        {
          "internalType": "address",
          "name": "treasury_",
          "type": "address"
        }
      ],
      "name": "initialize",
      "outputs": [],
      "stateMutability": "nonpayable",
      "type": "function"
    },
    {
      "inputs": [],
      "name": "owner",
      "outputs": [
        {
          "internalType": "address",
          "name": "",
          "type": "address"
        }
      ],
      "stateMutability": "view",
      "type": "function"
    },
    {
      "inputs": [
        {
          "internalType": "address",
          "name": "signer_",
          "type": "address"
        }
      ],
      "name": "setSigner",
      "outputs": [],
      "stateMutability": "nonpayable",
      "type": "function"
    },
    {
      "inputs": [
        {
          "internalType": "address",
          "name": "treasury_",
          "type": "address"
        }
      ],
      "name": "setTreasury",
      "outputs": [],
      "stateMutability": "nonpayable",
      "type": "function"
    },
    {
      "inputs": [
        {
          "internalType": "address",
          "name": "_config",
          "type": "address"
        }
      ],
      "name": "setupConfig",
      "outputs": [],
      "stateMutability": "nonpayable",
      "type": "function"
    },
    {
      "inputs": [],
      "name": "signer",
      "outputs": [
        {
          "internalType": "address",
          "name": "",
          "type": "address"
        }
      ],
      "stateMutability": "view",
      "type": "function"
    },
    {
      "inputs": [],
      "name": "totalCount",
      "outputs": [
        {
          "internalType": "uint128",
          "name": "",
          "type": "uint128"
        }
      ],
      "stateMutability": "view",
      "type": "function"
    },
    {
      "inputs": [],
      "name": "treasury",
      "outputs": [
        {
          "internalType": "address",
          "name": "",
          "type": "address"
        }
      ],
      "stateMutability": "view",
      "type": "function"
    },
    {
      "inputs": [
        {
          "internalType": "address",
          "name": "",
          "type": "address"
        }
      ],
      "name": "userCounter",
      "outputs": [
        {
          "internalType": "uint64",
          "name": "",
          "type": "uint64"
        }
      ],
      "stateMutability": "view",
      "type": "function"
    },
    {
      "inputs": [
        {
          "internalType": "address",
          "name": "to",
          "type": "address"
        },
        {
          "internalType": "address",
          "name": "token",
          "type": "address"
        },
        {
          "internalType": "uint256",
          "name": "amount",
          "type": "uint256"
        },
        {
          "internalType": "uint256",
          "name": "orderId",
          "type": "uint256"
        },
        {
          "internalType": "bytes",
          "name": "signature",
          "type": "bytes"
        }
      ],
      "name": "verifyClaimERC20",
      "outputs": [
        {
          "internalType": "bool",
          "name": "",
          "type": "bool"
        }
      ],
      "stateMutability": "view",
      "type": "function"
    }
  ],
  "bytecode": "0x608060405234801561001057600080fd5b50611a31806100206000396000f3fe608060405234801561001057600080fd5b506004361061011b5760003560e01c806379502c55116100b2578063c9f12e5611610081578063d9d897d511610066578063d9d897d5146102c6578063f0f4426014610309578063f851a4401461031c57600080fd5b8063c9f12e5614610299578063d3d07cd9146102ac57600080fd5b806379502c551461023e5780638da5cb5b1461025e57806391cca3db1461027e578063a6f9dae11461028657600080fd5b80634b97ab25116100ee5780634b97ab25146101cf57806361d027b3146101f25780636996f3ea146102125780636c19e7831461022b57600080fd5b8063238ac9331461012057806334eafb111461016a5780633d50f2e0146101a7578063485cc955146101bc575b600080fd5b6002546101409073ffffffffffffffffffffffffffffffffffffffff1681565b60405173ffffffffffffffffffffffffffffffffffffffff90911681526020015b60405180910390f35b600454610186906fffffffffffffffffffffffffffffffff1681565b6040516fffffffffffffffffffffffffffffffff9091168152602001610161565b6101ba6101b536600461155d565b610324565b005b6101ba6101ca36600461157a565b61043a565b6101e26101dd36600461168d565b610688565b6040519015158152602001610161565b6003546101409073ffffffffffffffffffffffffffffffffffffffff1681565b6101e2610220366004611720565b600195945050505050565b6101ba61023936600461155d565b6107a1565b6000546101409073ffffffffffffffffffffffffffffffffffffffff1681565b6001546101409073ffffffffffffffffffffffffffffffffffffffff1681565b61014061092b565b6101ba61029436600461155d565b610a0a565b6101e26102a7366004611720565b610ba0565b6101e26102ba366004611784565b60019695505050505050565b6102f06102d436600461155d565b60056020526000908152604090205467ffffffffffffffff1681565b60405167ffffffffffffffff9091168152602001610161565b6101ba61031736600461155d565b610e45565b610140610f4a565b60015473ffffffffffffffffffffffffffffffffffffffff1633146103aa576040517f08c379a000000000000000000000000000000000000000000000000000000000815260206004820152600f60248201527f4f574e455220464f5242494444454e000000000000000000000000000000000060448201526064015b60405180910390fd5b6000805460405173ffffffffffffffffffffffffffffffffffffffff8085169392169133917f1c9f92ac4e71628bcbcaa06d364d40e010aef535184545a709e14cced8ac2d3c9190a4600080547fffffffffffffffffffffffff00000000000000000000000000000000000000001673ffffffffffffffffffffffffffffffffffffffff92909216919091179055565b6001547501000000000000000000000000000000000000000000900460ff166104815760015474010000000000000000000000000000000000000000900460ff1615610485565b303b155b610511576040517f08c379a000000000000000000000000000000000000000000000000000000000815260206004820152602e60248201527f496e697469616c697a61626c653a20636f6e747261637420697320616c72656160448201527f647920696e697469616c697a656400000000000000000000000000000000000060648201526084016103a1565b6001547501000000000000000000000000000000000000000000900460ff1615801561057857600180547fffffffffffffffffffff0000ffffffffffffffffffffffffffffffffffffffff1675010100000000000000000000000000000000000000001790555b73ffffffffffffffffffffffffffffffffffffffff83166105f5576040517f08c379a000000000000000000000000000000000000000000000000000000000815260206004820152600c60248201527f5a65726f2061646472657373000000000000000000000000000000000000000060448201526064016103a1565b60018054337fffffffffffffffffffffffff00000000000000000000000000000000000000009182161790915560028054821673ffffffffffffffffffffffffffffffffffffffff8681169190911790915560038054909216908416179055801561068357600180547fffffffffffffffffffff00ffffffffffffffffffffffffffffffffffffffffff1690555b505050565b6040517fffffffffffffffffffffffffffffffffffffffff000000000000000000000000606087811b8216602084015286811b82166034840152604883018690526068830185905230901b1660888201526000908190609c0160405160208183030381529060405280519060200120905060008160405160200161073891907f19457468657265756d205369676e6564204d6573736167653a0a3332000000008152601c810191909152603c0190565b604080517fffffffffffffffffffffffffffffffffffffffffffffffffffffffffffffffe081840301815291905280516020909101206002549091506107959073ffffffffffffffffffffffffffffffffffffffff168286610fcf565b98975050505050505050565b6107a961092b565b73ffffffffffffffffffffffffffffffffffffffff163373ffffffffffffffffffffffffffffffffffffffff1614806107f9575060015473ffffffffffffffffffffffffffffffffffffffff1633145b61085f576040517f08c379a000000000000000000000000000000000000000000000000000000000815260206004820152600d60248201527f64657620464f5242494444454e0000000000000000000000000000000000000060448201526064016103a1565b60025473ffffffffffffffffffffffffffffffffffffffff828116911614156108e4576040517f08c379a000000000000000000000000000000000000000000000000000000000815260206004820152601260248201527f5468657265206973206e6f206368616e6765000000000000000000000000000060448201526064016103a1565b600280547fffffffffffffffffffffffff00000000000000000000000000000000000000001673ffffffffffffffffffffffffffffffffffffffff92909216919091179055565b6000805473ffffffffffffffffffffffffffffffffffffffff16156109ed5760008054906101000a900473ffffffffffffffffffffffffffffffffffffffff1673ffffffffffffffffffffffffffffffffffffffff166391cca3db6040518163ffffffff1660e01b815260040160206040518083038186803b1580156109b057600080fd5b505afa1580156109c4573d6000803e3d6000fd5b505050506040513d601f19601f820116820180604052508101906109e89190611809565b905090565b5060015473ffffffffffffffffffffffffffffffffffffffff1690565b60015473ffffffffffffffffffffffffffffffffffffffff163314610a8b576040517f08c379a000000000000000000000000000000000000000000000000000000000815260206004820152600f60248201527f4f574e455220464f5242494444454e000000000000000000000000000000000060448201526064016103a1565b60015473ffffffffffffffffffffffffffffffffffffffff82811691161415610b10576040517f08c379a000000000000000000000000000000000000000000000000000000000815260206004820152601060248201527f4f776e65723a204e4f204348414e47450000000000000000000000000000000060448201526064016103a1565b60015460405173ffffffffffffffffffffffffffffffffffffffff80841692169033907f381c0d11398486654573703c51ee8210ce9461764d133f9f0e53b6a53970533190600090a4600180547fffffffffffffffffffffffff00000000000000000000000000000000000000001673ffffffffffffffffffffffffffffffffffffffff92909216919091179055565b67ffffffffffffffff821660009081526006602052604081205460ff1615610c24576040517f08c379a000000000000000000000000000000000000000000000000000000000815260206004820152601660248201527f4f72646572496420616c7265616479206578697374730000000000000000000060448201526064016103a1565b610c3b8686868667ffffffffffffffff1686610688565b610ca1576040517f08c379a000000000000000000000000000000000000000000000000000000000815260206004820152601160248201527f496e76616c6964207369676e617475726500000000000000000000000000000060448201526064016103a1565b67ffffffffffffffff808416600090815260066020908152604080832080547fffffffffffffffffffffffffffffffffffffffffffffffffffffffffffffff0016600190811790915573ffffffffffffffffffffffffffffffffffffffff8b1684526005909252822080549193909291610d1d91859116611855565b92506101000a81548167ffffffffffffffff021916908367ffffffffffffffff1602179055506001600460008282829054906101000a90046fffffffffffffffffffffffffffffffff16610d719190611881565b92506101000a8154816fffffffffffffffffffffffffffffffff02191690836fffffffffffffffffffffffffffffffff160217905550610dd585600360009054906101000a900473ffffffffffffffffffffffffffffffffffffffff1688876111c0565b6040805173ffffffffffffffffffffffffffffffffffffffff87811682526020820187905267ffffffffffffffff8616828401529151918816917fe7ece7df9f9bc6495310995abd114afbf35d4f2480d911cb6a8671d197d9b70d9181900360600190a250600195945050505050565b610e4d61092b565b73ffffffffffffffffffffffffffffffffffffffff163373ffffffffffffffffffffffffffffffffffffffff161480610e9d575060015473ffffffffffffffffffffffffffffffffffffffff1633145b610f03576040517f08c379a000000000000000000000000000000000000000000000000000000000815260206004820152600d60248201527f64657620464f5242494444454e0000000000000000000000000000000000000060448201526064016103a1565b600380547fffffffffffffffffffffffff00000000000000000000000000000000000000001673ffffffffffffffffffffffffffffffffffffffff92909216919091179055565b6000805473ffffffffffffffffffffffffffffffffffffffff16156109ed5760008054906101000a900473ffffffffffffffffffffffffffffffffffffffff1673ffffffffffffffffffffffffffffffffffffffff1663f851a4406040518163ffffffff1660e01b815260040160206040518083038186803b1580156109b057600080fd5b6000806000610fde858561135e565b90925090506000816004811115610ff757610ff76118ac565b14801561102f57508573ffffffffffffffffffffffffffffffffffffffff168273ffffffffffffffffffffffffffffffffffffffff16145b1561103f576001925050506111b9565b6000808773ffffffffffffffffffffffffffffffffffffffff16631626ba7e60e01b888860405160240161107492919061190b565b604080517fffffffffffffffffffffffffffffffffffffffffffffffffffffffffffffffe08184030181529181526020820180517bffffffffffffffffffffffffffffffffffffffffffffffffffffffff167fffffffff000000000000000000000000000000000000000000000000000000009094169390931790925290516110fd9190611963565b600060405180830381855afa9150503d8060008114611138576040519150601f19603f3d011682016040523d82523d6000602084013e61113d565b606091505b5091509150818015611150575080516020145b80156111b2575080517f1626ba7e000000000000000000000000000000000000000000000000000000009061118e908301602090810190840161197f565b7fffffffff0000000000000000000000000000000000000000000000000000000016145b9450505050505b9392505050565b6040805173ffffffffffffffffffffffffffffffffffffffff85811660248301528481166044830152606480830185905283518084039091018152608490920183526020820180517bffffffffffffffffffffffffffffffffffffffffffffffffffffffff167f23b872dd00000000000000000000000000000000000000000000000000000000179052915160009283929088169161125f9190611963565b6000604051808303816000865af19150503d806000811461129c576040519150601f19603f3d011682016040523d82523d6000602084013e6112a1565b606091505b50915091508180156112cb5750805115806112cb5750808060200190518101906112cb91906119c1565b611356576040517f08c379a0000000000000000000000000000000000000000000000000000000008152602060048201526024808201527f5472616e7366657248656c7065723a205452414e534645525f46524f4d5f464160448201527f494c45440000000000000000000000000000000000000000000000000000000060648201526084016103a1565b505050505050565b6000808251604114156113955760208301516040840151606085015160001a611389878285856113ce565b945094505050506113c7565b8251604014156113bf57602083015160408401516113b48683836114e6565b9350935050506113c7565b506000905060025b9250929050565b6000807f7fffffffffffffffffffffffffffffff5d576e7357a4501ddfe92f46681b20a083111561140557506000905060036114dd565b8460ff16601b1415801561141d57508460ff16601c14155b1561142e57506000905060046114dd565b6040805160008082526020820180845289905260ff881692820192909252606081018690526080810185905260019060a0016020604051602081039080840390855afa158015611482573d6000803e3d6000fd5b50506040517fffffffffffffffffffffffffffffffffffffffffffffffffffffffffffffffe0015191505073ffffffffffffffffffffffffffffffffffffffff81166114d6576000600192509250506114dd565b9150600090505b94509492505050565b6000807f7fffffffffffffffffffffffffffffffffffffffffffffffffffffffffffffff83168161151c60ff86901c601b6119e3565b905061152a878288856113ce565b935093505050935093915050565b73ffffffffffffffffffffffffffffffffffffffff8116811461155a57600080fd5b50565b60006020828403121561156f57600080fd5b81356111b981611538565b6000806040838503121561158d57600080fd5b823561159881611538565b915060208301356115a881611538565b809150509250929050565b7f4e487b7100000000000000000000000000000000000000000000000000000000600052604160045260246000fd5b600082601f8301126115f357600080fd5b813567ffffffffffffffff8082111561160e5761160e6115b3565b604051601f83017fffffffffffffffffffffffffffffffffffffffffffffffffffffffffffffffe0908116603f01168101908282118183101715611654576116546115b3565b8160405283815286602085880101111561166d57600080fd5b836020870160208301376000602085830101528094505050505092915050565b600080600080600060a086880312156116a557600080fd5b85356116b081611538565b945060208601356116c081611538565b93506040860135925060608601359150608086013567ffffffffffffffff8111156116ea57600080fd5b6116f6888289016115e2565b9150509295509295909350565b803567ffffffffffffffff8116811461171b57600080fd5b919050565b600080600080600060a0868803121561173857600080fd5b853561174381611538565b9450602086013561175381611538565b93506040860135925061176860608701611703565b9150608086013567ffffffffffffffff8111156116ea57600080fd5b60008060008060008060c0878903121561179d57600080fd5b86356117a881611538565b955060208701356117b881611538565b945060408701359350606087013592506117d460808801611703565b915060a087013567ffffffffffffffff8111156117f057600080fd5b6117fc89828a016115e2565b9150509295509295509295565b60006020828403121561181b57600080fd5b81516111b981611538565b7f4e487b7100000000000000000000000000000000000000000000000000000000600052601160045260246000fd5b600067ffffffffffffffff80831681851680830382111561187857611878611826565b01949350505050565b60006fffffffffffffffffffffffffffffffff80831681851680830382111561187857611878611826565b7f4e487b7100000000000000000000000000000000000000000000000000000000600052602160045260246000fd5b60005b838110156118f65781810151838201526020016118de565b83811115611905576000848401525b50505050565b82815260406020820152600082518060408401526119308160608501602087016118db565b601f017fffffffffffffffffffffffffffffffffffffffffffffffffffffffffffffffe016919091016060019392505050565b600082516119758184602087016118db565b9190910192915050565b60006020828403121561199157600080fd5b81517fffffffff00000000000000000000000000000000000000000000000000000000811681146111b957600080fd5b6000602082840312156119d357600080fd5b815180151581146111b957600080fd5b600082198211156119f6576119f6611826565b50019056fea264697066735822122056deaafb7ec1d84a0bec0ca624a7f491b0e66ad40c4284edb55eac36e7071f8764736f6c63430008090033",
  "linkReferences": {},
  "deployedLinkReferences": {}
}