{
  "_format": "hh-sol-artifact-1",
  "contractName": "RewardAgent",
  "sourceName": "contracts/RewardAgent.sol",
  "abi": [
    {
      "anonymous": false,
      "inputs": [
        {
          "indexed": true,
          "internalType": "address",
          "name": "_user",
          "type": "address"
        },
        {
          "indexed": true,
          "internalType": "address",
          "name": "_old",
          "type": "address"
        },
        {
          "indexed": true,
          "internalType": "address",
          "name": "_new",
          "type": "address"
        }
      ],
      "name": "ConfigChanged",
      "type": "event"
    },
    {
      "anonymous": false,
      "inputs": [
        {
          "indexed": true,
          "internalType": "address",
          "name": "_user",
          "type": "address"
        },
        {
          "indexed": true,
          "internalType": "address",
          "name": "_old",
          "type": "address"
        },
        {
          "indexed": true,
          "internalType": "address",
          "name": "_new",
          "type": "address"
        }
      ],
      "name": "OwnerChanged",
      "type": "event"
    },
    {
      "anonymous": false,
      "inputs": [
        {
          "indexed": true,
          "internalType": "address",
          "name": "receiver",
          "type": "address"
        },
        {
          "indexed": false,
          "internalType": "address",
          "name": "nft",
          "type": "address"
        },
        {
          "indexed": false,
          "internalType": "uint256",
          "name": "tokenId",
          "type": "uint256"
        },
        {
          "indexed": false,
          "internalType": "uint256",
          "name": "amount",
          "type": "uint256"
        },
        {
          "indexed": false,
          "internalType": "uint64",
          "name": "orderId",
          "type": "uint64"
        },
        {
          "indexed": false,
          "internalType": "uint64",
          "name": "txId",
          "type": "uint64"
        }
      ],
      "name": "SendERC1155Reward",
      "type": "event"
    },
    {
      "anonymous": false,
      "inputs": [
        {
          "indexed": true,
          "internalType": "address",
          "name": "receiver",
          "type": "address"
        },
        {
          "indexed": false,
          "internalType": "address",
          "name": "token",
          "type": "address"
        },
        {
          "indexed": false,
          "internalType": "uint256",
          "name": "amount",
          "type": "uint256"
        },
        {
          "indexed": false,
          "internalType": "uint64",
          "name": "orderId",
          "type": "uint64"
        },
        {
          "indexed": false,
          "internalType": "uint64",
          "name": "txId",
          "type": "uint64"
        }
      ],
      "name": "SendERC20Reward",
      "type": "event"
    },
    {
      "anonymous": false,
      "inputs": [
        {
          "indexed": true,
          "internalType": "address",
          "name": "receiver",
          "type": "address"
        },
        {
          "indexed": false,
          "internalType": "address",
          "name": "nft",
          "type": "address"
        },
        {
          "indexed": false,
          "internalType": "uint256",
          "name": "tokenId",
          "type": "uint256"
        },
        {
          "indexed": false,
          "internalType": "uint64",
          "name": "orderId",
          "type": "uint64"
        },
        {
          "indexed": false,
          "internalType": "uint64",
          "name": "txId",
          "type": "uint64"
        }
      ],
      "name": "SendERC721Reward",
      "type": "event"
    },
    {
      "inputs": [],
      "name": "admin",
      "outputs": [
        {
          "internalType": "address",
          "name": "",
          "type": "address"
        }
      ],
      "stateMutability": "view",
      "type": "function"
    },
    {
      "inputs": [
        {
          "internalType": "address",
          "name": "_user",
          "type": "address"
        }
      ],
      "name": "changeOwner",
      "outputs": [],
      "stateMutability": "nonpayable",
      "type": "function"
    },
    {
      "inputs": [
        {
          "internalType": "address",
          "name": "",
          "type": "address"
        },
        {
          "internalType": "address",
          "name": "",
          "type": "address"
        },
        {
          "internalType": "uint256",
          "name": "",
          "type": "uint256"
        },
        {
          "internalType": "uint256",
          "name": "",
          "type": "uint256"
        },
        {
          "internalType": "uint64",
          "name": "",
          "type": "uint64"
        },
        {
          "internalType": "uint64",
          "name": "",
          "type": "uint64"
        },
        {
          "internalType": "bytes",
          "name": "",
          "type": "bytes"
        }
      ],
      "name": "claimERC1155",
      "outputs": [
        {
          "internalType": "bool",
          "name": "",
          "type": "bool"
        }
      ],
      "stateMutability": "pure",
      "type": "function"
    },
    {
      "inputs": [
        {
          "internalType": "address",
          "name": "to",
          "type": "address"
        },
        {
          "internalType": "address",
          "name": "token",
          "type": "address"
        },
        {
          "internalType": "uint256",
          "name": "amount",
          "type": "uint256"
        },
        {
          "internalType": "uint64",
          "name": "orderId",
          "type": "uint64"
        },
        {
          "internalType": "uint64",
          "name": "txId",
          "type": "uint64"
        },
        {
          "internalType": "bytes",
          "name": "signature",
          "type": "bytes"
        }
      ],
      "name": "claimERC20",
      "outputs": [
        {
          "internalType": "bool",
          "name": "",
          "type": "bool"
        }
      ],
      "stateMutability": "nonpayable",
      "type": "function"
    },
    {
      "inputs": [
        {
          "internalType": "address",
          "name": "",
          "type": "address"
        },
        {
          "internalType": "address",
          "name": "",
          "type": "address"
        },
        {
          "internalType": "uint256",
          "name": "",
          "type": "uint256"
        },
        {
          "internalType": "uint64",
          "name": "",
          "type": "uint64"
        },
        {
          "internalType": "uint64",
          "name": "",
          "type": "uint64"
        },
        {
          "internalType": "bytes",
          "name": "",
          "type": "bytes"
        }
      ],
      "name": "claimERC721",
      "outputs": [
        {
          "internalType": "bool",
          "name": "",
          "type": "bool"
        }
      ],
      "stateMutability": "pure",
      "type": "function"
    },
    {
      "inputs": [],
      "name": "config",
      "outputs": [
        {
          "internalType": "address",
          "name": "",
          "type": "address"
        }
      ],
      "stateMutability": "view",
      "type": "function"
    },
    {
      "inputs": [],
      "name": "dev",
      "outputs": [
        {
          "internalType": "address",
          "name": "",
          "type": "address"
        }
      ],
      "stateMutability": "view",
      "type": "function"
    },
    {
      "inputs": [
        {
          "internalType": "address",
          "name": "signer_",
          "type": "address"
        },
        {
          "internalType": "address",
          "name": "treasury_",
          "type": "address"
        }
      ],
      "name": "initialize",
      "outputs": [],
      "stateMutability": "nonpayable",
      "type": "function"
    },
    {
      "inputs": [],
      "name": "owner",
      "outputs": [
        {
          "internalType": "address",
          "name": "",
          "type": "address"
        }
      ],
      "stateMutability": "view",
      "type": "function"
    },
    {
      "inputs": [
        {
          "internalType": "address",
          "name": "signer_",
          "type": "address"
        }
      ],
      "name": "setSigner",
      "outputs": [],
      "stateMutability": "nonpayable",
      "type": "function"
    },
    {
      "inputs": [
        {
          "internalType": "address",
          "name": "treasury_",
          "type": "address"
        }
      ],
      "name": "setTreasury",
      "outputs": [],
      "stateMutability": "nonpayable",
      "type": "function"
    },
    {
      "inputs": [
        {
          "internalType": "address",
          "name": "_config",
          "type": "address"
        }
      ],
      "name": "setupConfig",
      "outputs": [],
      "stateMutability": "nonpayable",
      "type": "function"
    },
    {
      "inputs": [],
      "name": "signer",
      "outputs": [
        {
          "internalType": "address",
          "name": "",
          "type": "address"
        }
      ],
      "stateMutability": "view",
      "type": "function"
    },
    {
      "inputs": [],
      "name": "totalCount",
      "outputs": [
        {
          "internalType": "uint128",
          "name": "",
          "type": "uint128"
        }
      ],
      "stateMutability": "view",
      "type": "function"
    },
    {
      "inputs": [],
      "name": "treasury",
      "outputs": [
        {
          "internalType": "address",
          "name": "",
          "type": "address"
        }
      ],
      "stateMutability": "view",
      "type": "function"
    },
    {
      "inputs": [
        {
          "internalType": "address",
          "name": "",
          "type": "address"
        }
      ],
      "name": "userCounter",
      "outputs": [
        {
          "internalType": "uint64",
          "name": "",
          "type": "uint64"
        }
      ],
      "stateMutability": "view",
      "type": "function"
    },
    {
      "inputs": [
        {
          "internalType": "address",
          "name": "to",
          "type": "address"
        },
        {
          "internalType": "address",
          "name": "token",
          "type": "address"
        },
        {
          "internalType": "uint256",
          "name": "amount",
          "type": "uint256"
        },
        {
          "internalType": "uint256",
          "name": "orderId",
          "type": "uint256"
        },
        {
          "internalType": "bytes",
          "name": "signature",
          "type": "bytes"
        }
      ],
      "name": "verifyClaimERC20",
      "outputs": [
        {
          "internalType": "bool",
          "name": "",
          "type": "bool"
        }
      ],
      "stateMutability": "view",
      "type": "function"
    }
  ],
  "bytecode": "0x608060405234801561001057600080fd5b50611a76806100206000396000f3fe608060405234801561001057600080fd5b506004361061011b5760003560e01c80636c19e783116100b2578063a6f9dae111610081578063df022e4b11610066578063df022e4b146102f1578063f0f442601461030b578063f851a4401461031e57600080fd5b8063a6f9dae11461029b578063d9d897d5146102ae57600080fd5b80636c19e7831461024057806379502c55146102535780638da5cb5b1461027357806391cca3db1461029357600080fd5b806340d8aa0f116100ee57806340d8aa0f146101df578063485cc955146101fa5780634b97ab251461020d57806361d027b31461022057600080fd5b8063185e5ed914610120578063238ac9331461014857806334eafb111461018d5780633d50f2e0146101ca575b600080fd5b61013361012e36600461165f565b610326565b60405190151581526020015b60405180910390f35b6002546101689073ffffffffffffffffffffffffffffffffffffffff1681565b60405173ffffffffffffffffffffffffffffffffffffffff909116815260200161013f565b6004546101a9906fffffffffffffffffffffffffffffffff1681565b6040516fffffffffffffffffffffffffffffffff909116815260200161013f565b6101dd6101d83660046116eb565b6105d9565b005b6101336101ed366004611708565b6001979650505050505050565b6101dd61020836600461179f565b6106ea565b61013361021b3660046117d8565b610938565b6003546101689073ffffffffffffffffffffffffffffffffffffffff1681565b6101dd61024e3660046116eb565b610a51565b6000546101689073ffffffffffffffffffffffffffffffffffffffff1681565b6001546101689073ffffffffffffffffffffffffffffffffffffffff1681565b610168610bdb565b6101dd6102a93660046116eb565b610cba565b6102d86102bc3660046116eb565b60056020526000908152604090205467ffffffffffffffff1681565b60405167ffffffffffffffff909116815260200161013f565b6101336102ff36600461165f565b60019695505050505050565b6101dd6103193660046116eb565b610e50565b610168610f55565b67ffffffffffffffff831660009081526006602052604081205460ff16156103af576040517f08c379a000000000000000000000000000000000000000000000000000000000815260206004820152601660248201527f4f72646572496420616c7265616479206578697374730000000000000000000060448201526064015b60405180910390fd5b6103c68787878767ffffffffffffffff1686610938565b61042c576040517f08c379a000000000000000000000000000000000000000000000000000000000815260206004820152601160248201527f496e76616c6964207369676e617475726500000000000000000000000000000060448201526064016103a6565b67ffffffffffffffff808516600090815260066020908152604080832080547fffffffffffffffffffffffffffffffffffffffffffffffffffffffffffffff0016600190811790915573ffffffffffffffffffffffffffffffffffffffff8c16845260059092528220805491939092916104a89185911661187d565b92506101000a81548167ffffffffffffffff021916908367ffffffffffffffff1602179055506001600460008282829054906101000a90046fffffffffffffffffffffffffffffffff166104fc91906118a9565b92506101000a8154816fffffffffffffffffffffffffffffffff02191690836fffffffffffffffffffffffffffffffff16021790555061056086600360009054906101000a900473ffffffffffffffffffffffffffffffffffffffff168988610fda565b6040805173ffffffffffffffffffffffffffffffffffffffff88811682526020820188905267ffffffffffffffff87811683850152861660608301529151918916917f047737abd5d72ad52e9e4211fea0b93881a018cc3ed65a056631c2f2b40a48ec9181900360800190a25060019695505050505050565b60015473ffffffffffffffffffffffffffffffffffffffff16331461065a576040517f08c379a000000000000000000000000000000000000000000000000000000000815260206004820152600f60248201527f4f574e455220464f5242494444454e000000000000000000000000000000000060448201526064016103a6565b6000805460405173ffffffffffffffffffffffffffffffffffffffff8085169392169133917f1c9f92ac4e71628bcbcaa06d364d40e010aef535184545a709e14cced8ac2d3c9190a4600080547fffffffffffffffffffffffff00000000000000000000000000000000000000001673ffffffffffffffffffffffffffffffffffffffff92909216919091179055565b6001547501000000000000000000000000000000000000000000900460ff166107315760015474010000000000000000000000000000000000000000900460ff1615610735565b303b155b6107c1576040517f08c379a000000000000000000000000000000000000000000000000000000000815260206004820152602e60248201527f496e697469616c697a61626c653a20636f6e747261637420697320616c72656160448201527f647920696e697469616c697a656400000000000000000000000000000000000060648201526084016103a6565b6001547501000000000000000000000000000000000000000000900460ff1615801561082857600180547fffffffffffffffffffff0000ffffffffffffffffffffffffffffffffffffffff1675010100000000000000000000000000000000000000001790555b73ffffffffffffffffffffffffffffffffffffffff83166108a5576040517f08c379a000000000000000000000000000000000000000000000000000000000815260206004820152600c60248201527f5a65726f2061646472657373000000000000000000000000000000000000000060448201526064016103a6565b60018054337fffffffffffffffffffffffff00000000000000000000000000000000000000009182161790915560028054821673ffffffffffffffffffffffffffffffffffffffff8681169190911790915560038054909216908416179055801561093357600180547fffffffffffffffffffff00ffffffffffffffffffffffffffffffffffffffffff1690555b505050565b6040517fffffffffffffffffffffffffffffffffffffffff000000000000000000000000606087811b8216602084015286811b82166034840152604883018690526068830185905230901b1660888201526000908190609c016040516020818303038152906040528051906020012090506000816040516020016109e891907f19457468657265756d205369676e6564204d6573736167653a0a3332000000008152601c810191909152603c0190565b604080517fffffffffffffffffffffffffffffffffffffffffffffffffffffffffffffffe08184030181529190528051602090910120600254909150610a459073ffffffffffffffffffffffffffffffffffffffff168286611178565b98975050505050505050565b610a59610bdb565b73ffffffffffffffffffffffffffffffffffffffff163373ffffffffffffffffffffffffffffffffffffffff161480610aa9575060015473ffffffffffffffffffffffffffffffffffffffff1633145b610b0f576040517f08c379a000000000000000000000000000000000000000000000000000000000815260206004820152600d60248201527f64657620464f5242494444454e0000000000000000000000000000000000000060448201526064016103a6565b60025473ffffffffffffffffffffffffffffffffffffffff82811691161415610b94576040517f08c379a000000000000000000000000000000000000000000000000000000000815260206004820152601260248201527f5468657265206973206e6f206368616e6765000000000000000000000000000060448201526064016103a6565b600280547fffffffffffffffffffffffff00000000000000000000000000000000000000001673ffffffffffffffffffffffffffffffffffffffff92909216919091179055565b6000805473ffffffffffffffffffffffffffffffffffffffff1615610c9d5760008054906101000a900473ffffffffffffffffffffffffffffffffffffffff1673ffffffffffffffffffffffffffffffffffffffff166391cca3db6040518163ffffffff1660e01b815260040160206040518083038186803b158015610c6057600080fd5b505afa158015610c74573d6000803e3d6000fd5b505050506040513d601f19601f82011682018060405250810190610c9891906118d4565b905090565b5060015473ffffffffffffffffffffffffffffffffffffffff1690565b60015473ffffffffffffffffffffffffffffffffffffffff163314610d3b576040517f08c379a000000000000000000000000000000000000000000000000000000000815260206004820152600f60248201527f4f574e455220464f5242494444454e000000000000000000000000000000000060448201526064016103a6565b60015473ffffffffffffffffffffffffffffffffffffffff82811691161415610dc0576040517f08c379a000000000000000000000000000000000000000000000000000000000815260206004820152601060248201527f4f776e65723a204e4f204348414e47450000000000000000000000000000000060448201526064016103a6565b60015460405173ffffffffffffffffffffffffffffffffffffffff80841692169033907f381c0d11398486654573703c51ee8210ce9461764d133f9f0e53b6a53970533190600090a4600180547fffffffffffffffffffffffff00000000000000000000000000000000000000001673ffffffffffffffffffffffffffffffffffffffff92909216919091179055565b610e58610bdb565b73ffffffffffffffffffffffffffffffffffffffff163373ffffffffffffffffffffffffffffffffffffffff161480610ea8575060015473ffffffffffffffffffffffffffffffffffffffff1633145b610f0e576040517f08c379a000000000000000000000000000000000000000000000000000000000815260206004820152600d60248201527f64657620464f5242494444454e0000000000000000000000000000000000000060448201526064016103a6565b600380547fffffffffffffffffffffffff00000000000000000000000000000000000000001673ffffffffffffffffffffffffffffffffffffffff92909216919091179055565b6000805473ffffffffffffffffffffffffffffffffffffffff1615610c9d5760008054906101000a900473ffffffffffffffffffffffffffffffffffffffff1673ffffffffffffffffffffffffffffffffffffffff1663f851a4406040518163ffffffff1660e01b815260040160206040518083038186803b158015610c6057600080fd5b6040805173ffffffffffffffffffffffffffffffffffffffff85811660248301528481166044830152606480830185905283518084039091018152608490920183526020820180517bffffffffffffffffffffffffffffffffffffffffffffffffffffffff167f23b872dd0000000000000000000000000000000000000000000000000000000017905291516000928392908816916110799190611921565b6000604051808303816000865af19150503d80600081146110b6576040519150601f19603f3d011682016040523d82523d6000602084013e6110bb565b606091505b50915091508180156110e55750805115806110e55750808060200190518101906110e5919061193d565b611170576040517f08c379a0000000000000000000000000000000000000000000000000000000008152602060048201526024808201527f5472616e7366657248656c7065723a205452414e534645525f46524f4d5f464160448201527f494c45440000000000000000000000000000000000000000000000000000000060648201526084016103a6565b505050505050565b60008060006111878585611369565b909250905060008160048111156111a0576111a061195f565b1480156111d857508573ffffffffffffffffffffffffffffffffffffffff168273ffffffffffffffffffffffffffffffffffffffff16145b156111e857600192505050611362565b6000808773ffffffffffffffffffffffffffffffffffffffff16631626ba7e60e01b888860405160240161121d92919061198e565b604080517fffffffffffffffffffffffffffffffffffffffffffffffffffffffffffffffe08184030181529181526020820180517bffffffffffffffffffffffffffffffffffffffffffffffffffffffff167fffffffff000000000000000000000000000000000000000000000000000000009094169390931790925290516112a69190611921565b600060405180830381855afa9150503d80600081146112e1576040519150601f19603f3d011682016040523d82523d6000602084013e6112e6565b606091505b50915091508180156112f9575080516020145b801561135b575080517f1626ba7e000000000000000000000000000000000000000000000000000000009061133790830160209081019084016119e6565b7fffffffff0000000000000000000000000000000000000000000000000000000016145b9450505050505b9392505050565b6000808251604114156113a05760208301516040840151606085015160001a611394878285856113d9565b945094505050506113d2565b8251604014156113ca57602083015160408401516113bf8683836114f1565b9350935050506113d2565b506000905060025b9250929050565b6000807f7fffffffffffffffffffffffffffffff5d576e7357a4501ddfe92f46681b20a083111561141057506000905060036114e8565b8460ff16601b1415801561142857508460ff16601c14155b1561143957506000905060046114e8565b6040805160008082526020820180845289905260ff881692820192909252606081018690526080810185905260019060a0016020604051602081039080840390855afa15801561148d573d6000803e3d6000fd5b50506040517fffffffffffffffffffffffffffffffffffffffffffffffffffffffffffffffe0015191505073ffffffffffffffffffffffffffffffffffffffff81166114e1576000600192509250506114e8565b9150600090505b94509492505050565b6000807f7fffffffffffffffffffffffffffffffffffffffffffffffffffffffffffffff83168161152760ff86901c601b611a28565b9050611535878288856113d9565b935093505050935093915050565b73ffffffffffffffffffffffffffffffffffffffff8116811461156557600080fd5b50565b803567ffffffffffffffff8116811461158057600080fd5b919050565b7f4e487b7100000000000000000000000000000000000000000000000000000000600052604160045260246000fd5b600082601f8301126115c557600080fd5b813567ffffffffffffffff808211156115e0576115e0611585565b604051601f83017fffffffffffffffffffffffffffffffffffffffffffffffffffffffffffffffe0908116603f0116810190828211818310171561162657611626611585565b8160405283815286602085880101111561163f57600080fd5b836020870160208301376000602085830101528094505050505092915050565b60008060008060008060c0878903121561167857600080fd5b863561168381611543565b9550602087013561169381611543565b9450604087013593506116a860608801611568565b92506116b660808801611568565b915060a087013567ffffffffffffffff8111156116d257600080fd5b6116de89828a016115b4565b9150509295509295509295565b6000602082840312156116fd57600080fd5b813561136281611543565b600080600080600080600060e0888a03121561172357600080fd5b873561172e81611543565b9650602088013561173e81611543565b9550604088013594506060880135935061175a60808901611568565b925061176860a08901611568565b915060c088013567ffffffffffffffff81111561178457600080fd5b6117908a828b016115b4565b91505092959891949750929550565b600080604083850312156117b257600080fd5b82356117bd81611543565b915060208301356117cd81611543565b809150509250929050565b600080600080600060a086880312156117f057600080fd5b85356117fb81611543565b9450602086013561180b81611543565b93506040860135925060608601359150608086013567ffffffffffffffff81111561183557600080fd5b611841888289016115b4565b9150509295509295909350565b7f4e487b7100000000000000000000000000000000000000000000000000000000600052601160045260246000fd5b600067ffffffffffffffff8083168185168083038211156118a0576118a061184e565b01949350505050565b60006fffffffffffffffffffffffffffffffff8083168185168083038211156118a0576118a061184e565b6000602082840312156118e657600080fd5b815161136281611543565b60005b8381101561190c5781810151838201526020016118f4565b8381111561191b576000848401525b50505050565b600082516119338184602087016118f1565b9190910192915050565b60006020828403121561194f57600080fd5b8151801515811461136257600080fd5b7f4e487b7100000000000000000000000000000000000000000000000000000000600052602160045260246000fd5b82815260406020820152600082518060408401526119b38160608501602087016118f1565b601f017fffffffffffffffffffffffffffffffffffffffffffffffffffffffffffffffe016919091016060019392505050565b6000602082840312156119f857600080fd5b81517fffffffff000000000000000000000000000000000000000000000000000000008116811461136257600080fd5b60008219821115611a3b57611a3b61184e565b50019056fea2646970667358221220d083d4234388d7b4f2498b9a80d481521cecbea7ddeae9bc021214675c1cdfa864736f6c63430008090033",
  "linkReferences": {},
  "deployedLinkReferences": {}
}